:020000040800F2
:1000000088BD00202D0200083102000833020008DC
:10001000350200083702000839020008000000001D
:100020000000000000000000000000003B0200088B
:100030003D020008000000003F02000841020008E5
:10004000430200084302000843020008956E0008BE
:10005000430200084302000843020008430200086C
:10006000430200084302000843020008430200085C
:10007000430200084302000843020008430200084C
:10008000430200084302000843020008430200083C
:10009000430200084302000843020008430200082C
:1000A000430200084302000843020008430200081C
:1000B0004302000843020008E97C000843020008EC
:1000C00043020008430200084302000843020008FC
:1000D000430200086591000843020008430200083B
:1000E00043020008430200084302000843020008DC
:1000F00043020008430200084302000843020008CC
:1001000043020008430200084302000843020008BB
:1001100043020008430200084302000843020008AB
:10012000430200084302000843020008430200089B
:1001300000F002F800F06BF80AA090E8000C82448E
:100140008344AAF10107DA4501D100F060F8AFF26B
:10015000090EBAE80F0013F0010F18BFFB1A43F0A5
:100160000103184750250100702501000A444FF093
:10017000000C10F8013B13F0070408BF10F8014B06
:100180001D1108BF10F8015B641E05D010F8016B4B
:10019000641E01F8016BF9D113F0080F1EBF10F8AF
:1001A000014BAD1C0C1B09D16D1E58BF01F801CBD2
:1001B000FAD505E014F8016B01F8016B6D1EF9D555
:1001C0009142D6D37047000000230024002500266A
:1001D000103A28BF78C1FBD8520728BF30C148BFAA
:1001E0000B607047642900F09B80752900F09880AF
:1001F000782900F0D180632900F0AA82732900F0E9
:10020000AF82002070471FB51FBD10B510BD00F0B4
:10021000E1FA1146FFF7F7FF0CF0D4FD00F0ACF95E
:1002200003B4FFF7F2FF03BC08F0E5FF08480047FE
:10023000FEE7FEE7FEE7FEE7FEE7FEE7FEE7FEE796
:10024000FEE7FEE703480449044A054B70470000F7
:100250003101000888B7002088BD002088B900203F
:1002600088B90020704700000FB4044910B503AAF4
:10027000029800F079FA10BC5DF814FB040000202D
:1002800070B5044685690068C10601D5302600E0D6
:100290002026C00707D070BDD4E901213046904721
:1002A000206A401C20626D1EF6D570BD70B50446F4
:1002B00085690078C00707D170BDD4E901212020ED
:1002C0009047206A401C20626D1EF6D570BD70B547
:1002D0000C460546012A05D02878800600D5EA6933
:1002E000002302E0012305E05B1C934202D2E05CA4
:1002F0000028F9D1A869E618C01AA861286A18442C
:1003000028622846FFF7BCFF04E0D5E9012114F874
:10031000010B9047B442F8D32846FFF7C7FF70BDE2
:100320002DE9F0410646002410687529314616A5CE
:1003300010D0AFF30080002802DA404213A507E096
:1003400031688A0701D512A502E0490704D511A535
:10035000012401E0AFF3008000210A2206F1240706
:1003600009E0B0FBF2FCB0FBF2F302FB1C00303002
:1003700078541846491C0028F3D123462A463046B3
:10038000BDE8F04100F081B9000000002D00000040
:100390002B0000002000000070B504460D462146E9
:1003A0001068AFF300802188090502D50F4A7A440E
:1003B00002E00E4A7A440E32002104F1240305E0E3
:1003C00000F00F060009965D5E54491C0028F7D125
:1003D00020780023000704D5702D02D009B1022334
:1003E00011322046BDE8704000F04FB9E82001000E
:1003F0002DE9F05F894604464FF0000ADFF874B13A
:10040000FB44C0F820A02046E1688847002874D04B
:10041000252806D0D4E901219047206A401C20629B
:10042000F1E700265F462046E16888472028054618
:1004300007DB312D05D2781910F8200C08B10643DE
:10044000F1E7B00701D526F00406C4F81CA0002788
:10045000C4F818A02A2D09D0284608F0C5FE38B3E4
:1004600004EB8708303DC8F8185019E059F8041B10
:10047000204604EB87029161E1688847012F054619
:1004800018D1E069002820DA26F020061DE0D8F80F
:10049000180000EB800005EB40003038C8F8180069
:1004A0002046E1688847054608F09EFE0028EED108
:1004B000012F0AD02E2D08D12046E16888477F1CE5
:1004C0000546022F46F02006C4DBA069002803DAA7
:1004D000404246F00106A061F00701D026F0100668
:1004E0006C2D0BD0682D09D04C2D39D06A2D35D00C
:1004F000742D35D07A2D33D016E038E0E1682F46E0
:1005000020468847B842054609D16C2F26D04FF4C3
:100510008060E168064320468847054604E06C2F6A
:100520001AD04FF4807006430DB3A5F1410019288D
:1005300002D8203546F400664A4629462046266001
:100540004E46FFF74FFE80B101280BD0F61D26F076
:10055000070000F1080956E74020E4E78020D8E7CB
:100560000020D6E706F104094DE7284652E7206A45
:10057000BDE8F09FBE20010010B50446AFF3008037
:100580002046BDE81040FFF74BBE40EA010302469B
:1005900030B59B0710D14FF0013400E008C208C904
:1005A0001D1B9D4315EAC41FF8D013F0FF0102F88C
:1005B000011B0DD01B0AF8E711F8013B002B02F8D4
:1005C000013B05D011F8013B002B02F8013BF3D1B0
:1005D00030BD421E12F8013F002BFBD111F8013B48
:1005E000002B02F8013BF9D1704700004FF0013CAD
:1005F00050F8042B51F8043B9A4221D1A2EB0C0392
:10060000934313EACC1317D150F8042B51F8043B51
:100610009A4215D1A2EB0C03934313EACC130BD1EE
:1006200050F8042B51F8043B9A4209D1A2EB0C0379
:10063000934313EACC13DBD04FF00000704700BFA8
:10064000D01A01BAB1FA81F101F0180122FA01F0D1
:10065000CB40C1F12001DBB2C0B2C01A2CFA01F3C9
:10066000D11A914311EAC311E6D170477047704720
:100670007047704710B500F089F8006810BD10B5DC
:10068000044600F083F8046010BD2DE9F0470D46E4
:1006900099469246044600F124080168880604D56C
:1006A000E06921F01001216000E00120A84201DD95
:1006B000471B00E00027A1697A1902EB0900081A1C
:1006C000A0612078C00602D42046FFF7D9FD00269D
:1006D00008E0D4E901211AF806009047206A401C7E
:1006E000761C20624E45F4DB2078C0060AD52046F1
:1006F000FFF7C6FD06E0D4E9012130209047206ACB
:10070000401C2062381EA7F10107F4DC07E0D4E9A1
:10071000012118F805009047206A401C2062281E1D
:10072000A5F10105F3DC2046FFF7C0FD20780006A7
:1007300002D50220BDE8F0870120FBE710B5436930
:1007400013B1AFF3008001E0FFF7C1FD012010BD40
:10075000127800F124010A7000224A700122EDE7AC
:1007600011684FF0FF32E9E7074B70B50D467B4447
:1007700000F015F80446284600F024F810B14FF0B8
:10078000FF3070BD204670BD83AC0000004870474C
:1007900024B7002001694A1C02610878704700B53F
:1007A0008FB0CDE901310021059105497944CDE9AA
:1007B000031011466846FFF71BFE0FB000BD000096
:1007C000E5FFFFFF007B00F08000704700487047A6
:1007D00024B700207546FFF7F9FFAE4605006946CD
:1007E000534620F00700854618B020B5FFF72AFDD4
:1007F000BDE820404FF000064FF000074FF0000822
:100800004FF0000B21F00701AC46ACE8C009ACE8A2
:10081000C009ACE8C009ACE8C0098D46704710B506
:1008200000F0F6FE10BD2DE9F04107460C4600260B
:10083000002509E036023919491B491E88B200F02B
:1008400008F80644681CC5B2A542F3DB3046BDE893
:10085000F08170B50446002600F08AFF2546E117B6
:1008600004EB11610912A02202EB4101C8B200F0B1
:100870004BFF00F0C9FFE11704EB11610912A4EB73
:100880000121C8B200F040FF00F0BEFF00F070FF91
:10089000A12000F039FF00F0B7FF002000F0FCFEBF
:1008A000064600F08BFF304670BD2DE9F04105464D
:1008B0000E461746002409E0E20026FA02F2D1B201
:1008C0002A1990B200F006F8601CC4B2BC42F3DBF7
:1008D000BDE8F08170B504460E4600F049FF25469C
:1008E000E11704EB11610912A02202EB4101C8B229
:1008F00000F00AFF00F088FFE11704EB1161091214
:10090000A4EB0121C8B200F0FFFE00F07DFF3046ED
:1009100000F0FAFE00F078FF00F050FF0A2009F026
:100920006DFA70BD4548806940F004004349886114
:100930004348006820F0F000414908603F48806962
:1009400040F400703D4988610846C06840F400707A
:10095000C8600846C06820F40070C8600846406857
:1009600020F4404048600846406840F40040486039
:100970003448006834490840324908600846006835
:1009800008600846006820F480700860081D006850
:1009900020F00200091D08600846006820F460206D
:1009A00008600846006840F4602008600846006857
:1009B00040F4801008600846006820F40060086079
:1009C00020482830006820F470001E492831086053
:1009D0000846006808601B480C30006820F03800AA
:1009E00018490C3108600846006840F0380008607B
:1009F0001448001D006840F001001249091D0860FC
:100A00000846006840F00800086000BF0D48001D5F
:100A1000006800F008000028F8D10A48001D0068AE
:100A200040F004000749091D086000BF0548001D8B
:100A3000006800F004000028F8D170470010024060
:100A40000008014004240140FFFFF00010B505201C
:100A500009F0F2F910BD000010B500200F49086040
:100A60000F48006820F470400D490860084600688F
:100A700040F440500860FFF7E9FF00200949C1F841
:100A80008C01FFF7E3FF012004490860FFF7DEFF58
:100A900000200449C1F8800110BD000080012242FD
:100AA00000100140000022420F48806940F0100011
:100AB0000D4988610D4800684FF20F0188430B49CA
:100AC00008600846006843F20301084307490860CC
:100AD0000846C06840F00200C8600846C06840F0A0
:100AE0000800C8607047000000100240001001407C
:100AF00010B500200F4908600F48006820F47040CE
:100B00000D4908600846006840F440500860FFF74F
:100B10009DFF01200949C1F88C01FFF797FF0120D3
:100B200004490860FFF792FF00200449C1F88001E2
:100B300010BD00008001224200100140000022424E
:100B400070B5054600241648006820F4704014492A
:100B500008600846006840F4004008601E2009F064
:100B60006BF9002612E000200E490860FFF76EFFC7
:100B700001200D49C1F880016006040E094874384F
:100B8000006808B1601CC4B2701CC6B2082EEADB53
:100B900015B9FFF7ADFF01E0FFF75EFF204670BD1E
:100BA00000100140800122420000224270B504463C
:100BB0001348006820F47040114908600846006836
:100BC00040F44050086000200E490860FFF73EFFE7
:100BD000002512E0E0090B490C3108606006040EA4
:100BE00001200949C1F88001FFF730FF00200549C5
:100BF0000860FFF72BFF681CC5B2082DEADB70BD4B
:100C000000100140800122420000224210B50F482E
:100C1000006820F470400D4908600846006840F400
:100C20004050086001200A4908600A49C1F8800163
:100C30001E2009F001F9002005490860FFF706FFB2
:100C400000200449C1F8800110BD000000100140DF
:100C50008C0122420000224210B50E48006820F4A8
:100C600070400C4908600846006840F44050086035
:100C70000120094908601E2009F0DEF8002007491C
:100C8000C1F88C01FFF7E2FE012003490C31086036
:100C900010BD0000001001408001224200002242ED
:100CA00010B500241348006820F470401149086012
:100CB0000846006840F40040086001200E490860C2
:100CC0000E49C1F88001FFF7C1FE09E0601CC4B203
:100CD000FA2C03DDFFF7C0FF012010BDFFF7B6FEC1
:100CE0000548803800680028F0D103490C390860B5
:100CF00000BFF2E7001001408C01224200002242B6
:100D000010B500241548006820F00F001349086052
:100D10000846006840F00800086004E0601CC4B2A7
:100D2000012009F089F80E48006808B1C82CF5DBED
:100D3000C82C01DB012010BD002404E0601CC4B2FB
:100D4000012009F079F80648006808B9F02CF5DBB5
:100D5000F02C01DB0120EEE70020ECE70008014069
:100D6000000121422DE9F84F00F0D0F800F0ACF876
:100D7000FFF7C6FFCC2000F0D5F8BE2000F0D2F877
:100D800000F090F8834600F08DF80446072C08DD4B
:100D9000E043C4B26FEA0B0000F0FF0B4FF0000A13
:100DA00001E04FF0010AA1464FEA09200FFA80F94D
:100DB00009EB0B000FFA80F948460FF0CBF80090D2
:100DC0000EF030FF07460022084B0EF01BFC0546D4
:100DD0000EF054FB0FFA80F9BAF1000F02D048462A
:100DE000BDE8F88FC9F1000000B2F9E70000E43F68
:100DF00010B50F48806940F004000D4988610D4826
:100E0000006820F00F000B4908600846006840F0B9
:100E10000300086007480C30006840F001000549F5
:100E20000C31086000F050F8FFF76AFF10BD0000B9
:100E3000001002400008014010B51748006820F07B
:100E40000F00154908600846006840F0030008607C
:100E5000002012490860022008F0EEFF012010492E
:100E6000C1F880010C48006820F00F000A490860B2
:100E70000846006840F0080008600C2008F0DCFF1D
:100E800006488038006808B1012400E000243220C0
:100E900008F0D2FF204610BD000801408001214229
:100EA0000000214270B50026012508E0FFF7C4FFCD
:100EB0000446E00140EA6600C6B2681CC5B2082DCF
:100EC000F4DD304670BD000010B50D48006820F01C
:100ED0000F000B4908600846006840F003000860F6
:100EE00000200849086040F2EE2008F0A5FF01202C
:100EF0000549C1F880010F2008F09EFF10BD0000D9
:100F000000080140800121420000214210B5FFF796
:100F1000DBFFFFF7F5FECC2000F004F8442000F0E2
:100F200001F810BD70B504461848006820F00F00A5
:100F3000164908600846006840F003000860012573
:100F400020E004F0010664106EB100201049086032
:100F5000022008F071FF01200E49C1F880013C20F9
:100F600008F06AFF0CE00020094908603C2008F006
:100F700063FF01200749C1F88001022008F05CFFEF
:100F8000681CC5B2082DDCDD70BD00000008014002
:100F900080012142000021421CB54248806940F096
:100FA0001000404988614048006820F0F0003E4948
:100FB00008600846006840F0300008600846C068D5
:100FC00040F00200C8600846406820F470004860A5
:100FD0000846406840F4401048600846C06840F445
:100FE0000050C860FFF760FD0020304908600A200B
:100FF00008F004FF01202E49C1F8B4010A2008F0CE
:10100000FDFE2948006820F0F000274908600846E6
:10101000006840F0800008600846C06820F00200C8
:10102000C860642008F0EAFE0422694648F24010D5
:1010300000F054F800208DF8040069461DA0FFF769
:1010400013F91FA16846FFF7D1FA40BB02208DF8C3
:1010500000000122694648F2400000F071F90122C7
:10106000694648F2470000F039F89DF80000602812
:1010700007DA9DF8001014A0FFF7F6F8012000F041
:1010800031F90A2008F0BAFE00208DF80000012294
:10109000694648F2400000F053F900201CBD0120D1
:1010A000FCE700000010024000100140B4012242A1
:1010B000000022424354502049443A25730D0A004F
:1010C000393134370000000044656661756C742066
:1010D0005665723A25640D0A000000002DE9F041C2
:1010E00005460F461646FFF791FD2820FFF75EFDE7
:1010F000FFF7D6FD2812FFF759FDFFF7D1FDE8B243
:10110000FFF754FDFFF7CCFDFFF780FD2920FFF727
:101110004DFDFFF7C5FD00240BE0711EA14201D07B
:10112000012100E000210846FFF70AFD3855601C48
:10113000C4B2B442F1DBFFF78FFDBDE8F0810000DF
:1011400031B582B00024002563480078401C624914
:101150000870084600780A2190FBF1F201FB1200AA
:1011600018B15D4800780A287DDA012202A948F208
:101170004E10FFF7B3FF9DF8080000F00F000028A5
:101180006BD09DF8080000F00F00062865DA9DF886
:10119000080000F00F01FF208840C0B200909DF8C9
:1011A0000000C043C0B240F0C0004C4981F82000AC
:1011B000002444E0494890F820000121A140084063
:1011C00020B3474931F81400042201A9FFF786FF34
:1011D000424890F8300000F00100C0B19DF80400D2
:1011E0009DF8051000EB012081B23C48163020F834
:1011F00014109DF806009DF8071000EB0120C0F5C3
:10120000487081B235480C3020F8141015E09DF874
:1012100004009DF8051000EB012081B22F480C302E
:1012200020F814109DF806009DF8071000EB01202F
:1012300081B22A48163020F81410601CC4B2052C64
:10124000B8DB01252548808920B92448C08A08B91F
:10125000002002900020204908709DF8080000F04E
:10126000800000B100E00DE09DF8080000F00F00E4
:10127000062807DA002000900122694648F24E1045
:1012800000F05EF89DF8080000F08F0080281AD169
:10129000124890F8200000F0800040B10F4890F80C
:1012A000200020F080000D4981F820000BE04FF66F
:1012B000FF700A498881C882084690F8200000F033
:1012C000E00081F8200004480078F02802DD0A20C0
:1012D0000149087028463EBD4A0000201400002045
:1012E0008C1B010838B50546002400208DF800004D
:1012F0008DF8015000BF09E09DF800000F49095D1D
:101300000844C0B28DF80000601CC4B2B82CF3D3FE
:101310009DF80000C043401CC0B28DF80000B82208
:10132000064948F2470000F00BF80222694648F2ED
:10133000FF0000F005F8002038BD0000D41A0108B5
:101340002DE9F04104460E4617464FF00008FFF71E
:101350005DFC2820FFF72AFCFFF7A2FC2012FFF714
:1013600025FCFFF79DFCE0B2FFF720FCFFF798FC9F
:1013700000250BE0705DFFF719FCFFF791FC80463C
:10138000B8F1000F00D003E0681CC5B2BD42F1DB2C
:1013900000BFFFF761FC4046BDE8F0810EB50020BC
:1013A0003A4908802723EF22194600F0F9FB8123F0
:1013B000EF221946002000F0F3FBDB23EF22194651
:1013C000002000F0EDFB40F23F137722272110466A
:1013D00000F0E6FB1F202D490880012010212CA2DF
:1013E0000B46CDE900210290F0220A21642006F08C
:1013F000D1FB0020102128A20B46CDE9002102904C
:10140000F0224B211D2006F0C5FB0020102125A253
:101410000B46CDE900210290F0224B21952006F0E9
:10142000B9FB0020102122A20B46CDE90021029039
:10143000F022A5211D2006F0ADFB002010211FA2E7
:101440000B46CDE900210290F022A521952006F05F
:10145000A1FB4FF478400D490880012010211AA209
:101460000B46CDE900210290F022E6210F2006F084
:1014700091FB0120102117A20B46CDE9002102901B
:10148000F022E621872006F085FB0EBD0A00002031
:10149000B2CBB5A5C0B80000B3C9BCA8C2BCC8EBEC
:1014A00000000000B3C9BCA8D0DEB8C40000000032
:1014B000B3C9BCA8CCE1BDBB00000000BAF3CCA806
:1014C000B9DCC0ED00000000BDF1CCECB5C4CEC26B
:1014D000B6C80000C8D5C6DABACDCAB1BCE40000AF
:1014E0002DE9F05F81460F4614462046E21704EBD3
:1014F0005272D2102146E31704EB5373DB10A4EBB6
:10150000C3030BB1012300E000231A44624302F03D
:10151000FF0B99F8006009F1010081460578812EE2
:1015200005DB402D03DBFF2D01D0FF2E0DD14FF049
:10153000000A06E0002007F8010B0AF1010000F0A4
:10154000FF0ADA45F6DBBDE8F09F7F2D03DAA5F14F
:101550004000C5B202E0A5F14100C5B2A6F181008C
:10156000C6B2BE2000FB065000FB0BF80C2C04D0CA
:10157000102C0CD0182C1ED113E01048D0F8090004
:1015800000EB08011822384606F086F913E00B48F4
:10159000D0F8110000EB08012022384606F07CF953
:1015A00009E00648D0F8190000EB08014822384647
:1015B00006F072F900BF00BF00BFC4E7C4B6002048
:1015C00010B500200F4908600F48406820F47040B3
:1015D0000D4948600846406840F44050486000208B
:1015E0000A49C1F8AC01022008F026FC0120054997
:1015F0000860022008F020FC00200449C1F8B00176
:1016000010BD0000B0012242001001400000224243
:101610000B48806940F0100009498861094840681A
:1016200020F47F20074948600846406840F44C3069
:1016300048600846C06840F4C050C8607047000069
:10164000001002400010014010B500200F49086052
:101650000F48406820F470400D49486008464068D3
:1016600040F44050486001200A49C1F8AC01022012
:1016700008F0E2FB012005490860022008F0DCFBCD
:1016800000200449C1F8B00110BD0000B0012242A1
:10169000001001400000224270B5054600241748A2
:1016A000406820F47040154948600846406840F49E
:1016B00000404860002616E0002011490860022022
:1016C00008F0BAFB01200F49C1F8B0016006040E12
:1016D0000B488438006808B1601CC4B2012008F0CF
:1016E000ABFB701CC6B2082EE6DB15B9FFF7ACFFEA
:1016F00001E0FFF765FF204670BD000000100140CB
:10170000B00122420000224270B5044615484068EC
:1017100020F47040134948600846406840F4405047
:101720004860002010490860002517E0E0090E49D4
:10173000091F08606006040E022008F07DFB0120EE
:101740000A49C1F8B001022008F076FB00200649E2
:101750000860022008F070FB681CC5B2082DE5DBAC
:1017600070BD000000100140B00122420000224282
:1017700010B50F48406820F470400D494860084695
:10178000406840F44050486001200A4908600A4916
:10179000C1F8B001042008F04FFB002005490860A3
:1017A000042008F049FB00200349C1F8B00110BD36
:1017B00000100140AC0122420000224210B50F4847
:1017C000406820F470400D4948600846406840F485
:1017D0004050486000200A4908600A49C1F8AC013D
:1017E000042008F029FB012005490860042008F0C6
:1017F00023FB01200349C1F8AC0110BD00100140DA
:10180000B00122420000224210B500241448406872
:1018100020F47040124948600846406840F4004097
:10182000486001200F49086008F006FB01200E49BE
:10183000C1F8B00108F000FB07E0601CC4B2FA2C4C
:1018400003DDFFF7BBFF012010BD064880380068AC
:101850000028F2D10349091D086000BFF4E7000029
:1018600000100140AC012242000022420146CA178A
:1018700001EB92729210A1EB820292B9642091FB6B
:10188000F0F200FB121050B94FF4C87091FBF0F267
:1018900000FB121008B9012070470020FCE701206E
:1018A000FAE70020F8E7000001464906084A926975
:1018B00042F00102064B9A61064A526822F0E06249
:1018C000044B5A601A4652680A435A607047000037
:1018D000001002400000014030B5014601F01F0435
:1018E000C1F34513CA0AE50205EB43151544A8B236
:1018F00030BD000070B5044600261D4805884088AC
:1019000045431B48808846F60401884216D1184892
:101910008079012812D10020154988712A20488138
:101920002B2088810021084604F00AFC0120104980
:1019300088712B2048812A20888103E000210846F5
:1019400004F0FEFB04F044FE00260DE04FF480702E
:1019500008490861400048610748046080204861E8
:10196000086180000861761CAE42EFD370BD0000B4
:10197000E8030020001001400C0C01402DE9F84F55
:1019800007460D4690469946DDF828B0A8EB0700BB
:10199000401C1FFA80FAA9EB0500401C80B20090A1
:1019A000002420E0281981B2384604F0C9FB04F075
:1019B0000FFE002613E04FF480700D4908614000CF
:1019C000486104FB0A603BF810000A490860802067
:1019D00007494861086180000861701C86B256455D
:1019E000E9DB601C84B200988442DBDBBDE8F88F41
:1019F000001001400C0C014010B50446002C60D1D1
:101A000066498871F02008804FF4A070488008462D
:101A1000808849F2413188420BD06048808846F680
:101A20000401884205D05D48808845F21031884223
:101A30001AD12C20594908812A2048812B208881DD
:101A40000846808846F60401884205D053488088BD
:101A500045F21031884206D14FF4A0704F490880FA
:101A60004FF4F070488095E04C48808848F6891122
:101A7000884207D12220494908814E2048814F20C1
:101A8000888187E04548808845F21051884210D10E
:101A90004FF43050414908814FF4285048814FF4A9
:101AA0002C5088814FF4F07008804FF448704880C3
:101AB00070E0222039490881202048812120888136
:101AC00068E00120354988714FF4A0700880F0204B
:101AD00048800846808849F24131884205D02F4825
:101AE000808845F21031884207D12C202B4908818B
:101AF0002A2048812B20888139E02848808846F6B2
:101B00000401884207D12C20244908812B204881D8
:101B10002A2088812BE02148808848F68911884254
:101B200007D122201D4908814F2048814E208881FD
:101B30001DE01A48808845F21051884210D14FF4B8
:101B40003050164908814FF4285048814FF42C50EA
:101B500088814FF4487008804FF4F070488006E0A8
:101B600022200E49088121204881202088810B48AD
:101B7000808846F60401884205D00848808845F2EE
:101B80001031884206D14FF4F070044908804FF4B8
:101B9000A0704880002004F0B9F810BDE8030020D0
:101BA0002DE9FF4F84B081468A46002003900290C1
:101BB0000698A0EB09050798A0EB0A06CDF804905B
:101BC000CDF800A0002D01DD012705E00DB90027AB
:101BD00002E04FF0FF376D42002E02DD4FF00108AA
:101BE00006E016B94FF0000802E04FF0FF387642E9
:101BF000B54201DD2C4600E034464FF0000B21E0F9
:101C0000009A91B2019A90B200F022F80398284409
:101C100003900298304402900398A04205DD039897
:101C2000001B03900198384401900298A04205DD02
:101C30000298001B02900098404400900BF10100B4
:101C40001FFA80FB601C8345DADD08B0BDE8F08F29
:101C500030B504460D462946204604F071FA04F0DA
:101C6000B7FC4FF48070074908614000486106489E
:101C700000880649086080200249486108618000A8
:101C8000086130BD001001400A0000200C0C01402A
:101C90002DE9F04306460F469046002445460320B2
:101CA000A0EB480948E03A1B91B2721B90B2FFF7D3
:101CB000CFFF3A1B91B2721990B2FFF7C9FF7A19A0
:101CC00091B2321B90B2FFF7C3FF3A1B91B2721B65
:101CD00090B2FFF7BDFF7A1B91B2321B90B2FFF7B3
:101CE000B7FF3A1991B2721990B2FFF7B1FF7A1BA0
:101CF00091B2321990B2FFF7ABFF7A1991B2321953
:101D000090B2FFF7A5FF3A1991B2721B90B2FFF79C
:101D10009FFF641CB9F1000F03DAA000801D81440D
:101D200004E0601B80000A3081446D1E7A1991B274
:101D3000321990B2FFF78CFFAC42B4DDBDE8F083FE
:101D400070B504460D4616469148808849F24131E7
:101D5000884205D08E48808845F21031884240D1B3
:101D60008B49488904F022FC4FF48070894908614E
:101D700040004861201288490860802085494861F8
:101D80000861800008614010086140004861E0B2CD
:101D90008149086080207F494861086180000861AE
:101DA0007B49888904F002FC4FF48070794908610E
:101DB00040004861281278490860802075494861D0
:101DC0000861800008614010086140004861E8B285
:101DD0007149086080206F4948610861800008618E
:101DE000B9E06B48808845F21051884250D168496B
:101DF000488904F0DBFB4FF48070664908614000BD
:101E00004861201264490860802062494861086185
:101E1000800008615E494989491C88B204F0C6FB0C
:101E20004FF480705B49086140004861E0B25A4954
:101E30000860802057494861086180000861544962
:101E4000888904F0B3FB4FF4807052490861400068
:101E5000486128125049086080204E494861086155
:101E6000800008614A498989491C88B204F09EFBB8
:101E70004FF480704749086140004861E8B2464924
:101E8000086080204349486108618000086162E081
:101E90003F48808846F60401884249D13C48807911
:101EA000012804D13A480088401E001B84B23849FA
:101EB000488904F07BFB4FF480703649086140008C
:101EC0004861201234490860802032494861086125
:101ED000800008614010086140004861E0B22E496E
:101EE000086080202B49486108618000086128490A
:101EF000888904F05BFB4FF480702649086140003C
:101F000048612812244908608020224948610861FC
:101F1000800008614010086140004861E8B21E4935
:101F2000086080201B49486108618000086112E058
:101F300017488079012804D115480088401E001BED
:101F400084B213494889214604F04AFB1049888924
:101F5000294604F045FB4FF480700E49486140006B
:101F600048610B4800890C49086080200949486194
:101F7000086180000861401008614000486106481F
:101F800006608020486108618000086170BD000023
:101F9000E8030020001001400C0C01402DE9FC4F2B
:101FA00005460E4617469846DDF82C900020019015
:101FB0002C48808846F60401884229D12948807936
:101FC000012825D1AB46354626480088C01B401E57
:101FD00086B2474623480088A0EB0B00401E1FFA3C
:101FE00080F800201F4988712A2048812B20888191
:101FF00043463A4631462846CDF80090FFF7CEFFDB
:102000000120184988712B2048812A20888127E0E7
:10201000781B401C80B2019034461FE021462846C0
:1020200004F08EF804F0D4FA4FF0000A11E04FF4F7
:1020300080700D490861400048610C48C0F800906C
:10204000802048610861800008610AF101001FFAE0
:1020500080FA01988245EADB601C84B24445DDDDEC
:10206000BDE8FC8FE8030020001001400C0C01408B
:1020700010B5FE48806940F00800FC4988610846B8
:10208000806940F0100088610846806940F00100D6
:1020900088610120FFF708FCF54840686FF30B00EA
:1020A000F34948600846406840F233310843F0493C
:1020B00048600846006820F07F40086008460068D5
:1020C00040F04C5008600846C06840F4F860C860B2
:1020D0004FF03330E7490860091F08604FF6FF7082
:1020E000E44908310860322007F088FE0121002011
:1020F00004F076FA322007F081FE002003F0FEFDA6
:10210000DD49888008468088FF280ADB08468088E9
:102110004FF6FF71884204D0D7488088B0F5134F3E
:102120007ED1D32004F042FA03F0D4FC03F0D2FCB9
:1021300003F0D0FCD0498880084680884FF6FF71B4
:1021400001EA0020CC49888003F0C4FCCA49898890
:102150000843C94988800846808849F2413188424D
:102160006CD0BF2004F022FA03F0B4FC03F0B2FC00
:1021700003F0B0FC03F0AEFCBF49888008468088BD
:102180004FF6FF7101EA0020BB49888003F0A2FCF2
:10219000B94989880843B84988800846808846F646
:1021A000040188424AD0D42004F000FA03F092FCE3
:1021B00003F090FC03F08EFCAF49888008468088CD
:1021C0004FF6FF7101EA0020AB49888003F082FCE2
:1021D000A94989880843A84988800846808845F22B
:1021E000103188422AD04FF45A4004F0DFF903F04E
:1021F00071FC4FF45B4004F0D9F903F06BFC9E498D
:102200008880084680884FF6FF7101EA00209A49CD
:1022100088804FF45C4004F0C9F903F05BFC00E0F7
:102220000CE095498988084393498880084680884E
:10223000B0F5004F02D145F2105088808E48818859
:102240008EA0FEF711F88C48808849F2413188420F
:102250007ED1CF2004F0AAF9002004F095F9C12026
:1022600004F092F9302004F08FF9ED2004F09EF98B
:10227000642004F089F9032004F086F9122004F0A8
:1022800083F9812004F080F9E82004F08FF985209B
:1022900004F07AF9102004F077F97A2004F074F948
:1022A000CB2004F083F9392004F06EF92C2004F0DF
:1022B0006BF9002004F068F9342004F065F902207D
:1022C00004F062F9F72004F071F9202004F05CF9C1
:1022D000EA2004F06BF9002004F056F9002004F025
:1022E00053F9C02004F062F91B2004F04DF9C1201D
:1022F00004F05CF9012004F047F9C52004F056F918
:10230000302004F041F9302004F03EF9C72004F0F9
:102310004DF9B72004F038F9362004F047F9482089
:1023200004F032F93A2004F041F9552004F02CF978
:10233000B12004F03BF9002004F026F91A2004F043
:1023400023F9B62004F032F90A2004F01DF900E068
:10235000A9E0A22004F018F9F22004F027F90020E7
:1023600004F012F9262004F021F9012004F00CF900
:10237000E02004F01BF90F2004F006F92A2004F0F5
:1023800003F9282004F000F9082004F0FDF80E20DD
:1023900004F0FAF8082004F0F7F8542004F0F4F8F8
:1023A000A92004F0F1F8432004F0EEF80A2004F02C
:1023B000EBF80F2004F0E8F8002004F0E5F8002026
:1023C00004F0E2F8002004F0DFF8002004F0DCF86C
:1023D000E12004F0EBF8002004F0D6F8152004F01A
:1023E000D3F8172004F0D0F8072004F0CDF811201E
:1023F00004F0CAF8062004F0C7F82B2004F0C4F853
:10240000562004F0C1F83C2004F0BEF8052004F08A
:10241000BBF8102004F0B8F80F2004F0B5F83F2006
:1024200004F0B2F83F2004F0AFF80F2004F0ACF84D
:102430002B2004F0BBF8002004F0A6F8002004F0E4
:10244000A3F8012004F0A0F83F2004F09DF82A2012
:1024500004F0ACF8002004F097F8002004F094F8A1
:10246000002004F091F8EF2010E00000001002407E
:1024700000100140040C0140E8030020204C4344BC
:102480002049443A25780D0A0000000004F07CF849
:10249000112004F08BF8782007F0B0FC292004F01C
:1024A00085F803F0FBBAFE48808846F604018842AE
:1024B0007ED1112004F07AF8142007F09FFCD02080
:1024C00004F074F8072004F05FF8422004F05CF890
:1024D0001D2004F059F8D12004F068F8002004F021
:1024E00053F81A2004F050F8092004F04DF8D220D7
:1024F00004F05CF8012004F047F8222004F044F8CE
:10250000C02004F053F8102004F03EF83B2004F003
:102510003BF8002004F038F8022004F035F81120D0
:1025200004F032F8C52004F041F8032004F02CF840
:10253000C82004F03BF8002004F026F8252004F021
:1025400023F8212004F020F8052004F01DF80020D5
:1025500004F01AF80A2004F017F8652004F014F8C3
:10256000252004F011F8772004F00EF8502004F034
:102570000BF80F2004F008F8002004F005F8F8200C
:1025800004F014F8012003F0FFFFFE2004F00EF821
:10259000002003F0F9FF022003F0F6FF202004F0F2
:1025A00005F8362004F002F8082003F0EDFF00E003
:1025B0002AE03A2003F0FAFF552003F0E5FF2B2034
:1025C00003F0F4FF002003F0DFFF002003F0DCFF46
:1025D000012003F0D9FF3F2003F0D6FF2A2003F0AB
:1025E000E5FF002003F0D0FF002003F0CDFF012025
:1025F00003F0CAFFDF2003F0C7FF782007F0FEFBDF
:10260000292003F0D3FF4CE7A548808845F210311C
:10261000884240F07C87ED2003F0C8FF012003F0E2
:10262000B3FFFE2003F0B0FFEE2003F0BFFFDE207B
:1026300003F0AAFF212003F0A7FFF12003F0B6FF6B
:10264000012003F0A1FFDF2003F0B0FF102003F012
:102650009BFFC42003F0AAFF8F2003F095FFC62044
:1026600003F0A4FF002003F08FFFE22003F08CFFB3
:10267000E22003F089FFE22003F086FFBF2003F091
:1026800095FFAA2003F080FFB02003F08FFF0D20FC
:1026900003F07AFF002003F077FF0D2003F074FFB2
:1026A000002003F071FF112003F06EFF002003F003
:1026B0006BFF192003F068FF002003F065FF212065
:1026C00003F062FF002003F05FFF2D2003F05CFFAA
:1026D000002003F059FF3D2003F056FF002003F0D7
:1026E00053FF5D2003F050FF002003F04DFF5D20FD
:1026F00003F04AFF002003F047FFB12003F056FF2C
:10270000802003F041FF002003F03EFF8B2003F008
:102710003BFF002003F038FF962003F035FF002038
:1027200003F032FFB22003F041FF002003F02CFF42
:10273000002003F029FF022003F026FF002003F011
:1027400023FF032003F020FF002003F01DFFB32030
:1027500003F02CFF002003F017FF002003F014FF0C
:10276000002003F011FF002003F00EFF002003F013
:102770000BFF002003F008FF002003F005FF0020FE
:1027800003F002FF002003F0FFFE002003F0FCFE38
:10279000002003F0F9FE002003F0F6FE002003F015
:1027A000F3FE002003F0F0FE002003F0EDFE002019
:1027B00003F0EAFE002003F0E7FE002003F0E4FE51
:1027C000002003F0E1FE002003F0DEFE002003F015
:1027D000DBFE002003F0D8FE002003F0D5FE002031
:1027E00003F0D2FEB42003F0E1FE8B2003F0CCFE18
:1027F000002003F0C9FE962003F0C6FE002003F07F
:10280000C3FEA12003F0C0FE002003F0BDFEB520F2
:1028100003F0CCFE022003F0B7FE002003F0B4FE6C
:10282000032003F0B1FE002003F0AEFE042003F00D
:10283000ABFE002003F0A8FEB62003F0B7FE002098
:1028400003F0A2FE002003F09FFEB72003F0AEFECF
:10285000002003F099FE002003F096FE3F2003F0D5
:1028600093FE002003F090FE5E2003F08DFE00201A
:1028700003F08AFE642003F087FE002003F084FE4C
:102880008C2003F081FE002003F07EFEAC2003F0DC
:102890007BFE002003F078FEDC2003F075FE01E0F3
:1028A000E8030020002003F06FFE702003F06CFEB0
:1028B000002003F069FE902003F066FE002003F084
:1028C00063FEEB2003F060FE002003F05DFEDC20E1
:1028D00003F05AFE002003F057FEB82003F066FE16
:1028E000002003F051FE002003F04EFE002003F014
:1028F0004BFE002003F048FE002003F045FE0020C0
:1029000003F042FE002003F03FFE002003F03CFEF7
:10291000BA2003F04BFE242003F036FE002003F023
:1029200033FE002003F030FE002003F02DFEC12016
:1029300003F03CFE202003F027FE002003F024FEDD
:10294000542003F021FE002003F01EFEFF2003F0C0
:102950001BFE002003F018FEC22003F027FE0A2011
:1029600003F012FE002003F00FFE042003F00CFE23
:10297000002003F009FEC32003F018FE3C2003F002
:1029800003FE002003F000FE3A2003F0FDFD0020CE
:1029900003F0FAFD392003F0F7FD002003F0F4FD09
:1029A000372003F0F1FD002003F0EEFD3C2003F0A2
:1029B000EBFD002003F0E8FD362003F0E5FD0020EC
:1029C00003F0E2FD322003F0DFFD002003F0DCFD28
:1029D0002F2003F0D9FD002003F0D6FD2C2003F0BA
:1029E000D3FD002003F0D0FD292003F0CDFD002011
:1029F00003F0CAFD262003F0C7FD002003F0C4FD4C
:102A0000242003F0C1FD002003F0BEFD242003F0CC
:102A1000BBFD002003F0B8FD232003F0B5FD00202E
:102A200003F0B2FD3C2003F0AFFD002003F0ACFD4D
:102A3000362003F0A9FD002003F0A6FD322003F0AC
:102A4000A3FD002003F0A0FD2F2003F09DFD00203A
:102A500003F09AFD2C2003F097FD002003F094FD75
:102A6000292003F091FD002003F08EFD262003F0C5
:102A70008BFD002003F088FD242003F085FD00205D
:102A800003F082FD242003F07FFD002003F07CFD95
:102A9000232003F079FD002003F076FDC42003F02D
:102AA00085FD622003F070FD002003F06DFD052020
:102AB00003F06AFD002003F067FD842003F064FD4D
:102AC000002003F061FDF02003F05EFD002003F024
:102AD0005BFD182003F058FD002003F055FDA420F5
:102AE00003F052FD002003F04FFD182003F04CFDD1
:102AF000002003F049FD502003F046FD002003F0C4
:102B000043FD0C2003F040FD002003F03DFD1720A5
:102B100003F03AFD002003F037FD952003F034FD6B
:102B2000002003F031FDF32003F02EFD002003F020
:102B30002BFDE62003F028FD002003F025FDC52035
:102B400003F034FD322003F01FFD002003F01CFDD4
:102B5000442003F019FD002003F016FD652003F06A
:102B600013FD002003F010FD762003F00DFD002082
:102B700003F00AFD882003F007FD002003F004FDA8
:102B8000C62003F013FD202003F0FEFC002003F01C
:102B9000FBFC172003F0F8FC002003F0F5FC0120FB
:102BA00003F0F2FC002003F0EFFCC72003F0FEFC72
:102BB000002003F0E9FC002003F0E6FC002003F015
:102BC000E3FC002003F0E0FCC82003F0EFFC002051
:102BD00003F0DAFC002003F0D7FC002003F0D4FC63
:102BE000002003F0D1FCC92003F0E0FC002003F03A
:102BF000CBFC002003F0C8FC002003F0C5FC002043
:102C000003F0C2FC002003F0BFFC002003F0BCFC7A
:102C1000002003F0B9FC002003F0B6FC002003F014
:102C2000B3FC002003F0B0FC002003F0ADFC00205A
:102C300003F0AAFC002003F0A7FC002003F0A4FC92
:102C4000002003F0A1FC002003F09EFCE02003F034
:102C5000ADFC162003F098FC002003F095FC1C202E
:102C600003F092FC002003F08FFC212003F08CFC89
:102C7000002003F089FC362003F086FC002003F0DE
:102C800083FC462003F080FC002003F07DFC5220F2
:102C900003F07AFC002003F077FC642003F074FC5E
:102CA000002003F071FC7A2003F06EFC002003F09A
:102CB0006BFC8B2003F068FC002003F065FC99207E
:102CC00003F062FC002003F05FFCA82003F05CFC32
:102CD000002003F059FCB92003F056FC002003F05B
:102CE00053FCC42003F050FC002003F04DFCCA202C
:102CF00003F04AFC002003F047FCD22003F044FC20
:102D0000002003F041FCD92003F03EFC002003F03A
:102D10003BFCE02003F038FC002003F035FCF320FE
:102D200003F032FC002003F02FFCE12003F03EFC16
:102D3000162003F029FC002003F026FC1C2003F0E1
:102D400023FC002003F020FC222003F01DFC0020C7
:102D500003F01AFC362003F017FC002003F014FCEB
:102D6000452003F011FC002003F00EFC522003F07C
:102D70000BFC002003F008FC642003F005FC00209D
:102D800003F002FC7A2003F0FFFB002003F0FCFBC1
:102D90008B2003F0F9FB002003F0F6FB992003F0F1
:102DA000F3FB002003F0F0FBA82003F0EDFB002074
:102DB00003F0EAFBB92003F0E7FB002003F0E4FB9B
:102DC000C42003F0E1FB002003F0DEFBCA2003F087
:102DD000DBFB002003F0D8FBD22003F0D5FB002062
:102DE00003F0D2FBD82003F0CFFB002003F0CCFB94
:102DF000E02003F0C9FB002003F0C6FBF32003F042
:102E0000C3FB002003F0C0FBE22003F0CFFB052052
:102E100003F0BAFB002003F0B7FB0B2003F0B4FB78
:102E2000002003F0B1FB1B2003F0AEFB002003F0F9
:102E3000ABFB342003F0A8FB002003F0A5FB4420EB
:102E400003F0A2FB002003F09FFB4F2003F09CFB4C
:102E5000002003F099FB612003F096FB002003F0B3
:102E600093FB792003F090FB002003F08DFB88207A
:102E700003F08AFB002003F087FB972003F084FB1C
:102E8000002003F081FBA62003F07EFB002003F06E
:102E90007BFBB72003F078FB002003F075FBC2201A
:102EA00003F072FB002003F06FFBC72003F06CFB04
:102EB000002003F069FBD12003F066FB002003F043
:102EC00063FBD62003F060FB002003F05DFBDD20F8
:102ED00003F05AFB002003F057FBF32003F054FBF0
:102EE000002003F051FBE32003F060FB052003F01A
:102EF0004BFB002003F048FB0A2003F045FB0020B9
:102F000003F042FB1C2003F03FFB002003F03CFBDE
:102F1000332003F039FB002003F036FB442003F09C
:102F200033FB002003F030FB502003F02DFB00208A
:102F300003F02AFB622003F027FB002003F024FBB0
:102F4000782003F021FB002003F01EFB882003F013
:102F50001BFB002003F018FB972003F015FB00205B
:102F600003F012FBA62003F00FFB002003F00CFB84
:102F7000B72003F009FB002003F006FBC22003F09A
:102F800003FB002003F000FBC72003F0FDFA002044
:102F900003F0FAFAD12003F0F7FA002003F0F4FA74
:102FA000D52003F0F1FA002003F0EEFADD2003F063
:102FB000EBFA002003F0E8FAF32003F0E5FA002032
:102FC00003F0E2FAE42003F0F1FA012003F0DCFA66
:102FD000002003F0D9FA012003F0D6FA002003F014
:102FE000D3FA022003F0D0FA002003F0CDFA2A2011
:102FF00003F0CAFA002003F0C7FA3C2003F0C4FA39
:10300000002003F0C1FA4B2003F0BEFA002003F0C9
:10301000BBFA5D2003F0B8FA002003F0B5FA742083
:1030200003F0B2FA002003F0AFFA842003F0ACFA08
:10303000002003F0A9FA932003F0A6FA002003F081
:10304000A3FAA22003F0A0FA002003F09DFAB32017
:1030500003F09AFA002003F097FABE2003F094FAE6
:10306000002003F091FAC42003F08EFA002003F050
:103070008BFACD2003F088FA002003F085FAD320E4
:1030800003F082FA002003F07FFADD2003F07CFADF
:10309000002003F079FAF32003F076FA002003F021
:1030A00073FAE52003F082FA002003F06DFA0020A5
:1030B00003F06AFA002003F067FA002003F064FAD4
:1030C000022003F061FA002003F05EFA292003F0E9
:1030D0005BFA002003F058FA3C2003F055FA002078
:1030E00003F052FA4B2003F04FFA002003F04CFAA1
:1030F0005D2003F049FA002003F046FA742003F043
:1031000043FA002003F040FA842003F03DFA002047
:1031100003F03AFA932003F037FA002003F034FA70
:10312000A22003F031FA002003F02EFAB32003F0BE
:103130002BFA002003F028FABE2003F025FA002025
:1031400003F022FAC42003F01FFA002003F01CFA57
:10315000CD2003F019FA002003F016FAD32003F073
:1031600013FA002003F010FADC2003F00DFA00201F
:1031700003F00AFAF32003F007FA002003F004FA40
:10318000E62003F013FA112003F0FEF9002003F00B
:10319000FBF9342003F0F8F9002003F0F5F956208C
:1031A00003F0F2F9002003F0EFF9762003F0ECF9D8
:1031B000002003F0E9F9772003F0E6F9002003F09E
:1031C000E3F9662003F0E0F9002003F0DDF9882040
:1031D00003F0DAF9002003F0D7F9992003F0D4F9CD
:1031E000002003F0D1F9BB2003F0CEF9002003F05A
:1031F000CBF9992003F0C8F9002003F0C5F9662047
:1032000003F0C2F9002003F0BFF9552003F0BCF928
:10321000002003F0B9F9552003F0B6F9002003F0BF
:10322000B3F9452003F0B0F9002003F0ADF94320D5
:1032300003F0AAF9002003F0A7F9442003F0A4F951
:10324000002003F0A1F9E72003F0B0F9322003F0E9
:103250009BF9002003F098F9552003F095F9002020
:1032600003F092F9762003F08FF9002003F08CF937
:10327000662003F089F9002003F086F9672003F047
:1032800083F9002003F080F9672003F07DF9002026
:1032900003F07AF9872003F077F9002003F074F93E
:1032A000992003F071F9002003F06EF9BB2003F0C0
:1032B0006BF9002003F068F9992003F065F900200C
:1032C00003F062F9772003F05FF9002003F05CF966
:1032D000442003F059F9002003F056F9562003F07A
:1032E00053F9002003F050F9232003F04DF900209A
:1032F00003F04AF9332003F047F9002003F044F9C2
:10330000452003F041F9002003F03EF9E82003F0E6
:103310004DF9002003F038F9002003F035F9992029
:1033200003F032F9002003F02FF9872003F02CF985
:10333000002003F029F9882003F026F9002003F08B
:1033400023F9772003F020F9002003F01DF966200F
:1033500003F01AF9002003F017F9882003F014F99C
:10336000002003F011F9AA2003F00EF9002003F069
:103370000BF9BB2003F008F9002003F005F99920B0
:1033800003F002F9002003F0FFF8662003F0FCF8D8
:10339000002003F0F9F8552003F0F6F8002003F0C0
:1033A000F3F8552003F0F0F8002003F0EDF8442086
:1033B00003F0EAF8002003F0E7F8442003F0E4F813
:1033C000002003F0E1F8552003F0DEF8002003F0C0
:1033D000DBF8E92003F0EAF8AA2003F0D5F8002092
:1033E00003F0D2F8002003F0CFF8002003F0CCF86F
:1033F000002003F0DBF8AA2003F0C6F8CF2003F08A
:10340000D5F8002003F0C0F8002003F0BDF800203C
:1034100003F0BAF8002003F0B7F8002003F0B4F886
:10342000002003F0B1F8002003F0AEF8002003F014
:10343000ABF8002003F0A8F8002003F0A5F8002066
:1034400003F0A2F8002003F09FF8002003F09CF89E
:10345000002003F099F8002003F096F8002003F014
:1034600093F8002003F090F8F02003F09FF800207C
:1034700003F08AF8502003F087F8002003F084F866
:10348000002003F081F8002003F07EF8F32003F021
:103490008DF8002003F078F8F92003F087F8062073
:1034A00003F072F8102003F06FF8292003F06CF895
:1034B000002003F069F83A2003F078F8552003F073
:1034C00063F8112003F072F8642006F097FC2920BD
:1034D00003F06CF8352003F069F8002003F054F88D
:1034E000512003F063F8FF2003F04EF8532003F05F
:1034F0005DF82C2003F048F8552003F057F882209F
:1035000003F042F82C2003F051F802F0C7BAFE484D
:10351000808845F2105188427ED155214FF4704089
:1035200003F05EF8AA214FF2010003F059F852218E
:103530004FF2020003F054F808214FF2030003F0A9
:103540004FF801214FF2040003F04AF80D214FF427
:10355000304003F045F80D214BF2010003F040F834
:103560000D214BF2020003F03BF834214FF43640BA
:1035700003F036F834214BF2016003F031F83421C6
:103580004BF2026003F02CF80D214FF4314003F0B0
:1035900027F80D214BF2011003F022F80D214BF218
:1035A000021003F01DF834214FF4374003F018F8EF
:1035B00034214BF2017003F013F834214BF2027006
:1035C00003F00EF800214FF4324003F009F8002117
:1035D0004BF2012003F004F800214BF2022002F02C
:1035E000FFFF24214FF4384002F0FAFF24214BF66C
:1035F000010002F0F5FF24214BF6020002F0F0FF7B
:1036000001214FF43F4002F0EBFF0F214FF4334014
:1036100002F0E6FF0F2100E0FEE34BF2013002F082
:10362000DFFF0F214BF2023002F0DAFF34214FF4BA
:10363000394002F0D5FF34214BF6011002F0D0FFE3
:1036400034214BF6021002F0CBFF08214FF4354035
:1036500002F0C6FF08214BF2015002F0C1FF082121
:103660004BF2025002F0BCFF03214FF4424002F043
:10367000B7FF24214FF43A4002F0B2FF24214BF669
:10368000012002F0ADFF24214BF6022002F0A8FF3A
:1036900000214FF43C4002F0A3FF78214BF601409B
:1036A00002F09EFF00214BF6024002F099FF00213C
:1036B0004FF43D4002F094FF78214BF6015002F0A8
:1036C0008FFF00214BF6025002F08AFF00214FF4D9
:1036D0003E4002F085FF64214BF6016002F080FF5E
:1036E00000214FF4514002F07BFF33214DF20110D5
:1036F00002F076FF00214DF2021002F071FF34213A
:103700004DF2031002F06CFF00214DF2041002F0A4
:1037100067FF3A214DF2051002F062FF00214DF2E1
:10372000061002F05DFF4A214DF2071002F058FF2B
:1037300000214DF2081002F053FF5C214DF20910F8
:1037400002F04EFF00214DF20A1002F049FF8121E4
:103750004DF20B1002F044FF00214DF20C1002F06C
:103760003FFFA6214DF20D1002F03AFF00214DF26D
:103770000E1002F035FFE5214DF20F1002F030FF80
:1037800001214DF2101002F02BFF13214DF2111008
:1037900002F026FF01214DF2121002F021FF542108
:1037A0004DF2131002F01CFF01214DF2141002F033
:1037B00017FF82214DF2151002F012FF01214DF288
:1037C000161002F00DFFCA214DF2171002F008FF8B
:1037D00002214DF2181002F003FF00214DF21910E2
:1037E00002F0FEFE02214DF21A1002F0F9FE012154
:1037F0004DF21B1002F0F4FE02214DF21C1002F0FB
:10380000EFFE34214DF21D1002F0EAFE02214DF2CE
:103810001E1002F0E5FE67214DF21F1002F0E0FEDF
:1038200002214DF2201002F0DBFE84214DF2211026
:1038300002F0D6FE02214DF2221002F0D1FEA421A8
:103840004DF2231002F0CCFE02214DF2241002F0C2
:10385000C7FEB7214DF2251002F0C2FE02214DF243
:10386000261002F0BDFECF214DF2271002F0B8FE67
:1038700002214DF2281002F0B3FEDE214DF2291094
:1038800002F0AEFE02214DF22A1002F0A9FEF22152
:103890004DF22B1002F0A4FE02214DF22C1002F08A
:1038A0009FFEFE214DF22D1002F09AFE03214DF2F3
:1038B0002E1002F095FE10214DF22F1002F090FE16
:1038C00003214DF2301002F08BFE33214DF2311006
:1038D00002F086FE03214DF2321002F081FE6D21CE
:1038E0004DF2331002F07CFE00214FF4524002F002
:1038F00077FE33214DF2012002F072FE00214DF2DD
:10390000022002F06DFE01E0E803002034214DF2B8
:10391000032002F065FE00214DF2042002F060FE5B
:103920003A214DF2052002F05BFE00214DF2062007
:1039300002F056FE4A214DF2072002F051FE00210E
:103940004DF2082002F04CFE5C214DF2092002F0FD
:1039500047FE00214DF20A2002F042FE81214DF285
:103960000B2002F03DFE00214DF20C2002F038FE4B
:10397000A6214DF20D2002F033FE00214DF20E2063
:1039800002F02EFEE5214DF20F2002F029FE01216A
:103990004DF2102002F024FE13214DF2112002F00E
:1039A0001FFE01214DF2122002F01AFE54214DF2A9
:1039B000132002F015FE01214DF2142002F010FE3A
:1039C00082214DF2152002F00BFE01214DF216204E
:1039D00002F006FECA214DF2172002F001FE02217C
:1039E0004DF2182002F0FCFD00214DF2192002F0EA
:1039F000F7FD02214DF21A2002F0F2FD01214DF2F5
:103A00001B2002F0EDFD02214DF21C2002F0E8FD2A
:103A100034214DF21D2002F0E3FD02214DF21E2063
:103A200002F0DEFD67214DF21F2002F0D9FD0221D8
:103A30004DF2202002F0D4FD84214DF2212002F02D
:103A4000CFFD02214DF2222002F0CAFDA4214DF249
:103A5000232002F0C5FD02214DF2242002F0C0FD1A
:103A6000B7214DF2252002F0BBFD02214DF22620A8
:103A700002F0B6FDCF214DF2272002F0B1FD022168
:103A80004DF2282002F0ACFDDE214DF2292002F09B
:103A9000A7FD02214DF22A2002F0A2FDF2214DF2F3
:103AA0002B2002F09DFD02214DF22C2002F098FD0A
:103AB000FE214DF22D2002F093FD03214DF22E2028
:103AC00002F08EFD10214DF22F2002F089FD03211E
:103AD0004DF2302002F084FD33214DF2312002F00E
:103AE0007FFD03214DF2322002F07AFD6D214DF26F
:103AF000332002F075FD00214FF4534002F070FDB9
:103B000033214DF2013002F06BFD00214DF2023005
:103B100002F066FD34214DF2033002F061FD002118
:103B20004DF2043002F05CFD3A214DF2053002F016
:103B300057FD00214DF2063002F052FD4A214DF2B0
:103B4000073002F04DFD00214DF2083002F048FD33
:103B50005C214DF2093002F043FD00214DF20A30A4
:103B600002F03EFD81214DF20B3002F039FD0021C3
:103B70004DF20C3002F034FDA6214DF20D3002F072
:103B80002FFD00214DF20E3002F02AFDE5214DF20D
:103B90000F3002F025FD01214DF2103002F020FD22
:103BA00013214DF2113002F01BFD01214DF21230B4
:103BB00002F016FD54214DF2133002F011FD0121E7
:103BC0004DF2143002F00CFD82214DF2153002F05E
:103BD00007FD01214DF2163002F002FDCA214DF21F
:103BE000173002F0FDFC02214DF2183002F0F8FC13
:103BF00000214DF2193002F0F3FC02214DF21A308F
:103C000002F0EEFC01214DF21B3002F0E9FC022132
:103C10004DF21C3002F0E4FC34214DF21D3002F074
:103C2000DFFC02214DF21E3002F0DAFC67214DF27A
:103C30001F3002F0D5FC02214DF2203002F0D0FC02
:103C400084214DF2213002F0CBFC02214DF22230D2
:103C500002F0C6FCA4214DF2233002F0C1FC022187
:103C60004DF2243002F0BCFCB7214DF2253002F0B9
:103C7000B7FC02214DF2263002F0B2FCCF214DF20A
:103C8000273002F0ADFC02214DF2283002F0A8FCF2
:103C9000DE214DF2293002F0A3FC02214DF22A3040
:103CA00002F09EFCF2214DF22B3002F099FC022131
:103CB0004DF22C3002F094FCFE214DF22D3002F03A
:103CC0008FFC03214DF22E3002F08AFC10214DF2C0
:103CD0002F3002F085FC03214DF2303002F080FCE1
:103CE00033214DF2313002F07BFC03214DF23230B2
:103CF00002F076FC6D214DF2333002F071FC0021B0
:103D00004FF4544002F06CFC33214DF2014002F0BC
:103D100067FC00214DF2024002F062FC34214DF2BA
:103D2000034002F05DFC00214DF2044002F058FC1B
:103D30003A214DF2054002F053FC00214DF20640BD
:103D400002F04EFC4A214DF2074002F049FC0021EE
:103D50004DF2084002F044FC5C214DF2094002F0B3
:103D60003FFC00214DF20A4002F03AFC81214DF265
:103D70000B4002F035FC00214DF20C4002F030FC0B
:103D8000A6214DF20D4002F02BFC00214DF20E4019
:103D900002F026FCE5214DF20F4002F021FC01214A
:103DA0004DF2104002F01CFC13214DF2114002F0C4
:103DB00017FC01214DF2124002F012FC54214DF289
:103DC000134002F00DFC01214DF2144002F008FCFA
:103DD00082214DF2154002F003FC01214DF2164004
:103DE00002F0FEFBCA214DF2174002F0F9FB02215E
:103DF0004DF2184002F0F4FB00214DF2194002F0A0
:103E0000EFFB02214DF21A4002F0EAFB01214DF2D4
:103E10001B4002F0E5FB00E004E302214DF21C40F0
:103E200002F0DEFB34214DF21D4002F0D9FB0221ED
:103E30004DF21E4002F0D4FB67214DF21F4002F00C
:103E4000CFFB02214DF2204002F0CAFB84214DF24B
:103E5000214002F0C5FB02214DF2224002F0C0FBDE
:103E6000A4214DF2234002F0BBFB02214DF224407D
:103E700002F0B6FBB7214DF2254002F0B1FB022162
:103E80004DF2264002F0ACFBCF214DF2274002F06C
:103E9000A7FB02214DF2284002F0A2FBDE214DF2E9
:103EA000294002F09DFB02214DF22A4002F098FBCE
:103EB000F2214DF22B4002F093FB02214DF22C40F7
:103EC00002F08EFBFE214DF22D4002F089FB032112
:103ED0004DF22E4002F084FB10214DF22F4002F0F3
:103EE0007FFB03214DF2304002F07AFB33214DF28B
:103EF000314002F075FB03214DF2324002F070FBBD
:103F00006D214DF2334002F06BFB00214FF4554020
:103F100002F066FB33214DF2015002F061FB0021FB
:103F20004DF2025002F05CFB34214DF2035002F0DE
:103F300057FB00214DF2045002F052FB3A214DF2A2
:103F4000055002F04DFB00214DF2065002F048FBF7
:103F50004A214DF2075002F043FB00214DF2085078
:103F600002F03EFB5C214DF2095002F039FB0021CA
:103F70004DF20A5002F034FB81214DF20B5002F059
:103F80002FFB00214DF20C5002F02AFBA6214DF22E
:103F90000D5002F025FB00214DF20E5002F020FBE7
:103FA000E5214DF20F5002F01BFB01214DF21050A4
:103FB00002F016FB13214DF2115002F011FB01210A
:103FC0004DF2125002F00CFB54214DF2135002F04E
:103FD00007FB01214DF2145002F002FB82214DF249
:103FE000155002F0FDFA01214DF2165002F0F8FAD8
:103FF000CA214DF2175002F0F3FA02214DF2185087
:1040000002F0EEFA00214DF2195002F0E9FA022115
:104010004DF21A5002F0E4FA01214DF21B5002F069
:10402000DFFA02214DF21C5002F0DAFA34214DF28F
:104030001D5002F0D5FA02214DF21E5002F0D0FAC6
:1040400067214DF21F5002F0CBFA02214DF22050B1
:1040500002F0C6FA84214DF2215002F0C1FA022189
:104060004DF2225002F0BCFAA4214DF2235002F08E
:10407000B7FA02214DF2245002F0B2FAB7214DF204
:10408000255002F0ADFA02214DF2265002F0A8FAB6
:10409000CF214DF2275002F0A3FA02214DF2285011
:1040A00002F09EFADE214DF2295002F099FA022127
:1040B0004DF22A5002F094FAF2214DF22B5002F008
:1040C0008FFA02214DF22C5002F08AFAFE214DF2B5
:1040D0002D5002F085FA03214DF22E5002F080FAA5
:1040E00010214DF22F5002F07BFA03214DF2305097
:1040F00002F076FA33214DF2315002F071FA0321C9
:104100004DF2325002F06CFA6D214DF2335002F054
:1041100067FA00214FF4564002F062FA33214DF263
:10412000016002F05DFA00214DF2026002F058FADF
:1041300034214DF2036002F053FA00214DF2046085
:1041400002F04EFA3A214DF2056002F049FA0021E0
:104150004DF2066002F044FA4A214DF2076002F087
:104160003FFA00214DF2086002F03AFA5C214DF26C
:10417000096002F035FA00214DF20A6002F030FACF
:1041800081214DF20B6002F02BFA00214DF20C6000
:1041900002F026FAA6214DF20D6002F021FA00216C
:1041A0004DF20E6002F01CFAE5214DF20F6002F0B4
:1041B00017FA01214DF2106002F012FA13214DF2AC
:1041C000116002F00DFA01214DF2126002F008FABE
:1041D00054214DF2136002F003FA01214DF21460F4
:1041E00002F0FEF982214DF2156002F0F9F9012189
:1041F0004DF2166002F0F4F9CA214DF2176002F098
:10420000EFF902214DF2186002F0EAF900214DF2B7
:10421000196002F0E5F902214DF21A6002F0E0F9AE
:1042200001214DF21B6002F0DBF902214DF21C600E
:1042300002F0D6F934214DF21D6002F0D1F90221CD
:104240004DF21E6002F0CCF967214DF21F6002F0C2
:10425000C7F902214DF2206002F0C2F984214DF22B
:10426000216002F0BDF902214DF2226002F0B8F99E
:10427000A4214DF2236002F0B3F902214DF2246033
:1042800002F0AEF9B7214DF2256002F0A9F9022142
:104290004DF2266002F0A4F9CF214DF2276002F022
:1042A0009FF902214DF2286002F09AF9DE214DF2C9
:1042B000296002F095F902214DF22A6002F090F98E
:1042C000F2214DF22B6002F08BF902214DF22C60AD
:1042D00002F086F9FE214DF22D6002F081F90321F2
:1042E0004DF22E6002F07CF910214DF22F6002F0A9
:1042F00077F903214DF2306002F072F933214DF26B
:10430000316002F06DF903214DF2326002F068F97C
:104310006D214DF2336002F063F955214FF4704086
:1043200002F05EF9AA214FF2010002F059F9522180
:104330004FF2020002F054F908214FF2030002F09C
:104340004FF900214FF2040002F04AF9CC214FF45A
:10435000314002F045F900214BF2011002F040F922
:1043600005214FF4364002F03BF970214FF43740FD
:1043700002F036F970214BF2017002F031F901219F
:104380004FF4384002F02CF903214BF6010002F003
:1043900027F903214BF6020002F022F903214BF624
:1043A000030002F01DF902214FF43C4002F018F91D
:1043B00000214BF6014002F013F900214BF60240B8
:1043C00002F00EF9D0214FF4494002F009F9022120
:1043D0004CF6011002F004F950214CF6021002F0E4
:1043E000FFF850214CF6031002F0FAF850214CF679
:1043F000041002F0F5F800214FF4545002F0F0F8E8
:1044000055214FF4685002F0EBF84FF4885002F059
:10441000CDF8782005F010FD4FF4245002F0C6F8D6
:1044200001F03CBBFE48808849F2253188427DD1AD
:1044300047F6F001E52002F0D3F84FF48071012037
:1044400002F0CEF84FF4E061022002F0C9F841F228
:104450003001032002F0C4F80021042002F0C0F86B
:1044600040F20221082002F0BBF80021092002F0EE
:10447000B7F800210A2002F0B3F800210C2002F066
:10448000AFF800210D2002F0ABF800210F2002F060
:10449000A7F80021102002F0A3F80721112002F054
:1044A0009FF80021122002F09BF80021132002F057
:1044B00097F80021072002F093F841F29061102054
:1044C00002F08EF840F22721112002F089F89D2198
:1044D000122002F085F84FF4C851132002F080F842
:1044E0002521292002F07CF80D212B2002F078F8FC
:1044F0000721302002F074F840F20331312002F03D
:104500006FF80321322002F06BF840F206213520CB
:1045100002F066F80821362002F062F840F2064107
:10452000372002F05DF84FF4417100E058E0382088
:1045300002F056F80721392002F052F840F20261E9
:104540003C2002F04DF808213D2002F049F80021FE
:10455000502002F045F8EF21512002F041F80021EF
:10456000522002F03DF840F23F11532002F038F89B
:104570004FF42741602002F033F80121612002F05E
:104580002FF800216A2002F02BF80021802002F091
:1045900027F80021812002F023F80021822002F078
:1045A0001FF80021832002F01BF80021842002F074
:1045B00017F80021852002F013F81021902002F056
:1045C0000FF84FF4C061922002F00AF840F2331164
:1045D000072002F005F82221002002F001F81FE771
:1045E0008F48808849F2283188427DD141F28F017D
:1045F000EC2001F0F5FF41F23421EF2001F0F0FF53
:104600004FF48071012001F0EBFF4FF4E0610220D4
:1046100001F0E6FF41F23001032001F0E1FF00214B
:10462000042001F0DDFF40F20221082001F0D8FF54
:104630000021092001F0D4FF00210A2001F0D0FF61
:1046400001210C2001F0CCFF00210D2001F0C8FF5A
:1046500000210F2001F0C4FF0021102001F0C0FF55
:104660000721112001F0BCFF0021122001F0B8FF4A
:104670000021132001F0B4FF0121072001F0B0FF59
:10468000322005F0BBFB41F29041102001F0A8FF61
:1046900040F22721112001F0A3FF322005F0AEFBEC
:1046A0008A21122001F09CFF322005F0A7FB4FF475
:1046B000D051132001F094FF0621292001F090FF32
:1046C0000D212B2001F08CFF322005F097FB0021FB
:1046D000202001F085FF0021212001F081FF322000
:1046E00005F08CFB002100E075E0302001F078FF40
:1046F00040F20461312001F073FF40F205313220B5
:1047000001F06EFF0021352001F06AFF40F60941FB
:10471000362001F065FF4FF40171372001F060FF92
:1047200040F20131382001F05BFF40F2077139207F
:1047300001F056FF00213C2001F052FF40F60A2113
:104740003D2001F04DFF322005F058FB00215020A4
:1047500001F046FFEF21512001F042FF00215220DD
:1047600001F03EFF40F23F11532001F039FF4FF4BA
:104770002741602001F034FF0121612001F030FF6A
:1047800000216A2001F02CFF0021802001F028FF89
:104790000021812001F024FF0021822001F020FF70
:1047A0000021832001F01CFF0021842001F018FF6C
:1047B0000021852001F014FF1021902001F010FF4E
:1047C0004FF4C061922001F00BFF40F2331107203B
:1047D00001F006FF24E61248808849F2253188421C
:1047E0007ED147F6F001E52001F0FAFE4FF480712A
:1047F000012001F0F5FE4FF4E061022001F0F0FE2F
:1048000041F23001032001F0EBFE0021042001F011
:10481000E7FE40F20221082001F0E2FE002101E063
:10482000E8030020092001F0DBFE00210A2001F04E
:10483000D7FE00210C2001F0D3FE00210D2001F055
:10484000CFFE00210F2001F0CBFE0021102001F04F
:10485000C7FE0721112001F0C3FE0021122001F044
:10486000BFFE0021132001F0BBFE0021072001F054
:10487000B7FE41F29061102001F0B2FE40F2272114
:10488000112001F0ADFE9D21122001F0A9FE4FF490
:10489000C851132001F0A4FE2521292001F0A0FE1B
:1048A0000D212B2001F09CFE0721302001F098FE05
:1048B00040F20331312001F093FE0321322001F058
:1048C0008FFE40F20621352001F08AFE08213620B5
:1048D00001F086FE40F20641372001F081FE00E043
:1048E0005AE04FF44171382001F07AFE0721392057
:1048F00001F076FE40F202613C2001F071FE0821D9
:104900003D2001F06DFE0021502001F069FEEF21F5
:10491000512001F065FE0021522001F061FE40F2BD
:104920003F11532001F05CFE4FF42741602001F05D
:1049300057FE0121612001F053FE00216A2001F0A1
:104940004FFE0021802001F04BFE0021812001F06C
:1049500047FE0021822001F043FE0021832001F068
:104960003FFE0021842001F03BFE0021852001F064
:1049700037FE1021902001F033FE4FF4C0619220E9
:1049800001F02EFE40F23311072001F029FE222112
:10499000002001F025FE43E5FE48808849F22831D9
:1049A00088427DD141F28F01EC2001F019FE41F2E5
:1049B0003421EF2001F014FE4FF48071012001F04A
:1049C0000FFE4FF4E061022001F00AFE41F23001D7
:1049D000032001F005FE0021042001F001FE40F259
:1049E0000221082001F0FCFD0021092001F0F8FD62
:1049F00000210A2001F0F4FD01210C2001F0F0FD5E
:104A000000210D2001F0ECFD00210F2001F0E8FD58
:104A10000021102001F0E4FD0721112001F0E0FD4C
:104A20000021122001F0DCFD0021132001F0D8FD4F
:104A30000121072001F0D4FD322005F0DFF941F219
:104A40009041102001F0CCFD40F22721112001F00F
:104A5000C7FD322005F0D2F98A21122001F0C0FDF5
:104A6000322005F0CBF94FF4D051132001F0B8FDFE
:104A70000621292001F0B4FD0D212B2001F0B0FD0D
:104A8000322005F0BBF90021202001F0A9FD002112
:104A9000212001F0A5FD322005F0B0F9002100E051
:104AA00075E0302001F09CFD40F20461312001F0FE
:104AB00097FD40F20531322001F092FD00213520B2
:104AC00001F08EFD40F60941362001F089FD4FF4DA
:104AD0000171372001F084FD40F20131382001F0EE
:104AE0007FFD40F20771392001F07AFD00213C2062
:104AF00001F076FD40F60A213D2001F071FD3220E3
:104B000005F07CF90021502001F06AFDEF215120D1
:104B100001F066FD0021522001F062FD40F23F11DC
:104B2000532001F05DFD4FF42741602001F058FD56
:104B30000121612001F054FD00216A2001F050FDA7
:104B40000021802001F04CFD0021812001F048FD72
:104B50000021822001F044FD0021832001F040FD6E
:104B60000021842001F03CFD0021852001F038FD6A
:104B70001021902001F034FD4FF4C061922001F02B
:104B80002FFD40F23311072001F02AFD48E481484F
:104B9000808849F2203188427ED10021084601F008
:104BA0001FFD4FF48071012001F01AFD4FF4E06108
:104BB000022001F015FD41F23001032001F010FD4B
:104BC0000021042001F00CFD40F20221082001F038
:104BD00007FD0021092001F003FD00210A2001F05A
:104BE000FFFC01210C2001F0FBFC00210D2001F055
:104BF000F7FC00210F2001F0F3FC322005F0FEF855
:104C000040F20111072001F0EBFC322005F0F6F82C
:104C10004FF48651102001F0E3FC0721112001F030
:104C2000DFFC4FF48871122001F0DAFC4FF43061A0
:104C3000132001F0D5FC0021292001F0D1FC44F221
:104C400010012B2001F0CCFC0021502001F0C8FC09
:104C5000EF21512001F0C4FC0021522001F0C0FCE2
:104C600040F23F11532001F0BBFC4FF41C51602077
:104C700001F0B6FC0121612001F0B2FC00216A20A4
:104C800001F0AEFC0021802001F0AAFC002181206F
:104C900001F0A6FC002100E02DE0822001F0A0FC44
:104CA0000021832001F09CFC0021842001F098FC6D
:104CB0000021852001F094FC1021902001F090FC4F
:104CC0000021922001F08CFC0121932001F088FC4E
:104CD0004FF48871952001F083FC0021972001F0AA
:104CE0007FFC0021982001F07BFC40F2731107202B
:104CF00001F076FC73E42748808849F2313188421C
:104D00007DD141F21401E72001F06AFC4FF480717B
:104D1000012001F065FC4FF40071022001F060FCFD
:104D200041F23801032001F05BFC40F2022108202F
:104D300001F056FC0021092001F052FC00210A205C
:104D400001F04EFC00210C2001F04AFC00210D2056
:104D500001F046FC00210F2001F042FC0021102050
:104D600001F03EFC0721112001F03AFC0021122045
:104D700001F036FC0021132001F032FCC82005F0C0
:104D80003DF841F29061102001F02AFC40F2272109
:104D9000112001E0E803002001F022FC322005F0A0
:104DA0002DF80C21122001F01BFC322005F026F812
:104DB0004FF40061132001F013FC1121292001F0B0
:104DC0000FFC0B212B2001F00BFC322005F016F814
:104DD0000021202001F004FC40F23F11212001F0CD
:104DE000FFFB0021302001F0FBFB4FF483713120E9
:104DF00001F0F6FB0021322001F0F2FB00E067E059
:104E00004FF40171352001F0EBFB41F20A613620CD
:104E100001F0E6FB40F20771372001F0E1FB4FF4AF
:104E20008371382001F0DCFB40F20771392001F07A
:104E3000D7FB40F202413C2001F0D2FB40F60F418B
:104E40003D2001F0CDFB0021502001F0C9FBEF21F6
:104E5000512001F0C5FB0021522001F0C1FB40F2BE
:104E60003F11532001F0BCFB4FF41C51602001F0B6
:104E7000B7FB0121612001F0B3FB00216A2001F0A2
:104E8000AFFB0021802001F0ABFB0021812001F06D
:104E9000A7FB0021822001F0A3FB0021832001F069
:104EA0009FFB0021842001F09BFB0021852001F065
:104EB00097FB1021902001F093FB4FF4C0619220EA
:104EC00001F08EFB40F23311072001F089FB81E4F1
:104ED000FE48808845F2084188427DD14FF48071B8
:104EE000012001F07DFB4FF4E061022001F078FB2E
:104EF00041F23001032001F073FB0021042001F096
:104F00006FFB40F20721082001F06AFB0021092015
:104F100001F066FB00210A2001F062FB00210C2059
:104F200001F05EFB00210D2001F05AFB00210F2053
:104F300001F056FB142004F061FF41F2B061102033
:104F400001F04EFB0121112001F04AFB0121172045
:104F500001F046FB4FF49C71122001F041FB4FF42D
:104F60000061132001F03CFB0921292001F038FBEE
:104F700009212A2001F034FB0021A42001F030FB9C
:104F80000021502001F02CFBEF21512001F028FBE3
:104F90000021522001F024FB40F23F11532001F088
:104FA0001FFB4FF41C51602001F01AFB012161200E
:104FB00001F016FB00216A2001F012FB0021802085
:104FC00001F00EFB0021812001F00AFB002182206C
:104FD00001F006FB002100E024E0832001F000FB4B
:104FE0000021842001F0FCFA0021852001F0F8FA6C
:104FF0001321902001F0F4FA0021922001F0F0FA40
:105000000321932001F0ECFA4FF48871952001F010
:10501000E7FA40F27311072001F0E2FA322004F0BF
:10502000EDFEB8E4A948808841F2055188427DD15F
:105030000021072001F0D4FA322004F0DFFE4FF403
:105040008E71122001F0CCFA0121A42001F0C8FADF
:105050000F21082001F0C4FA08210A2001F0C0FA4B
:1050600008210D2001F0BCFA40F20771302001F058
:10507000B7FA0721312001F0B3FA40F20361322080
:1050800001F0AEFA4FF4E061332001F0A9FA40F2EA
:105090000221342001F0A4FA0221352001F0A0FA07
:1050A00041F60F71362001F09BFA40F2077137206C
:1050B00001F096FA0021382001F092FA00213920FF
:1050C00001F08EFA40F207713A2001F089FA0021CE
:1050D0003B2001F085FA07213C2001F081FA0021F4
:1050E0003D2001F07DFA322004F088FE01210720E6
:1050F00001F076FA0121172001F072FA322004F053
:105100007DFE4FF4BD51102001F06AFA40F21721E4
:10511000112001F065FA4FF48F71122001F060FA4E
:105120004FF47061132001F05BFA00E095E000217C
:105130002A2001F055FA0A21292001F051FA4FF4F2
:105140009F71122001F04CFA0021502001F048FA22
:10515000EF21512001F044FA0021522001F040FAE1
:1051600040F23F11532001F03BFA4FF41C516020F4
:1051700001F036FA0121612001F032FA00216A20A3
:1051800001F02EFA0021802001F02AFA002181206E
:1051900001F026FA0021822001F022FA002183206A
:1051A00001F01EFA0021842001F01AFA0021852066
:1051B00001F016FA1321902001F012FA4FF4407119
:1051C000922001F00DFA0521932001F009FA002147
:1051D000952001F005FA0021972001F001FA002145
:1051E000982001F0FDF94FF48071012001F0F8F9E9
:1051F0004FF4E061022001F0F3F941F2380103209D
:1052000001F0EEF90021042001F0EAF900210C2060
:1052100001F0E6F900210F2001F0E2F90021202041
:1052200001F0DEF90021212001F0DAF92121072027
:1052300001F0D6F9142004F0E1FD6121072001F00E
:10524000CFF9142004F0DAFD40F27311072001F0C9
:10525000C7F9142004F0D2FD98E41C4880884BF272
:10526000055188427ED10021084601F0B9F900219C
:10527000084601F0B5F90021084601F0B1F9002116
:10528000084601F0ADF90121A42001F0A9F914208C
:1052900004F0B4FD4FF41C51602001F0A1F940F27C
:1052A0000221082001F09CF94FF40571302001F033
:1052B00097F943F21571312001F092F940F204613F
:1052C000322001F08DF940F6166101E0E80300207C
:1052D000332001F085F942F21121342001F080F9E8
:1052E0004FF4A851352001F07BF948F207513620E0
:1052F00001F076F941F20741372001F071F941F2EE
:105300000341382001F06CF92021392001F068F9BF
:105310001A21902001F064F90021102001F060F9B9
:105320000721112001F05CF90021122001F058F949
:105330000021132001F054F9142004F05FFD4FF414
:10534000E661102001F04CF940F23711112001F014
:1053500047F9142004F052FD4FF4DC71122001F0E3
:105360003FF900E086E0142004F048FD4FF470613E
:10537000132001F035F980212A2001F031F948216C
:10538000292001F02DF9142004F038FD4FF480712C
:10539000012001F025F94FF4E061022001F020F92D
:1053A00041F23801032001F01BF940F202210820EC
:1053B00001F016F900210A2001F012F900210C2059
:1053C00001F00EF900210D2001F00AF930210E2024
:1053D00001F006F90021502001F002F9EF215120DF
:1053E00001F0FEF80021522001F0FAF840F23F11DE
:1053F000532001F0F5F84FF41C51602001F0F0F853
:105400000121612001F0ECF800216A2001F0E8F8A8
:105410001121902001F0E4F84FF4C061922001F0D6
:10542000DFF840F20241932001F0DAF802219420E3
:1054300001F0D6F8142004F0E1FC0121072001F06E
:10544000CFF8142004F0DAFC6121072001F0C8F83D
:1054500040F27311072001F0C3F80021202001F071
:10546000BFF80021212001F0BBF82221002001F02B
:10547000B7F813E3FE4880884CF2055188427CD18E
:105480000021084601F0ACF80021084601F0A8F818
:10549000142004F0B3FC0021084601F0A1F800211B
:1054A000084601F09DF80021084601F099F8002116
:1054B000084601F095F80121A42001F091F814208C
:1054C00004F09CFC4FF41C51602001F089F840F678
:1054D0000601082001F084F840F20371302001F049
:1054E0007FF80121312001F07BF80421322001F006
:1054F00077F84FF48171332001F072F84FF4407166
:10550000342001F06DF840F20311352001F068F805
:105510001F21362001F064F840F20371372001F0BA
:105520005FF80121382001F05BF80421392001F0F7
:1055300057F81521902001F053F84FF482611020A4
:1055400001F04EF840F24721112001F049F84FF4E4
:10555000DE71122001F044F84FF46061132001F075
:105560003FF8782004F04AFC4FF48071012001F0EC
:1055700037F84FF40071022000E052E001F030F8FB
:1055800041F23001032001F02BF808210A2001F03C
:1055900027F800210C2001F023F820210E2001F033
:1055A0001FF800210F2001F01BF80021202001F03E
:1055B00017F80021212001F013F83D212A2001F0E5
:1055C0000FF8142004F01AFC2D21292001F008F80E
:1055D0000021502001F004F84DF2EF01512000F0BD
:1055E000FFFF0021522000F0FBFF40F23F1153204B
:1055F00000F0F6FF0021612000F0F2FF00216A2098
:1056000000F0EEFF4FF44071922000F0E9FF052119
:10561000932000F0E5FF4FF48071072000F0E0FFD9
:105620003CE29348808848F6891188427DD1012167
:10563000002000F0D5FF4AF6A401032000F0D0FFBF
:1056400000210C2000F0CCFF40F60C010D2000F0F2
:10565000C7FF4FF42C510E2000F0C2FFB0211E20D6
:1056600000F0BEFF42F63F31012000F0B9FF4FF4D9
:10567000C061022000F0B4FF0021102000F0B0FF54
:1056800046F27801112000F0ABFF0021052000F068
:10569000A7FF0021062000F0A3FF4EF61C71162084
:1056A00000F09EFF0321172000F09AFF40F2332103
:1056B000072000F095FF00210B2000F091FF002152
:1056C0000F2000F08DFF0021412000F089FF002114
:1056D000422000F085FF0021482000F081FF40F2C9
:1056E0003F11492000F07CFF00214A2000F078FFA4
:1056F00000214B2000F074FF4FF46F41442000F074
:105700006FFF0021452000F06BFF40F23F11462063
:1057100000F066FF40F20771302000F061FF4FF4A7
:105720000171312000F05CFF00E03DE04FF40171B9
:10573000322000F055FF40F20251332000F050FFBC
:1057400040F20751342000F04BFF4FF40171352037
:1057500000F046FF4FF40171362000F041FF40F2A7
:105760000251372000F03CFF40F202313A2000F0B5
:1057700037FF40F202313B2000F032FF00212320AE
:1057800000F02EFF0021242000F02AFF4FF40041FA
:10579000252000F025FF00214F2000F021FF0021EF
:1057A0004E2000F01DFF79E13148808844F23151EC
:1057B00088427CD10121002000F012FF0A2004F071
:1057C0001DFB41F22861102000F00AFF0E2112207B
:1057D00000F006FF40F63921132000F001FF0A20F7
:1057E00004F00CFB4021112000F0FAFE502115209E
:1057F00000F0F6FE0A2004F001FB1E21122000F04A
:10580000EFFE0A2004F0FAFA4FF4B151102000F034
:10581000E7FE42F63921132000F0E2FE0A2004F0F0
:10582000EDFA4FF48071012000F0DAFE4FF4407180
:10583000022000F0D5FE41F23801032000F0D0FE36
:1058400040F20221082000F0CBFE08210A2000F0DF
:10585000C7FE0021302000F0C3FE40F2024131209B
:1058600000F0BEFE4FF48371322000F0B9FE01E07B
:10587000E803002040F20351332000F0B1FE4FF462
:105880008271342000F0ACFE40F20131352000F08E
:10589000A7FE40F20771362000F0A2FE40F205316B
:1058A000372000F09DFE4FF40271382000E040E008
:1058B00000F096FE40F60B71392000F091FE0221B7
:1058C000412000F08DFE4FF41C51602000F088FE56
:1058D0000121612000F084FE4FF40471902000F05B
:1058E0007FFE4FF48571922000F07AFE0421932010
:1058F00000F076FE4FF48071A02000F071FE0121CF
:10590000072000F06DFE2121072000F069FE232111
:10591000072000F065FE3321072000F061FE40F211
:105920003311072000F05CFE0021A02000F058FE9B
:10593000B4E06048808844F235518842F8D1302183
:10594000152000F04DFE10219A2000F049FE202184
:10595000112000F045FE43F22841102000F040FEE7
:105960000221122000F03CFE41F23801132000F029
:1059700037FE282004F042FA1221084600F030FEDB
:10598000282004F03BFA43F22041102000F028FECA
:1059900043F23801132000F023FE462004F02EFAD3
:1059A0000021302000F01CFE40F20241312000F0C6
:1059B00017FE40F20731322000F012FE4FF4417121
:1059C000332000F00DFE0421342000F009FE40F2E7
:1059D0000141352000F004FE40F20771362000F04E
:1059E000FFFD40F20531372000F0FAFD4FF4C261AF
:1059F000382000F0F5FD4FF4C261392000F0F0FDD1
:105A00004FF48071012000F0EBFD4FF44071022053
:105A100000F0E6FD41F23001032000F0E1FD40F628
:105A20000801082000F0DCFD08210A2000F0D8FD64
:105A30004FF41C51602000F0D3FD0121612000F0E3
:105A4000CFFD4FF49F71902000F0CAFD4FF480719C
:105A5000922000F0C5FD4FF48071932000F0C0FD4E
:105A60004FF44051A02000F0BBFD1021A32000F016
:105A7000B7FD0121072000F0B3FD2121072000F030
:105A8000AFFD2321072000F0ABFD3321072000F0FC
:105A9000A7FD40F23311072000F0A2FD0020FBF724
:105AA000ABFF0120044908604FF6FF70FBF722FFAF
:105AB00010BD0000E8030020A801224210B50246F4
:105AC000012000E050430B1EA1F10104E1B2F9D125
:105AD00010BD000010B54FF0883017490860091D4F
