:020000040800F2
:10000000A0BF00202D0200083102000833020008C2
:10001000350200083702000839020008000000001D
:100020000000000000000000000000003B0200088B
:100030003D020008000000003F02000841020008E5
:1000400043020008430200084302000825A00008FC
:10005000430200084302000843020008430200086C
:10006000430200084302000843020008430200085C
:10007000430200084302000843020008430200084C
:10008000430200084302000843020008430200083C
:10009000430200084302000843020008430200082C
:1000A000430200084302000843020008430200081C
:1000B00035B50008430200086DB50008430200088A
:1000C00043020008430200084302000843020008FC
:1000D0004302000895DE000819DF0008430200080B
:1000E00043020008430200084302000843020008DC
:1000F00043020008430200084302000843020008CC
:1001000043020008430200084302000843020008BB
:1001100043020008430200084302000843020008AB
:10012000430200084302000843020008430200089B
:1001300000F002F800F06BF80AA090E8000C82448E
:100140008344AAF10107DA4501D100F060F8AFF26B
:10015000090EBAE80F0013F0010F18BFFB1A43F0A5
:1001600001031847642A0100842A01000A444FF061
:10017000000C10F8013B13F0070408BF10F8014B06
:100180001D1108BF10F8015B641E05D010F8016B4B
:10019000641E01F8016BF9D113F0080F1EBF10F8AF
:1001A000014BAD1C0C1B09D16D1E58BF01F801CBD2
:1001B000FAD505E014F8016B01F8016B6D1EF9D555
:1001C0009142D6D37047000000230024002500266A
:1001D000103A28BF78C1FBD8520728BF30C148BFAA
:1001E0000B607047642900F0B180752900F0AE8083
:1001F000782900F01281632900F0F382732900F05E
:10020000F882002070471FB51FBD10B510BD00F06B
:1002100013FB1146FFF7F7FF0EF098FB00F031FBE0
:1002200003B4FFF7F2FF03BC0DF0CBFE0848004714
:10023000FEE7FEE7FEE7FEE7FEE7FEE7FEE7FEE796
:10024000FEE7FEE703480449044A054B70470000F7
:1002500031010008A0B90020A0BF0020A0BB0020F1
:10026000A0BB0020704700000FB4044910B503AADA
:10027000029800F0C3FA10BC5DF814FB04000020E3
:100280000FB41CB5084B06AA7B446946009005983C
:1002900000F085FA04460020694600F093FA2046F3
:1002A0001CBC5DF814FB00003905000070B5044665
:1002B00085690068C10601D5302600E02026C00708
:1002C00007D070BDD4E9012130469047206A401C18
:1002D00020626D1EF6D570BD70B504468569007844
:1002E000C00707D170BDD4E9012120209047206AC2
:1002F000401C20626D1EF6D570BD70B50C460546DB
:10030000012A05D02878800600D5EA69002302E09A
:10031000012305E05B1C934202D2E05C0028F9D186
:10032000A869E618C01AA861286A184428622846F5
:10033000FFF7BCFF04E0D5E9012114F8010B904759
:10034000B442F8D32846FFF7C7FF70BD2DE9F0414E
:100350000646002410687529314616A510D0AFF363
:100360000080002802DA404213A507E031688A07BE
:1003700001D512A502E0490704D511A5012401E029
:10038000AFF3008000210A2206F1240709E0B0FB48
:10039000F2FCB0FBF2F302FB1C003030785418463C
:1003A000491C0028F3D123462A463046BDE8F041D7
:1003B00000F097B9000000002D0000002B000000A5
:1003C00020000000F0B40D460188090502D5214C3B
:1003D0007C4402E01F4C7C440E34002100F12406D2
:1003E00008E002F00F071209E75D42EA03721B09F9
:1003F0007754491C52EA0307F3D10278002312070D
:1004000004D5702D06D009B1022311342246F0BC68
:1004100000F067B901231034F8E770B504460D46C3
:1004200021461068AFF30080024629462046BDE809
:1004300070400023C6E7D21D22F00703D3E9002352
:10044000C0E70368126843F0200303600823C36118
:100450000023B7E76C2501002DE9F05F89460446CB
:100460004FF0000ADFF874B1FB44C0F820A020462A
:10047000E1688847002874D0252806D0D4E90121F6
:100480009047206A401C2062F1E700265F46204624
:10049000E16888472028054607DB312D05D2781909
:1004A00010F8200C08B10643F1E7B00701D526F09B
:1004B0000406C4F81CA00027C4F818A02A2D09D0EF
:1004C00028460DF077FD38B304EB8708303DC8F8B7
:1004D000185019E059F8041B204604EB870291617B
:1004E000E1688847012F054618D1E069002820DA25
:1004F00026F020061DE0D8F8180000EB800005EB80
:1005000040003038C8F818002046E16888470546A2
:100510000DF050FD0028EED1012F0AD02E2D08D16C
:100520002046E16888477F1C0546022F46F02006DA
:10053000C4DBA069002803DA404246F00106A0614E
:10054000F00701D026F010066C2D0BD0682D09D0D5
:100550004C2D39D06A2D35D0742D35D07A2D33D02D
:1005600016E038E0E1682F4620468847B842054645
:1005700009D16C2F26D04FF48060E16806432046F5
:100580008847054604E06C2F1AD04FF4807006436C
:100590000DB3A5F14100192802D8203546F40066B4
:1005A0004A462946204626604E46FFF71BFE80B18C
:1005B00001280BD0F61D26F0070000F1080956E7C8
:1005C0004020E4E78020D8E70020D6E706F10409C0
:1005D0004DE7284652E7206ABDE8F09FFC24010061
:1005E00030B505460B462A4613F8014B12F8010BAD
:1005F00008B1A042F8D01CB1002802D06D1CF1E770
:10060000284630BD10B5431C02E010F8011B71B143
:100610008107FAD14FF0013202C88C1A8C4314EAD8
:10062000C211F9D0C01A0A0603D0C01E10BDC01AEC
:1006300010BD0A0401D0801E10BD0902FCD0401E6E
:1006400010BD00004FF0013C50F8042B51F8043B62
:100650009A4221D1A2EB0C03934313EACC1317D196
:1006600050F8042B51F8043B9A4215D1A2EB0C032D
:10067000934313EACC130BD150F8042B51F8043BED
:100680009A4209D1A2EB0C03934313EACC13DBD0BB
:100690004FF00000704700BFD01A01BAB1FA81F1E3
:1006A00001F0180122FA01F0CB40C1F12001DBB2C8
:1006B000C0B2C01A2CFA01F3D11A914311EAC31146
:1006C000E6D17047704770477047704710B500F02B
:1006D000A7F8006810BD10B5044600F0A1F804604A
:1006E00010BD2DE9F0470D4699469246044600F1AB
:1006F00024080168880604D5E06921F01001216012
:1007000000E00120A84201DD471B00E00027A169AD
:100710007A1902EB0900081AA0612078C00602D4F9
:100720002046FFF7C3FD002608E0D4E901211AF8AE
:1007300006009047206A401C761C20624E45F4DB80
:100740002078C0060AD52046FFF7B0FD06E0D4E9C0
:10075000012130209047206A401C2062381EA7F1FA
:100760000107F4DC07E0D4E9012118F805009047FF
:10077000206A401C2062281EA5F10105F3DC2046FA
:10078000FFF7AAFD2078000602D50220BDE8F08719
:100790000120FBE701694A1C02610878704700B537
:1007A0008FB0CDE901310021059105497944CDE9AA
:1007B000031011466846FFF74FFE0FB000BD000062
:1007C000E5FFFFFF0A6802F8010B0A60704710B5E9
:1007D000436913B1AFF3008001E0FFF78EFD012004
:1007E00010BD127800F124010A7000224A70012223
:1007F000EDE711684FF0FF32E9E70000074B70B5F5
:100800000D467B44FFF7CBFF0446284600F00CF86A
:1008100010B14FF0FF3070BD204670BDDFE000002A
:100820000048704740B90020007B00F0800070470E
:100830000048704740B900207546FFF7F9FFAE4603
:1008400005006946534620F00700854618B020B5DC
:10085000FFF7F8FCBDE820404FF000064FF000071E
:100860004FF000084FF0000B21F00701AC46ACE858
:10087000C009ACE8C009ACE8C009ACE8C0098D46C5
:10088000704710B50446AFF300802046BDE8104025
:10089000FFF7C6BC2DE9F0410746884600263748D9
:1008A000416800208847354890F8200000F080001B
:1008B000002850D000244BE0002529E02F488189F2
:1008C00005EB850007EB0010503081421EDA2B4803
:1008D000808905EB850107EB0111884216DD274869
:1008E000C18AC4EB041008EB40001E3081420DDACF
:1008F0002248C08AC4EB041108EB4101884205DD9F
:1009000004EB44002844401CC6B203E0681C85B2D6
:10091000032DD3DB00BFCEB119480078B04201D11E
:10092000002612E016480078401EC2B2002341465D
:10093000384600F027F8124806700078401EC2B210
:1009400001234146384600F01DF803E0601C84B2E4
:10095000052CB1DB0EE00A48007858B10848007851
:10096000401EC2B200234146384600F00BF800207A
:10097000034908703046BDE8F081000014000020F3
:10098000D80000202DE9F84305460E461446994646
:10099000032094FBF0F087B2032094FBF0F100FBFE
:1009A00011401FFA80F8102C01DDBDE8F883B9F181
:1009B000000F27D0012C25D04FF4FC60C7EB071C9B
:1009C00006EB4C0C0CF11C0C1FFA8CF308EB880C9A
:1009D00005EB0C1C0CF14E0C1FFA8CF2C7EB071C3C
:1009E00006EB4C0C0CF1010C1FFA8CF108EB880C97
:1009F00005EB0C1C0CF1010C00901FFA8CF003F0BD
:100A0000BBFC26E0012C24D04FF6FF70C7EB071C7F
:100A100006EB4C0C0CF11C0C1FFA8CF308EB880C49
:100A200005EB0C1C0CF14E0C1FFA8CF2C7EB071CEB
:100A300006EB4C0C0CF1010C1FFA8CF108EB880C46
:100A400005EB0C1C0CF1010C00901FFA8CF003F06C
:100A500093FC012C13D050200A4B00901B6853F8D4
:100A60002420F31D4FF01E0C0CFB073399B208EB4A
:100A7000880305EB031398B210230AF0DBFC00BFD8
:100A800093E70000580000202DE9FE4305460C4680
:100A900017464FF4784047490880474807604FF6AB
:100AA000FF70009004F1960083B205F1F00082B26D
:100AB0002146284603F060FC04F1960083B205F15C
:100AC000F00082B22146284603F03AFA04F196017A
:100AD0008BB205F1A0018AB2503988B2214603F0E9
:100AE0002FFA04F13C0083B205F1F00082B204F168
:100AF0001E0081B2284603F023FA04F1780083B285
:100B000005F1F00082B204F15A0081B2284603F0E8
:100B100017FA1F2027490880002647E0012E24D11C
:100B2000032096FBF0F1E01D1E2202FB01001FFADC
:100B300080F8032096FBF0F100FB116000EB8000D1
:100B400005EB0010801C1FFA80F9002110221A48C2
:100B5000006850F826001E23CDE9012100905022A4
:100B6000414648460AF004FC1EE0032096FBF0F1E3
:100B7000E01D1E2202FB01001FFA80F8032096FBF5
:100B8000F0F100FB116000EB800005EB00101FFA94
:100B900080F9502000900848006850F82620102363
:100BA000414648460AF046FC701C86B20F2EB5DB63
:100BB000BDE8FE830A0000205800002010B502F0B6
:100BC00099FC10BD2DE9F04107460C460026002592
:100BD00009E036023919491B491E88B200F008F8AD
:100BE0000644681CC5B2A542F3DB3046BDE8F0817F
:100BF00070B50446002602F02DFD2546E11704EBF2
:100C000011610912A02202EB4101C8B202F0EEFC10
:100C100002F06CFDE11704EB11610912A4EB012154
:100C2000C8B202F0E3FC02F061FD02F013FDA12066
:100C300002F0DCFC02F05AFD002002F09FFC0646A8
:100C400002F02EFD304670BD2DE9F04105460E46FE
:100C50001746002409E0E20026FA02F2D1B22A196E
:100C600090B200F006F8601CC4B2BC42F3DBBDE8F1
:100C7000F08170B504460E4602F0ECFC2546E11703
:100C800004EB11610912A02202EB4101C8B202F08B
:100C9000ADFC02F02BFDE11704EB11610912A4EB8E
:100CA0000121C8B202F0A2FC02F020FD304602F0A1
:100CB0009DFC02F01BFD02F0F3FC0A200DF0E0FAAF
:100CC00070BD0000F8B50026002762E1052F3DD277
:100CD000DFE807F0033D77BDF100701CC6B24FF6A8
:100CE000FF700090AD480288A0236421002003F02B
:100CF00043FBF0201023AAA26421009000200AF0F8
:100D000099FB08F0F9FB0446ECB9012008F0D1FB8F
:100D10000446A4B94FF6FF700090A0480288A023B3
:100D20007821002003F028FBF0201023A1A27821D5
:100D3000009000200AF07EFB0026012706E02046F6
:100D40000AF00CF902E020460AF008F90FE1701CE5
:100D5000C6B24FF6FF70009090480288A02364212D
:100D6000002003F009FBF020102397A264210090DB
:100D700000200AF05FFB08F0BFFB0446ECB902203C
:100D800008F097FB0446A4B94FF6FF700090834823
:100D90000288A0237821002003F0EEFAF02010232F
:100DA00084A27821009000200AF044FB002602274C
:100DB00006E020460AF0D2F802E020460AF0CEF81B
:100DC000D5E04FF6FF70009074480288A02364219C
:100DD000002003F0D1FAF020102382A264210090B9
:100DE00000200AF027FB08F02DFC04469CB94FF6C2
:100DF000FF70009069480288A0237821002003F04A
:100E0000BBFAF02010237EA27821009000200AF087
:100E100011FB032716E04FF6FF7000905F48028831
:100E2000A0236421002003F0A7FAF02010237BA266
:100E30006421009000200AF0FDFA20460AF08EF8A6
:100E4000002600274FF47A700DF01AFA8FE04FF663
:100E5000FF70009051480288A0236421002003F015
:100E60008BFAF020102375A26421009000200AF074
:100E7000E1FA08F07DFC04469CB94FF6FF70009043
:100E800046480288A0237821002003F075FAF0205C
:100E9000102372A27821009000200AF0CBFA0427D8
:100EA00003E0002720460AF059F84FF47A700DF05D
:100EB000E7F95CE0FFE74FF6FF70009037480288E3
:100EC000A0236421002003F057FAF02010236BA226
:100ED0006421009000200AF0ADFAF02010236FA2E8
:100EE0007821009000200AF0A5FA00BF00F0FDFF75
:100EF0000546B5F5967FF9DA2946022008F0CEFCC2
:100F0000044674BB4FF6FF70009024480288A0236B
:100F10006421002003F030FAF020102363A278212E
:100F2000009000200AF086FA674808F0E7FC1020DD
:100F300000906648008864490988421A03235021BA
:100F4000084607F0B9FD40F2DC500DF099F94FF674
:100F5000FF70A023F02264210090002003F00CFA1F
:100F6000F8BDFFE70027204609F0F8FF00BF00BFEB
:100F70004FF448700DF084F9052E0AD14FF6FF703A
:100F8000009006480288A0236421002003F0F4F9B1
:100F900000E09BE600BF00BFE2E7000090040020F5
:100FA000506C65617320746F7563682066696E6745
:100FB0006572210046696E6765727072696E742091
:100FC000636F727265637400506C65617320746F37
:100FD0007563682066696E67657220616761696E16
:100FE00021000000436F6D70617265207477696342
:100FF000652066696E6765727072696E74000000C4
:1010000054776963652066696E6765727072696E90
:1010100074206172652073616D650000436F6D70AF
:10102000617265206661696C2C706C6561732074F7
:101030006F75636820616761696E210047656E6541
:10104000726174652066696E6765727072696E742C
:101050002074656D706C61746500000047656E6595
:10106000726174652066696E6765727072696E740C
:10107000207375636365737300000000496E7470BC
:10108000757420494420616E642073617665207711
:1010900069746820454E544552210000303D3C2083
:1010A0004944203C3D32393900000000416464204D
:1010B00066696E6765727072696E742073756363BA
:1010C000657373212121000054000020E00A0020F4
:1010D00010B505200DF0FCF810BD000010B5002083
:1010E0000F4908600F48006820F470400D490860FF
:1010F0000846006840F440500860FFF7E9FF002010
:101100000949C1F88C01FFF7E3FF01200449086099
:10111000FFF7DEFF00200449C1F8800110BD000088
:101120008001224200100140000022420F488069E5
:1011300040F010000D4988610D4800684FF20F0122
:1011400088430B4908600846006843F203010843DE
:10115000074908600846C06840F00200C8600846B9
:10116000C06840F00800C8607047000000100240EE
:101170000010014010B500200F4908600F480068BA
:1011800020F470400D4908600846006840F4405063
:101190000860FFF79DFF01200949C1F88C01FFF7A6
:1011A00097FF012004490860FFF792FF00200449DF
:1011B000C1F8800110BD00008001224200100140F2
:1011C0000000224270B5054600241648006820F44D
:1011D0007040144908600846006840F40040086008
:1011E0001E200DF075F8002612E000200E49086060
:1011F000FFF76EFF01200D49C1F880016006040E63
:1012000009487438006808B1601CC4B2701CC6B2CA
:10121000082EEADB15B9FFF7ADFF01E0FFF75EFF2F
:10122000204670BD00100140800122420000224291
:1012300070B504461348006820F4704011490860F6
:101240000846006840F44050086000200E490860DD
:10125000FFF73EFF002512E0E0090B490C31086062
:101260006006040E01200949C1F88001FFF730FF34
:10127000002005490860FFF72BFF681CC5B2082D48
:10128000EADB70BD001001408001224200002242D2
:1012900010B50F48006820F470400D4908600846FA
:1012A000006840F44050086001200A4908600A497B
:1012B000C1F880011E200DF00BF8002005490860E0
:1012C000FFF706FF00200449C1F8800110BD0000AF
:1012D000001001408C0122420000224210B50E484D
:1012E000006820F470400C4908600846006840F42B
:1012F000405008600120094908601E200CF0E8FFFA
:1013000000200749C1F88C01FFF7E2FE01200349E4
:101310000C31086010BD0000001001408001224225
:101320000000224210B500241348006820F47040E9
:10133000114908600846006840F400400860012038
:101340000E4908600E49C1F88001FFF7C1FE09E0AF
:10135000601CC4B2FA2C03DDFFF7C0FF012010BDF2
:10136000FFF7B6FE0548803800680028F0D1034931
:101370000C39086000BFF2E7001001408C012242E6
:10138000000022422DE9F041074688461546042117
:10139000052000F02DF8002101200CF0F5FD802142
:1013A0000A2009F0CCFD002405E0395D09200CF08D
:1013B000EBFD601CC4B24445F7DB032101200CF0B7
:1013C000E3FDFF2400BF052008F09AFF0646601EDB
:1013D000C4B21CB106F004000028F4D0222008F0AA
:1013E0008FFF2870212008F08BFF6870BDE8F08126
:1013F00070B505460C460026284608F081FF0646D3
:1014000026EA040128460CF0BFFD70BD10B500248B
:101410001548006820F00F0013490860084600686E
:1014200040F00800086004E0601CC4B201200CF029
:101430004FFF0E48006808B1C82CF5DBC82C01DB53
:10144000012010BD002404E0601CC4B201200CF097
:101450003FFF0648006808B9F02CF5DBF02C01DBF3
:101460000120EEE70020ECE70008014000012142E6
:101470002DE9F84F00F0D0F800F0ACF8FFF7C6FF08
:10148000CC2000F0D5F8BE2000F0D2F800F090F8A3
:10149000834600F08DF80446072C08DDE043C4B213
:1014A0006FEA0B0000F0FF0B4FF0000A01E04FF075
:1014B000010AA1464FEA09200FFA80F909EB0B0057
:1014C0000FFA80F948460FF06BFC00900FF0DCFA41
:1014D00007460022084B0EF0C7FF05460EF000FF3E
:1014E0000FFA80F9BAF1000F02D04846BDE8F88F34
:1014F000C9F1000000B2F9E70000E43F10B50F4861
:10150000806940F004000D4988610D48006820F0B2
:101510000F000B4908600846006840F003000860AF
:1015200007480C30006840F0010005490C310860A4
:1015300000F050F8FFF76AFF10BD000000100240F5
:101540000008014010B51748006820F00F00154949
:1015500008600846006840F0030008600020124957
:10156000086002200CF0B4FE01201049C1F880018F
:101570000C48006820F00F000A490860084600681F
:1015800040F0080008600C200CF0A2FE06488038ED
:10159000006808B1012400E0002432200CF098FE1D
:1015A000204610BD00080140800121420000214278
:1015B00070B50026012508E0FFF7C4FF0446E001EE
:1015C00040EA6600C6B2681CC5B2082DF4DD30469C
:1015D00070BD000010B50D48006820F00F000B49E9
:1015E00008600846006840F00300086000200849D1
:1015F000086040F2EE200CF06BFE01200549C1F8B6
:1016000080010F200CF064FE10BD000000080140B6
:10161000800121420000214210B5FFF7DBFFFFF7F8
:10162000F5FECC2000F004F8442000F001F810BDD5
:1016300070B504461848006820F00F00164908608D
:101640000846006840F003000860012520E004F02F
:10165000010664106EB100201049086002200CF0F1
:1016600037FE01200E49C1F880013C200CF030FE0D
:101670000CE00020094908603C200CF029FE012004
:101680000749C1F8800102200CF022FE681CC5B297
:10169000082DDCDD70BD0000000801408001214202
:1016A0000000214238B54FF6FF7000903C48028898
:1016B000A0236421002002F05FFEF020102339A255
:1016C00064210090002009F0B5FEF02010233AA21A
:1016D00078210090002009F0ADFEF02010233DA2FB
:1016E0008C210090002009F0A5FE32200CF0C8FDEE
:1016F0003C4AAA210020FFF7C7F900F0F6FB054697
:101700004FF6FF70854200D136E0B5F57F4F03D12B
:1017100007F0B2FE044604E00121284607F076FEF9
:10172000044694B94FF6FF7000901D480288A0232C
:101730007821002002F020FEF02010232AA28C2124
:101740000090002009F076FE02E0204609F006FC39
:1017500040F2DC500CF094FD2B4808F0CFF810203C
:1017600000902A48008828490988421A03235021FA
:10177000084607F0A1F900BF4FF6FF700090084837
:101780000288A0236421002002F0F6FD32200CF034
:1017900077FD1F4AAA210020FFF776F938BD000027
:1017A0009004002044656C6574652066696E676509
:1017B000727072696E740000496E707574204944CD
:1017C00020616E6420746F75636820456E74657265
:1017D00021000000303D3C204944203C3D32393955
:1017E000000000009C00002044656C657465206664
:1017F000696E6765727072696E7420737563636574
:10180000737321212100000054000020E00A002011
:1018100060000020014621293ED2DFE801F01113CB
:101820001517191B1D1F212325273D3D3D3D292B44
:101830003D3D3D2D3D3D2F313335373D3D393B005D
:1018400017A02BE017A029E01AA027E01EA025E092
:1018500022A023E029A021E030A01FE036A01DE057
:1018600043A01BE045A019E048A017E04BA000BF33
:1018700053A013E056A011E059A00FE061A00DE0C5
:1018800064A00BE066A009E069A007E06DA005E098
:1018900071A003E073A001E075A000BF00BF704716
:1018A0004F4B0000CAFDBEDDB0FCBDD3CAD5B4EDC0
:1018B000CEF30000B4ABB8D0C6F7C9CFC3BBD3D00A
:1018C000CAD6D6B800000000C2BCC8EBD6B8CEC697
:1018D000CDBCCFF1CAA7B0DC00000000D6B8CEC6A0
:1018E000CDBCCFF1CCABB8C9A1A2CCABB5ADB6F8ED
:1018F000C9FAB2BBB3C9CCD8D5F70000D6B8CEC6AA
:10190000CDBCCFF1CCABCAAAA1A2CCABBAFDB6F884
:10191000C9FAB2BBB3C9CCD8D5F70000D6B8CEC689
:10192000CDBCCFF1CCABC2D2B6F8C9FAB2BBB3C909
:10193000CCD8D5F700000000D6B8CEC6CDBCCFF1CC
:10194000D5FDB3A3A3ACB5ABCCD8D5F7B5E3CCAB41
:10195000C9D9A3A8BBF2C3E6BBFDCCABD0A1A3A958
:10196000B6F8C9FAB2BBB3C9CCD8D5F700000000AD
:10197000D6B8CEC6B2BBC6A5C5E40000C3BBCBD1AA
:10198000CBF7B5BDD6B8CEC600000000CCD8D5F791
:10199000BACFB2A2CAA7B0DC00000000B7C3CECA5B
:1019A000D6B8CEC6BFE2CAB1B5D8D6B7D0F2BAC59E
:1019B000B3ACB3F6D6B8CEC6BFE2B7B6CEA700007A
:1019C000C9BEB3FDC4A3B0E5CAA7B0DC00000000E7
:1019D000C7E5BFD5D6B8CEC6BFE2CAA7B0DC000007
:1019E000BBBAB3E5C7F8C4DAC3BBD3D0D3D0D0A752
:1019F000D4ADCABCCDBCB6F8C9FAB2BBB3C9CDBC74
:101A0000CFF10000B6C1D0B420464C41534820B3BA
:101A1000F6B4ED00CEB4B6A8D2E5B4EDCEF3000036
:101A2000CEDED0A7BCC4B4E6C6F7BAC5000000003D
:101A3000BCC4B4E6C6F7C9E8B6A8C4DAC8DDB4EDDC
:101A4000CEF30000BCC7CAC2B1BED2B3C2EBD6B897
:101A5000B6A8B4EDCEF30000D6B8CEC6BFE2C2FA47
:101A600000000000B5D8D6B7B4EDCEF300000000FA
:101A7000C4A3BFE9B7B5BBD8C8B7C8CFC2EBD3D0F2
:101A8000CEF300000EB51E200DF032F905463648A3
:101A90004FF4614235A103682846FEF7F1FB0020B0
:101AA00010210B46F022CDE9005102903C2109F0B3
:101AB0005FFC64200CF0E4FB324807F01FFF064691
:101AC00016B1304609F04AFA2F4807F0D9FD06460C
:101AD000CEB93222002128460DF01AF92A4883781F
:101AE000008828490988421A28A12846FEF7C8FB21
:101AF000002010210B46F022CDE900510290502128
:101B000009F036FC02E0304609F028FA28460DF0CC
:101B1000E1F8254AAA210020FEF7B6FF23E0AA211A
:101B20000020FEF7B7FE04463CB1012C01D10AF0BB
:101B30000DF9032C01D1FFF7C5F8002002F022F8BF
:101B40000746012F02D0022F06D102E0FFF7AAFDBF
:101B500008E0FFF7B7F805E01448006808B10DF099
:101B6000E1F800BF00BFDAE7500000204261756471
:101B7000726174653A2564202020416464723A25BC
:101B80007800000054000020E00A002052656D61DA
:101B9000696E4E756D3A2564202020204C6576656F
:101BA0006C3A25640000000060000020180121420A
:101BB00008B53548806940F01000334988613348E2
:101BC000006820F0F000314908600846006840F0E5
:101BD000300008600846C06840F00200C86008464F
:101BE000406820F4700048600846406840F44010A7
:101BF00048600846C06840F40050C860FFF796FA95
:101C000000202349086014200CF03AFB01202149F0
:101C1000C1F8B40132200CF033FB00208DF8000035
:101C20000122694600F038F901226946A42000F03B
:101C300033F916208DF8000001226946802000F05B
:101C40002BF90C208DF8000001226946882000F055
:101C500023F902226946A12000F024F89DF8000033
:101C600030280ED19DF8010003280AD19DF801000B
:101C70009DF8002000EB022107A0FEF7F5FA0020F6
:101C800008BD0120FCE700000010024000100140E8
:101C9000B4012242000022424354502049443A25D4
:101CA000780D0A002DE9F04106460F461546FFF76C
:101CB000EFFA7020FFF7BCFAFFF734FBF0B2FFF742
:101CC000B7FAFFF72FFBFFF7E3FA7120FFF7B0FA3F
:101CD000FFF728FB00240BE0691EA14201D001217F
:101CE00000E000210846FFF76DFA3855601CC4B2C9
:101CF000AC42F1DBFFF7F2FABDE8F08171B581B0DB
:101D00000024002661480078401C6049087008469D
:101D100000780A2190FBF1F201FB120018B15B4838
:101D200000780A2867DA012201A90220FFF7BAFF2A
:101D30009DF8040000F00F0000287ED09DF80400FC
:101D400000F00F00062878DA9DF8040000F00F017B
:101D5000FF208840C5B2E843C0B240F0C0004C4903
:101D600081F8200000245AE0494890F82000012121
:101D7000A1400840F0B3474931F8140004226946F5
:101D8000FFF790FF424890F8300000F00100C0B12A
:101D90009DF801009DF8001001F00F0100EB0120FB
:101DA0003B49163121F814009DF803009DF80210FC
:101DB00001F00F0100EB012135480C3020F8141020
:101DC0001DE09DF801009DF8001001F00F0100EBEF
:101DD0000120C0F5F07081B22D480C3020F81410AD
:101DE0009DF803009DF8021001F00F0100EB0121A6
:101DF000274801E011E020E0163020F814109DF88B
:101E0000000000F0F000802807D0002120481630A4
:101E100020F814100A3820F81410601CC4B2052CE5
:101E2000A2DB01261A48808920B91948C08A08B95E
:101E3000002001900020154908709DF8040000F072
:101E40001F00D0B9124890F8200000F0800040B187
:101E50000F4890F8200020F080000D4981F8200004
:101E60000BE04FF6FF700A498881C882084690F857
:101E7000200000F0E00081F8200004480078F028FD
:101E800002DD0A200149087030467CBD4C0000206C
:101E9000140000205C2801082DE9F04105460E469B
:101EA00017464FF00008FFF7F3F97020FFF7C0F96D
:101EB000FFF738FAE8B2FFF7BBF9FFF733FA00246F
:101EC0000BE0305DFFF7B4F9FFF72CFA8046B8F16C
:101ED000000F00D003E0601CC4B2BC42F1DB00BFC5
:101EE000FFF7FCF94046BDE8F08138B50024002535
:101EF00037E0AA210020FEF7CDFC04464CB3012CAC
:101F000002D14FF6FF7038BD032C02D14FF47F4051
:101F1000F9E7032C09DD0D2C07DA632D05DA05EB53
:101F2000850004EB4000C01E85B20D2C03D10A20B1
:101F300095FBF0F085B20E2C07D1632D05DA05EB89
:101F400085004FF6FF7101EA40050F2C01D12846AC
:101F5000D9E7102006232A46B12100905F2006F021
:101F6000ABFDC6E71CB54248806940F0100040490F
:101F700088614048006820F0F0003E49086008464B
:101F8000006840F0300008600846C06840F0020079
:101F9000C8600846406820F4700048600846406801
:101FA00040F4401048600846C06840F40050C860E3
:101FB000FFF7BCF80020304908600A200CF060F9F7
:101FC00001202E49C1F8B4010A200CF059F9294822
:101FD000006820F0F000274908600846006840F0DB
:101FE000800008600846C06820F00200C8606420D5
:101FF0000CF046F90422694648F2401000F054F80B
:1020000000208DF8040069461DA0FEF72DF91FA1E0
:102010006846FEF717FB40BB02208DF80000012246
:10202000694648F2400000F071F90122694648F221
:10203000470000F039F89DF80000602807DA9DF8A5
:10204000001014A0FEF710F9012000F031F90A2069
:102050000CF016F900208DF800000122694648F2C4
:10206000400000F053F900201CBD0120FCE70000F7
:102070000010024000100140B40122420000224240
:102080004354502049443A25730D0A0039313437FE
:102090000000000044656661756C74205665723AF4
:1020A00025640D0A000000002DE9F04105460F46A9
:1020B0001646FFF7EDF82820FFF7BAF8FFF732F9D8
:1020C0002812FFF7B5F8FFF72DF9E8B2FFF7B0F8DF
:1020D000FFF728F9FFF7DCF82920FFF7A9F8FFF749
:1020E00021F900240BE0711EA14201D0012100E082
:1020F00000210846FFF766F83855601CC4B2B442A8
:10210000F1DBFFF7EBF8BDE8F081000031B582B0FC
:102110000024002563480078401C62490870084686
:1021200000780A2190FBF1F201FB120018B15D4822
:1021300000780A287DDA012202A948F24E10FFF742
:10214000B3FF9DF8080000F00F0000286BD09DF849
:10215000080000F00F00062865DA9DF8080000F07E
:102160000F01FF208840C0B200909DF80000C043DE
:10217000C0B240F0C0004C4981F82000002444E087
:10218000494890F820000121A140084020B3474968
:1021900031F81400042201A9FFF786FF424890F8A5
:1021A000300000F00100C0B19DF804009DF805105A
:1021B00000EB012081B23C48163020F814109DF845
:1021C00006009DF8071000EB0120C0F5487081B2B1
:1021D00035480C3020F8141015E09DF804009DF8E7
:1021E000051000EB012081B22F480C3020F81410AC
:1021F0009DF806009DF8071000EB012081B22A48E7
:10220000163020F81410601CC4B2052CB8DB012570
:102210002548808920B92448C08A08B90020029046
:102220000020204908709DF8080000F0800000B1EF
:1022300000E00DE09DF8080000F00F00062807DA26
:10224000002000900122694648F24E1000F05EF82E
:102250009DF8080000F08F0080281AD1124890F8ED
:10226000200000F0800040B10F4890F8200020F0DE
:1022700080000D4981F820000BE04FF6FF700A49FD
:102280008881C882084690F8200000F0E00081F8BC
:10229000200004480078F02802DD0A200149087077
:1022A00028463EBD4D000020140000201E290108D4
:1022B00038B50546002400208DF800008DF8015047
:1022C00000BF09E09DF800000F49095D0844C0B255
:1022D0008DF80000601CC4B2B82CF3D39DF8000048
:1022E000C043401CC0B28DF80000B822064948F235
:1022F000470000F00BF80222694648F2FF0000F0A8
:1023000005F8002038BD0000662801082DE9F041DD
:1023100004460E4617464FF00008FEF7B9FF282086
:10232000FEF786FFFEF7FEFF2012FEF781FFFEF7A5
:10233000F9FFE0B2FEF77CFFFEF7F4FF00250BE0AB
:10234000705DFEF775FFFEF7EDFF8046B8F1000FF8
:1023500000D003E0681CC5B2BD42F1DB00BFFEF750
:10236000BDFF4046BDE8F0810EB5002069490880F8
:102370002723EF22194601F06BFD5523EF22194662
:10238000002001F065FD8B23EF221946002001F0AB
:102390005FFDC723EF221946002001F059FD40F2EE
:1023A0000313EF221946002001F052FD40F23F13C3
:1023B0003B228B21104601F04BFD40F23F13772268
:1023C0000021104601F044FD40F23F13B3228B215F
:1023D000104601F03DFD00204E49088010214EA21C
:1023E0000B46CDE900210290F0220A21142008F0CA
:1023F000BFFF002010214BA20B46CDE90021029027
:10240000F0223821142008F0B3FF0020102148A248
:102410000B46CDE900210290F0226921142008F03A
:10242000A7FF0020102145A20B46CDE90021029014
:10243000F0226921A52008F09BFF0020102141A275
:102440000B46CDE900210290F022A521C32008F01F
:102450008FFF00202F490880102001230022A22195
:1024600000901A2006F028FB102001231A46A22112
:102470000090562006F020FB102001230222A2210A
:102480000090922006F018FB102001230322DE2189
:1024900000901A2006F010FB102001230422DE21F8
:1024A0000090562006F008FB102001230522DE21B3
:1024B0000090922006F000FB102001230622DE216E
:1024C0000090CE2006F0F8FA1020012307224FF4E6
:1024D0008D7100901A2006F0EFFA102001230822D7
:1024E0004FF48D710090562006F0E6FA102001237B
:1024F00009224FF48D710090922006F0DDFA002041
:1025000010232E224FF48D710090CE2006F040FA59
:102510000EBD00000A000020D7A8D2B5B0E0BCB6BE
:1025200000000000CAB5D1E9B1E0BAC50000000062
:10253000CDCBB3F6B3CCD0F200000000C8B7B6A83C
:1025400000000000D6D8CAE4000000000EB54CF22E
:10255000FF7001F059FB0120102125A20B46CDE9A7
:1025600000210290F0227821552008F001FF01207F
:10257000102121A20B46CDE900210290F0229621E4
:10258000232008F0F5FE31E021484168002088470B
:102590001F4890F8200000F08000C0B11C488089DE
:1025A000002817DD1A488089F02813DA1848C08AF5
:1025B00000280FDD1648C08AB0F5A07F0ADA01E0D6
:1025C00009F0C4FB134800680028F9D002E00A2093
:1025D0000BF056FE1048007810B907F0ABFE05E08E
:1025E0004CF2FF7001F010FB09F0CCF9CCE70000D1
:1025F000C7EBCBA2BFA80000B4A5C3FEC8CED2BB18
:10260000B5E3B7B5BBD8D6F7B2CBB5A5000000008F
:102610001400002004012242B20300200EB5002065
:10262000694908802723EF22194601F011FC552340
:10263000EF221946002001F00BFC8B23EF221946F4
:10264000002001F005FCC723EF221946002001F00D
:10265000FFFB40F20313EF221946002001F0F8FBC4
:1026600040F23F133B228B21104601F0F1FB40F278
:102670003F1377220021104601F0EAFB40F23F139E
:10268000B3228B21104601F0E3FB00204E49088065
:1026900010214EA20B46CDE900210290F0220A2122
:1026A000142008F065FE002010214BA20B46CDE956
:1026B00000210290F0223821142008F059FE002059
:1026C000102148A20B46CDE900210290F022692199
:1026D000142008F04DFE0020102145A20B46CDE944
:1026E00000210290F0226921A52008F041FE00207F
:1026F000102141A20B46CDE900210290F022A52134
:10270000C32008F035FE00202F4908801020012347
:102710000022A22100901A2006F0CEF910200123F9
:102720001A46A2210090562006F0C6F91020012377
:102730000222A2210090922006F0BEF9102001236F
:102740000322DE2100901A2006F0B6F910200123A2
:102750000422DE210090562006F0AEF9102001235D
:102760000522DE210090922006F0A6F91020012318
:102770000622DE210090CE2006F09EF910200123D3
:1027800007224FF48D7100901A2006F095F9102061
:10279000012308224FF48D710090562006F08CF929
:1027A0001020012309224FF48D710090922006F031
:1027B00083F9002010232E224FF48D710090CE203B
:1027C00006F0E6F80EBD00000A000020C6BDCAB142
:1027D000B3C9BCA800000000CAB5D1E9B3C9BCA800
:1027E00000000000CDCBB3F6B3CCD0F20000000067
:1027F000C8B7B6A800000000D6D8CAE400000000A0
:102800000EB500244CF2FF7001F0FEF901201021FA
:1028100046A20B46CDE900210290F02278215520F6
:1028200008F0A6FD0120102142A20B46CDE90021AF
:102830000290F0229621232008F09AFD75E043488B
:10284000416800208847414890F8200000F080004F
:10285000C0B13E488089002817DD3C488089F028B7
:1028600013DA3A48C08A00280FDD3848C08AB0F52C
:10287000A07F0ADA01E009F069FA3548006800280B
:10288000F9D002E00A200BF0FBFC3248007810B9C6
:1028900007F050FD49E000242CE02F480078C4EBFD
:1028A000C4012E4A12F82110884221D12A484078CA
:1028B000C4EBC40102EB81014978884218D1264853
:1028C0008078C4EBC40102EB8101897888420FD182
:1028D0002148C078C4EBC40102EB8101C978884269
:1028E00006D11F48047001201E4908700AF006F83E
:1028F000601CC4B21E2CD0DB4CF2FF7001F084F9D6
:102900000120102118A20B46CDE900210290F022EF
:102910009621322008F02CFD00200E4908704FF45B
:102920007A700BF0ADFC09F011FA88E7C7EBCBA287
:10293000BFA80000B4A5C3FEC8CED2BBB5E3B7B5EF
:10294000BBD8D6F7B2CBB5A500000000140000201C
:1029500004012242B2030020AE03002030B5002063
:102960009503002096030020CEB4D5D2B5BDB8C3E0
:10297000D0C5CFA2A3A100000EB500BF4CF2FF70DE
:1029800001F042F900209C490880012010219BA2FF
:102990000B46CDE900210290F02205210C2008F021
:1029A000E7FC0120102197A20B46CDE900210290FF
:1029B000F0220521642008F0DBFC0120102193A205
:1029C0000B46CDE900210290F0220521C32008F03A
:1029D000CFFC012010218FA20B46CDE900210290EF
:1029E000F0224FF49771052008F0C2FC012010215D
:1029F0008AA20B46CDE900210290F0224FF4977194
:102A00005A2008F0B5FC0120102187A20B46CDE921
:102A100000210290F0224FF49771BE2008F0A8FC2C
:102A20001823EF221946002001F012FA3123EF2279
:102A30001946002001F00CFA4A23EF221946002023
:102A400001F006FA6323EF221946002001F000FA94
:102A50007C23EF221946002001F0FAF99523EF229A
:102A60001946002001F0F4F9AE23EF2219460020A8
:102A700001F0EEF9C723EF221946002001F0E8F932
:102A8000E023EF221946002001F0E2F9F923EF22BA
:102A90001946002001F0DCF94FF48973EF22194642
:102AA000002001F0D5F940F22B13EF221946002047
:102AB00001F0CEF940F23F133B220021104601F015
:102AC000C7F940F23F13B3220021104601F0C0F9CC
:102AD00091E05748416800208847554890F8200009
:102AE00000F08000C0B152488089002817DD5048AE
:102AF0008089F02813DA4E48C08A00280FDD4C4840
:102B0000C08AB0F5A07F0ADA01E006F063F949480F
:102B100000680028F9D002E00A200BF0B1FB002485
:102B200067E01020009004EBC40000EB041000F1FB
:102B30001D010223621C142005F0BEFF102000902E
:102B4000C4EBC4003C4B13F8202004EBC40000EBA2
:102B5000041000F11D010323462005F0ADFF1020F5
:102B60000090C4EBC400344B03EB8000427804EBCC
:102B7000C40000EB041000F11D0103235E2005F0EA
:102B80009BFF10200090C4EBC4002B4B03EB800094
:102B9000827804EBC40000EB041000F11D01032354
:102BA000762005F089FF10200090C4EBC400224B72
:102BB00003EB8000C27804EBC40000EB041000F1CA
:102BC0001D0103238E2005F077FF10200090C4EB39
:102BD000C400194B03EB8000826904EBC40000EBD6
:102BE000041000F11D010223CD2005F065FF601CDB
:102BF000C4B20B2C95DB6CE70A000020B1E0BAC52B
:102C000000000000BFA8BAC500000000B3C9BCA8FE
:102C100000000000C9CFD2BBD2B30000B7B5BBD80B
:102C2000B2CBB5A500000000CFC2D2BBD2B300002A
:102C3000140000200401224230B500200EB500200F
:102C40003A4908802723EF22194601F001F9812330
:102C5000EF221946002001F0FBF8DB23EF22194692
:102C6000002001F0F5F840F23F13772227211046AB
:102C700001F0EEF81F202D490880012010212CA220
:102C80000B46CDE900210290F0220A21642008F0D1
:102C90006FFB0020102128A20B46CDE900210290F5
:102CA000F0224B211D2008F063FB0020102125A2FB
:102CB0000B46CDE900210290F0224B21952008F02F
:102CC00057FB0020102122A20B46CDE900210290E3
:102CD000F022A5211D2008F04BFB002010211FA28F
:102CE0000B46CDE900210290F022A521952008F0A5
:102CF0003FFB00200D490880012010211AA20B463D
:102D0000CDE900210290F022E6210F2008F030FBEF
:102D10000120102117A20B46CDE900210290F022DC
:102D2000E621872008F024FB0EBD00000A000020E9
:102D3000B2CBB5A5C0B80000B3C9BCA8C2BCC8EB33
:102D400000000000B3C9BCA8D0DEB8C40000000079
:102D5000B3C9BCA8CCE1BDBB00000000B3C9BCA88E
:102D6000B2E9BFB400000000BDF1CCECB5C4CEC2E6
:102D7000B6C80000C8D5C6DABACDCAB1BCE40000F6
:102D80000EB500203A4908802723EF22194601F0AA
:102D90005FF88123EF221946002001F059F8DB2368
:102DA000EF221946002001F053F840F23F1377223A
:102DB0002721104601F04CF81F202D4908800120E2
:102DC00010212CA20B46CDE900210290F0220A210D
:102DD000642008F0CDFA0020102128A20B46CDE98E
:102DE00000210290F0224B211D2008F0C1FA0020A2
:102DF000102125A20B46CDE900210290F0224B21A3
:102E0000952008F0B5FA0020102122A20B46CDE94A
:102E100000210290F022A5211D2008F0A9FA00202F
:102E200010211FA20B46CDE900210290F022A5211E
:102E3000952008F09DFA00200D49088001201021FE
:102E40001AA20B46CDE900210290F022E6210F20C4
:102E500008F08EFA0120102117A20B46CDE90021BF
:102E60000290F022E621872008F082FA0EBD0000D1
:102E70000A000020B2CBB5A5C0B80000CAB5D1E9A0
:102E8000B9DCC0ED00000000B3C9BCA8B9DCC0EDDE
:102E900000000000C8A8CFDEB9DCC0ED00000000D3
:102EA000D6B8CEC6B9DCC0ED00000000BDF1CCEC58
:102EB000B5C4CEC2B6C80000C8D5C6DABACDCAB14C
:102EC000BCE400000EB50223EE221946184600F0BD
:102ED000BFFF4FF49F7302221146104600F0B8FF67
:102EE0002823EE221946782000F0B2FF5023EE226C
:102EF0001946782000F0ACFF7823EE2219461846D8
:102F000000F0A6FF4FF49F73EE220221104600F05E
:102F10009FFF4FF49F73EE221946022000F098FFA6
:102F2000A023EE221946022000F092FFA02378226F
:102F30000221104600F08CFFC823EE221946022021
:102F400000F086FFF023EE221946022000F080FFF9
:102F50004FF48C73EE221946022000F079FF4FF4F3
:102F60009F737822A021104600F072FF01201021EB
:102F700024A20B46CDE900210290F022AC211C20B6
:102F800008F0F6F90120102121A20B46CDE900211D
:102F90000290F022D4211C2008F0EAF9012010212F
:102FA0001EA20B46CDE900210290F022FC211C203C
:102FB00008F0DEF9012010211BA20B46CDE900210B
:102FC0000290F0224FF492712C2008F0D1F90120E8
:102FD000102117A20B46CDE900210290F0224FF4F8
:102FE0009271A32008F0C4F98021842007F0D2FF59
:102FF0001148007810B908F033F901E008F044F8FE
:103000000EBD0000C6BDCAB1B3C9BCA80000000017
:10301000CAB5D1E9B3C9BCA800000000D7EED6D527
:10302000B3C9BCA800000000C8B7B6A800000000E3
:10303000C8A1CFFB00000000960300200EB50020C1
:10304000694908802723EF22194600F001FF552324
:10305000EF221946002000F0FBFE8B23EF221946D9
:10306000002000F0F5FEC723EF221946002000F0F3
:10307000EFFE40F20313EF221946002000F0E8FEB5
:1030800040F23F133B228B21104600F0E1FE40F25C
:103090003F1377220021104600F0DAFE40F23F1382
:1030A000B3228B21104600F0D3FE00204E49088049
:1030B00010214EA20B46CDE900210290F0220A21F8
:1030C000084608F055F9002010214CA20B46CDE926
:1030D00000210290F02238210A2008F049F900204E
:1030E00010214AA20B46CDE900210290F02269216D
:1030F000142008F03DF90020102147A20B46CDE92D
:1031000000210290F0226921A52008F031F9002069
:10311000102143A20B46CDE900210290F022A52107
:10312000C32008F025F900202F4908801020012332
:103130000022A22100901A2005F0BEFC10200123DD
:103140001A46A2210090562005F0B6FC102001235B
:103150000222A2210090922005F0AEFC1020012353
:103160000322DE2100901A2005F0A6FC1020012386
:103170000422DE210090562005F09EFC1020012341
:103180000522DE210090922005F096FC10200123FC
:103190000622DE210090CE2005F08EFC10200123B7
:1031A00007224FF48D7100901A2005F085FC102045
:1031B000012308224FF48D710090562005F07CFC0D
:1031C0001020012309224FF48D710090922005F008
:1031D00073FC002010232E224FF48D710090CE201E
:1031E00005F0D6FB0EBD00000A000020C6BDCAB126
:1031F000B3C9BCA8B1C8C0FD00000000CAB5D1E980
:10320000B3C9BCA8B1C8C0FD00000000CDCBB3F667
:10321000B3CCD0F200000000C8B7B6A80000000090
:10322000D6D8CAE4000000002DE9F05F81460F46C1
:1032300014462046E21704EB5272D2102146E317DF
:1032400004EB5373DB10A4EBC3030BB1012300E0C9
:1032500000231A44624302F0FF0B99F8006009F161
:10326000010081460578812E05DB402D03DBFF2D13
:1032700001D0FF2E0DD14FF0000A06E0002007F824
:10328000010B0AF1010000F0FF0ADA45F6DBBDE8A8
:10329000F09F7F2D03DAA5F14000C5B202E0A5F151
:1032A0004100C5B2A6F18100C6B2BE2000FB0650A7
:1032B00000FB0BF80C2C04D0102C0CD0182C1ED1B9
:1032C00013E01048D0F8090000EB08011822384636
:1032D00007F096FC13E00B48D0F8110000EB080152
:1032E0002022384607F08CFC09E00648D0F8190087
:1032F00000EB08014822384607F082FC00BF00BFFF
:1033000000BFC4E7F8B4002008B564484168002055
:103310008847624890F8200000F08000002875D0AF
:103320005E488089002822DD5C48808977281EDA83
:103330005A48C08A27281ADD5848C08A812816DAD8
:1033400006E00020812377222721009001F014F865
:10335000534800680028F4D04CF2FF708123772294
:1033600027210090002001F007F8012008BD4B48FC
:103370008089772823DD49488089EF281FDA47486C
:10338000C08A27281BDD4548C08A812817DA07E054
:1033900000208123EF2227210090772000F0ECFF0E
:1033A0003F4800680028F3D04CF2FF708123EF22E1
:1033B00027210090772000F0DFFF0220D6E7374872
:1033C0008089002823DD3548808977281FDA334833
:1033D000C08A81281BDD3148C08ADB2817DA06E065
:1033E0000020DB2377228121009000F0C5FF2C48CC
:1033F00000680028F4D04CF2FF70DB237722812193
:103400000090002000F0B8FF0320AFE741E0234820
:103410008089772823DD21488089EF281FDA1F481B
:10342000C08A81281BDD1D48C08ADB2817DA07E027
:103430000020DB23EF2281210090772000F09CFF09
:10344000174800680028F3D04CF2FF70DB23EF220E
:1034500081210090772000F08FFF042086E70F483D
:103460008089002813DD0D488089EF280FDA0B488A
:10347000C08ADB280BDD0948C08AB0F59F7F06DCD7
:1034800000BF074800680028FBD005206EE7002039
:103490006CE70A200AF0F4FE002067E71400002021
:1034A0000401224210B500200F4908600F4840680F
:1034B00020F470400D4948600846406840F4405090
:1034C000486000200A49C1F8AC0102200AF000FF60
:1034D00001200549086002200AF0FAFE0020044994
:1034E000C1F8B00110BD0000B0012242001001403F
:1034F000000022420B48806940F0100009498861B1
:103500000948406820F47F20074948600846406821
:1035100040F44C3048600846C06840F4C050C86071
:1035200070470000001002400010014010B500205C
:103530000F4908600F48406820F470400D4948600A
:103540000846406840F44050486001200A49C1F8EC
:10355000AC0102200AF0BCFE0120054908600220EF
:103560000AF0B6FE00200449C1F8B00110BD000009
:10357000B0012242001001400000224270B5054611
:1035800000241748406820F47040154948600846F8
:10359000406840F400404860002616E000201149D1
:1035A000086002200AF094FE01200F49C1F8B00122
:1035B0006006040E0B488438006808B1601CC4B271
:1035C00001200AF085FE701CC6B2082EE6DB15B994
:1035D000FFF7ACFF01E0FFF765FF204670BD00007C
:1035E00000100140B00122420000224270B50446A2
:1035F0001548406820F47040134948600846406808
:1036000040F440504860002010490860002517E051
:10361000E0090E49091F08606006040E02200AF046
:1036200057FE01200A49C1F8B00102200AF050FEFD
:1036300000200649086002200AF04AFE681CC5B254
:10364000082DE5DB70BD000000100140B0012242F2
:103650000000224210B50F48406820F470400D4928
:1036600048600846406840F44050486001200A49DC
:1036700008600A49C1F8B00104200AF029FE0020C0
:103680000549086004200AF023FE00200349C1F820
:10369000B00110BD00100140AC01224200002242E6
:1036A00010B50F48406820F470400D494860084646
:1036B000406840F44050486000200A4908600A49C8
:1036C000C1F8AC0104200AF003FE0120054908609E
:1036D00004200AF0FDFD01200349C1F8AC0110BD32
:1036E00000100140B00122420000224210B5002427
:1036F0001448406820F47040124948600846406809
:1037000040F40040486001200F4908600AF0E0FDE5
:1037100001200E49C1F8B0010AF0DAFD07E0601C93
:10372000C4B2FA2C03DDFFF7BBFF012010BD064831
:10373000803800680028F2D10349091D086000BFE5
:10374000F4E7000000100140AC01224200002242D8
:1037500001200649086000200549087005490880D5
:10376000054908700549087070470000A001214212
:10377000B2030020A0030020A2030020A303002026
:1037800000B507F05FF906F0C7FA06F03FF906F05A
:1037900043F9412005F052FA00BD00002DE9F04345
:1037A00085B04CF2FF7000F02FFA5B4801785BA007
:1037B000FCF75AFD5E480078012806D0022808D0A0
:1037C00003280AD0042810D10BE05AA0FCF74CFDC6
:1037D0000BE05BA0FCF748FD07E05FA0FCF744FDB1
:1037E00003E061A0FCF740FD00BF00BF50484078F7
:1037F00007281DD2DFE800F01C04080C1014180084
:103800005EA0FCF731FD13E05FA0FCF72DFD0FE09B
:1038100060A0FCF729FD0BE061A0FCF725FD07E0A7
:1038200062A0FCF721FD03E063A0FCF71DFD00BFD3
:1038300000BF64A0FCF718FD002430E0C4EBC40016
:10384000644901EB80008269C4EBC40001EB800095
:103850004069C4EBC4015F4B03EB81010969C4EB10
:10386000C4035C4D05EB8303DB78CDE90131CDE981
:103870000302C4EBC400294601EB8000807800906D
:10388000C4EBC40001EB80004378C4EBC40011F822
:103890002020611C50A0FCF7E7FC601CC4B21E2C69
:1038A000CCDBA823C8229821282000F049FB002463
:1038B0001BE020460CF088FD07464D4A4D4B0CF0AE
:1038C000D3FD05460CF00CFD29301FFA80F94FF4AA
:1038D000FC60A7234A4699210090292000F04CFD66
:1038E0000A200AF0CDFC601CC4B2322CE1DB0120BE
:1038F000102141A20B46CDE900210290F022AC211B
:10390000502007F035FD4FF47A700AF0B9FC08F04A
:103910001DFA05B0BDE8F08385030020CAB5D1E9E2
:10392000B1E0BAC5A3BA303025640D0A000000002A
:1039300092030020D7A8D2B53A20B2E2BFD8000047
:10394000D7A8D2B5A3BAB5E7C6F8BCB0C6E4D7D4F9
:10395000B6AFBBAF00000000D7A8D2B5A3BAD7D48A
:10396000B6AFBBAF00000000D7A8D2B5A3BAB5E789
:10397000D7D3D0C5CFA2B9A4B3CC000031333031F6
:10398000B0E00D0A0000000031333032B0E00D0A23
:103990000000000031333033B0E00D0A00000000B9
:1039A00031333034B0E00D0A0000000031333035DF
:1039B000B0E00D0A0000000031333036B0E00D0AEF
:1039C00000000000B3C9BCA8D0C5CFA2A3BA0D0A9D
:1039D0000000000030B50020256409256425642519
:1039E0006425640925640925640925640D0A00001D
:1039F0009A99999999990940B3C9BCA8D2D1CCE1B7
:103A0000BDBBA3A1000000000146CA1701EB9272E2
:103A10009210A1EB820292B9642091FBF0F200FBBC
:103A2000121050B94FF4C87091FBF0F200FB121065
:103A300008B9012070470020FCE70120FAE70020C8
:103A4000F8E7000001464906084A926942F001027F
:103A5000064B9A61064A526822F0E062044B5A60B3
:103A60001A4652680A435A6070470000001002402C
:103A7000000001407CB50546EF208DF800000120D4
:103A80008DF801001A480068000E8DF802001848F1
:103A90000068000C8DF8030015480088000A8DF8B6
:103AA0000400134800788DF8050007208DF8060003
:103AB00000208DF807000F49088012E001200AF06D
:103AC000DFFB0C48008800F4004050B10020094999
:103AD000088069460848FCF783FD04460CB120467F
:103AE0007CBD681E80B2051EE8D100BFF8E700006B
:103AF000500000204A0000209E04002010B51E48FF
:103B0000806940F004001C4988610846806940F0E3
:103B1000100088610120FFF795FF1848006820F029
:103B20000F00164908600846006840F00800086069
:103B3000081D006820F07040091D086008460068F4
:103B400040F0004008600D480C30006840F4004030
:103B50000A490C3108600A48006820F470000849DE
:103B600008600846006840F4000008600846C06825
:103B700040F02000C86010BD001002400008014065
:103B80000010014010B5044614B101201B49087013
:103B90001A48007808B31A48006838B11948006814
:103BA00020B118483C380068012816D10A200AF0D4
:103BB00067FB0020114908701148006808B901200E
:103BC00010BD1048006808B90220F9E70D483C38DC
:103BD0000068012810D10320F2E709480068012895
:103BE0000AD108480068012806D106483C38006818
:103BF00010B90120014908700020E1E70E00002003
:103C0000140122423C01214270B5044600261D48A1
:103C10000588408845431B48808846F60401884251
:103C200016D118488079012812D1002015498871D1
:103C30002A2048812B2088810021084604F0CAFCF4
:103C40000120104988712B2048812A20888103E0B7
:103C50000021084604F0BEFC04F0D0FF00260DE071
:103C60004FF48070084908614000486107480460CB
:103C700080204861086180000861761CAE42EFD365
:103C800070BD000090040020001001400C0C0140A9
:103C900010B50446002C66D16C498871F02008806C
:103CA0004FF4A07048800846808849F2413188422C
:103CB0000BD06648808846F60401884205D06348E8
:103CC000808845F2103188421AD12C205F49088142
:103CD0002A2048812B2088810846808846F60401E6
:103CE000884205D05948808845F21031884206D173
:103CF0004FF4A070554908804FF4F0704880A1E05F
:103D00005248808845F21051884210D14FF430500B
:103D10004E4908814FF4285048814FF42C50888137
:103D20004FF4F07008804FF4487048808AE04748AC
:103D3000808841F6631188420DD12C2043490881C7
:103D40002B2048812A2088814FF4F07008804FF49E
:103D50004870488076E022203C4908812020488134
:103D6000212088816EE00120384988714FF4A070CD
:103D70000880F02048800846808849F24131884216
:103D800005D03248808845F21031884207D12C2076
:103D90002E4908812A2048812B2088813FE02B482A
:103DA000808846F60401884207D12C2027490881E3
:103DB0002B2048812A20888131E02448808845F2E0
:103DC0001051884210D14FF43050204908814FF4EF
:103DD000285048814FF42C5088814FF44870088057
:103DE0004FF4F07048801AE01848808841F663115B
:103DF00088420DD12C20154908812A2048812B208A
:103E000088814FF4487008804FF4F070488006E0D5
:103E100022200E49088121204881202088810B48DA
:103E2000808846F60401884205D00848808845F21B
:103E30001031884206D14FF4F070044908804FF4E5
:103E4000A0704880002004F099F910BD9004002073
:103E50002DE9FF4F84B081468A46002003900290EE
:103E60000698A0EB09050798A0EB0A06CDF8049088
:103E7000CDF800A0002D01DD012705E00DB90027D8
:103E800002E04FF0FF376D42002E02DD4FF00108D7
:103E900006E016B94FF0000802E04FF0FF38764216
:103EA000B54201DD2C4600E034464FF0000B21E026
:103EB000009A91B2019A90B200F022F80398284437
:103EC00003900298304402900398A04205DD0398C5
:103ED000001B03900198384401900298A04205DD30
:103EE0000298001B02900098404400900BF10100E2
:103EF0001FFA80FB601C8345DADD08B0BDE8F08F57
:103F000030B504460D462946204604F063FB04F014
:103F100075FE4FF48070074908614000486106480B
:103F200000880649086080200249486108618000D5
:103F3000086130BD001001400A0000200C0C014057
:103F4000F0B504460D4616461F462B463246294616
:103F50002046FFF77DFF3B46224629462046FFF7D5
:103F600077FF3B46324639462046FFF771FF3B4616
:103F7000324629463046FFF76BFFF0BD2DE9F0438E
:103F800006460F469046002445460320A0EB48090C
:103F90003CE07A1B91B2321990B2FFF7B1FF3A1BA5
:103FA00091B2721990B2FFF7ABFF3A1991B2721940
:103FB00090B2FFF7A5FF7A1991B2321990B2FFF7CC
:103FC0009FFF7A1991B2321B90B2FFF799FF3A190D
:103FD00091B2721B90B2FFF793FF7A1B91B2321B22
:103FE00090B2FFF78DFF3A1B91B2721B90B2FFF7B0
:103FF00087FF641CB9F1000F03DAA000801D814423
:1040000004E0601B80000A3081446D1EAC42C0DDBC
:10401000BDE8F08370B504460D461646D348808847
:1040200049F24131884205D0D048808845F21031AC
:10403000884240D1CD49488904F0CEFD4FF48070CC
:10404000CB490861400048612012CA4908608020BD
:10405000C74948610861800008614010086140005C
:104060004861E0B2C34908608020C14948610861E5
:1040700080000861BD49888904F0AEFD4FF480706E
:10408000BB490861400048612812BA490860802095
:10409000B74948610861800008614010086140002C
:1040A0004861E8B2B34908608020B14948610861BD
:1040B000800008613DE1AD48808845F2105188429A
:1040C00050D1AA49488904F087FD4FF48070A8496F
:1040D0000861400048612012A64908608020A44978
:1040E0004861086180000861A0494989491C88B27B
:1040F00004F072FD4FF480709D49086140004861F2
:10410000E0B29C49086080209949486108618000BC
:1041100008619649888904F05FFD4FF480709449E6
:104120000861400048612812924908608020904947
:1041300048610861800008618C498989491C88B2FE
:1041400004F04AFD4FF480708949086140004861DD
:10415000E8B288490860802085494861086180008C
:104160000861E6E08148808841F6631188427DD18C
:104170007E48807920B97D480088401E001B84B2AB
:104180007A49488904F028FD4FF480707849086125
:1041900040004861201277490860802074494861D6
:1041A0000861800008614010086140004861E0B289
:1041B0007049086080206E4948610861800008618C
:1041C000401008614000486120126A490860802060
:1041D000674948610861800008614010086140003B
:1041E0004861E0B263490860802061494861086124
:1041F000800008615D49888904F0EEFC4FF480700E
:104200005B4908614000486128125A4908608020D3
:10421000574948610861800008614010086140000A
:104220004861E8B2534908608020514948610861FB
:1042300080000861401008614000486128124D4923
:10424000086080204A494861086180000861401088
:10425000086140004861E8B246490860802044494E
:10426000486108618000086163E0FFE73F4880889B
:1042700046F60401884249D13C488079012804D19E
:104280003A480088401E001B84B23849488904F02F
:10429000A3FC4FF480703649086140004861201249
:1042A0003449086080203249486108618000086113
:1042B0004010086140004861E0B22E49086080204B
:1042C0002B4948610861800008612849888904F009
:1042D00083FC4FF480702649086140004861281231
:1042E00024490860802022494861086180000861F3
:1042F0004010086140004861E8B21E490860802013
:104300001B49486108618000086112E01748807904
:10431000012804D115480088401E001B84B21349AF
:104320004889214604F072FC10498889294604F026
:104330006DFC4FF480700E494861400048610B48A5
:1043400000890C49086080200949486108618000A3
:1043500008614010086140004861064806608020FE
:10436000486108618000086170BD00009004002071
:10437000001001400C0C01402DE9FC4F05460E4693
:1043800017469846DDF82C90002001902C48808834
:1043900046F60401884229D129488079012825D18F
:1043A000AB46354626480088C01B401E86B24746AD
:1043B00023480088A0EB0B00401E1FFA80F8002065
:1043C0001F4988712A2048812B20888143463A461C
:1043D00031462846CDF80090FFF7CEFF012018495E
:1043E00088712B2048812A20888127E0781B401C77
:1043F00080B2019034461FE02146284604F0EAF8D6
:1044000004F0FCFB4FF0000A11E04FF480700D49FE
:104410000861400048610C48C0F800908020486165
:104420000861800008610AF101001FFA80FA019812
:104430008245EADB601C84B24445DDDDBDE8FC8FCB
:1044400090040020001001400C0C014010B5FE4803
:10445000806940F00800FC4988610846806940F0A6
:10446000100088610846806940F0010088610120E1
:10447000FFF7E8FAF54840686FF30B00F34948602E
:104480000846406840F233310843F0494860084626
:10449000006820F07F4008600846006840F04C50FB
:1044A00008600846C06840F4F860C8604FF03330D8
:1044B000E7490860091F08604FF6FF70E4490831BA
:1044C0000860322009F0DCFE0121002004F09EFB90
:1044D000322009F0D5FE002003F0DEFDDD498880A2
:1044E00008468088FF280ADB084680884FF6FF715F
:1044F000884204D0D7488088B0F5134F7ED1D320AE
:1045000004F06AFB03F090FD03F08EFD03F08CFDD8
:10451000D0498880084680884FF6FF7101EA002064
:10452000CC49888003F080FDCA4989880843C9497D
:1045300088800846808849F2413188425ED0BF2099
:1045400004F04AFB03F070FD03F06EFD03F06CFD18
:1045500003F06AFDBF498880084680884FF6FF71E6
:1045600001EA0020BB49888003F05EFDB9498988D3
:104570000843B84988800846808846F60401884286
:1045800074D0D42004F028FB03F04EFD03F04CFD62
:1045900003F04AFDAF498880084680884FF6FF71D6
:1045A00001EA0020AB49888003F03EFDA9498988D3
:1045B0000843A84988800846808845F2103188421F
:1045C00054D04FF45A4004F007FB03F02DFD4FF494
:1045D0005B4004F001FB03F027FD9E4988800846FC
:1045E00080884FF6FF7101EA00209A4988804FF4D5
:1045F0005C4004F0F1FA03F017FD00E036E0954965
:10460000898808439349888008468088B0F5004F20
:1046100002D145F2105088808E48808845F21051B2
:10462000884223D0A12004F0D7FA03F0FDFC894989
:10463000888003F0F9FC87498880084680884FF617
:10464000FF7101EA00208349888003F0EDFC814975
:10465000898808437F4988800846808845F26171CF
:10466000884203D141F663107A498880794880886E
:1046700049F2413188427CD1CF2004F0ADFA0020CC
:1046800004F098FAC12004F095FA302004F092FA70
:10469000ED2004F0A1FA642004F08CFA032004F069
:1046A00089FA122004F086FA812004F083FAE820C7
:1046B00004F092FA852004F07DFA102004F07AFAD2
:1046C0007A2004F077FACB2004F086FA392004F03F
:1046D00071FA2C2004F06EFA002004F06BFA3420FA
:1046E00004F068FA022004F065FAF72004F074FA86
:1046F000202004F05FFAEA2004F06EFA002004F0B3
:1047000059FA002004F056FAC02004F065FA1B2084
:1047100004F050FAC12004F05FFA012004F04AFAD4
:10472000C52004F059FA302004F044FA302004F097
:1047300041FAC72004F050FAB72004F03BFA3620C3
:1047400004F04AFA482004F035FA3A2004F044FA1A
:10475000552004F02FFAB12004F03EFA002004F0B6
:1047600029FA1A2004F026FAB62004F035FA0A20B5
:1047700000E0A2E004F01EFAA22004F01BFAF220EE
:1047800004F02AFA002004F015FA262004F024FA96
:10479000012004F00FFAE02004F01EFA0F2004F0CC
:1047A00009FA2A2004F006FA282004F003FA082067
:1047B00004F000FA0E2004F0FDF9082004F0FAF9E4
:1047C000542004F0F7F9A92004F0F4F9432004F090
:1047D000F1F90A2004F0EEF90F2004F0EBF90020C3
:1047E00004F0E8F9002004F0E5F9002004F0E2F913
:1047F000002004F0DFF9E12004F0EEF9002004F0DD
:10480000D9F9152004F0D6F9172004F0D3F90720C0
:1048100004F0D0F9112004F0CDF9062004F0CAF913
:104820002B2004F0C7F9562004F0C4F93C2004F012
:10483000C1F9052004F0BEF9102004F0BBF90F20E7
:1048400004F0B8F93F2007E00010024000100140DA
:10485000040C01409004002004F0ACF93F2004F067
:10486000A9F90F2004F0A6F92B2004F0B5F90020D7
:1048700004F0A0F9002004F09DF9012004F09AF959
:104880003F2004F097F92A2004F0A6F9002004F054
:1048900091F9002004F08EF9002004F08BF9EF204C
:1048A00004F088F9112004F097F9782009F0E8FC69
:1048B000292004F091F903F09ABBFE48808846F65F
:1048C000040188427ED1112004F086F9142009F0F9
:1048D000D7FCD02004F080F9072004F06BF94220C7
:1048E00004F068F91D2004F065F9D12004F074F992
:1048F000002004F05FF91A2004F05CF9092004F0AC
:1049000059F9D22004F068F9012004F053F922206B
:1049100004F050F9C02004F05FF9102004F04AF9C7
:104920003B2004F047F9002004F044F9022004F091
:1049300041F9112004F03EF9C52004F04DF903209F
:1049400004F038F9C82004F047F9002004F032F9E7
:10495000252004F02FF9212004F02CF9052004F083
:1049600029F9002004F026F90A2004F023F9652033
:1049700004F020F9252004F01DF9772004F01AF93D
:10498000502004F017F90F2004F014F9002004F06F
:1049900011F9F82004F020F9012004F00BF9FE20B1
:1049A00004F01AF9002004F005F9022004F002F9DD
:1049B000202004F011F9362004F00EF9082004F04C
:1049C000F9F800E02AE03A2004F006F9552004F056
:1049D000F1F82B2004F000F9002004F0EBF800209F
:1049E00004F0E8F8012004F0E5F83F2004F0E2F8D4
:1049F0002A2004F0F1F8002004F0DCF8002004F094
:104A0000D9F8012004F0D6F8DF2004F0D3F878209C
:104A100009F036FC292004F0DFF84CE7A54880882F
:104A200045F21031884240F07C87ED2004F0D4F844
:104A3000012004F0BFF8FE2004F0BCF8EE2004F0E2
:104A4000CBF8DE2004F0B6F8212004F0B3F8F12012
:104A500004F0C2F8012004F0ADF8DF2004F0BCF847
:104A6000102004F0A7F8C42004F0B6F88F2004F05A
:104A7000A1F8C62004F0B0F8002004F09BF8E22072
:104A800004F098F8E22004F095F8E22004F092F89F
:104A9000BF2004F0A1F8AA2004F08CF8B02004F0A4
:104AA0009BF80D2004F086F8002004F083F80D2018
:104AB00004F080F8002004F07DF8112004F07AF86A
:104AC000002004F077F8192004F074F8002004F0B6
:104AD00071F8212004F06EF8002004F06BF82D200E
:104AE00004F068F8002004F065F83D2004F062F856
:104AF000002004F05FF85D2004F05CF8002004F072
:104B000059F85D2004F056F8002004F053F8B12065
:104B100004F062F8802004F04DF8002004F04AF818
:104B20008B2004F047F8002004F044F8962004F0AD
:104B300041F8002004F03EF8B22004F04DF80020C7
:104B400004F038F8002004F035F8022004F032F8C0
:104B5000002004F02FF8032004F02CF8002004F0CB
:104B600029F8B32004F038F8002004F023F80020DE
:104B700004F020F8002004F01DF8002004F01AF8DA
:104B8000002004F017F8002004F014F8002004F0CE
:104B900011F8002004F00EF8002004F00BF80020BB
:104BA00004F008F8002004F005F8002004F002F8F2
:104BB000002003F0FFFF002003F0FCFF002003F0C3
:104BC000F9FF002003F0F6FF002003F0F3FF0020C0
:104BD00003F0F0FF002003F0EDFF002003F0EAFFF8
:104BE000002003F0E7FF002003F0E4FF002003F0C3
:104BF000E1FF002003F0DEFFB42003F0EDFF8B2087
:104C000003F0D8FF002003F0D5FF962003F0D2FF79
:104C1000002003F0CFFFA12003F0CCFF002003F021
:104C2000C9FFB52003F0D8FF022003F0C3FF002026
:104C300003F0C0FF032003F0BDFF002003F0BAFF24
:104C4000042003F0B7FF002003F0B4FFB62003F008
:104C5000C3FF002003F0AEFF002003F0ABFFB7203E
:104C600003F0BAFF002003F0A5FF002003F0A2FF2D
:104C70003F2003F09FFF002003F09CFF5E2003F025
:104C800099FF002003F096FF642003F093FF0020BB
:104C900003F090FF8C2003F08DFF002003F08AFFCB
:104CA000AC2003F087FF002003F084FFDC2003F03A
:104CB00081FF01E090040020002003F07BFF7020C2
:104CC00003F078FF002003F075FF902003F072FFDF
:104CD000002003F06FFFEB2003F06CFF002003F0D7
:104CE00069FFDC2003F066FF002003F063FFB820BB
:104CF00003F072FF002003F05DFF002003F05AFF75
:104D0000002003F057FF002003F054FF002003F0C1
:104D100051FF002003F04EFF002003F04BFF002066
:104D200003F048FFBA2003F057FF242003F042FFAE
:104D3000002003F03FFF002003F03CFF002003F0C1
:104D400039FFC12003F048FF202003F033FF00208B
:104D500003F030FF542003F02DFF002003F02AFF62
:104D6000FF2003F027FF002003F024FFC22003F000
:104D700033FF0A2003F01EFF002003F01BFF042076
:104D800003F018FF002003F015FFC32003F024FFF9
:104D90003C2003F00FFF002003F00CFF3A2003F04B
:104DA00009FF002003F006FF392003F003FF002075
:104DB00003F000FF372003F0FDFE002003F0FAFEB1
:104DC0003C2003F0F7FE002003F0F4FE362003F051
:104DD000F1FE002003F0EEFE322003F0EBFE002097
:104DE00003F0E8FE2F2003F0E5FE002003F0E2FED2
:104DF0002C2003F0DFFE002003F0DCFE292003F06E
:104E0000D9FE002003F0D6FE262003F0D3FE0020BA
:104E100003F0D0FE242003F0CDFE002003F0CAFEF4
:104E2000242003F0C7FE002003F0C4FE232003F07B
:104E3000C1FE002003F0BEFE3C2003F0BBFE0020BC
:104E400003F0B8FE362003F0B5FE002003F0B2FEFA
:104E5000322003F0AFFE002003F0ACFE2F2003F061
:104E6000A9FE002003F0A6FE2C2003F0A3FE0020E4
:104E700003F0A0FE292003F09DFE002003F09AFE1F
:104E8000262003F097FE002003F094FE242003F078
:104E900091FE002003F08EFE242003F08BFE002004
:104EA00003F088FE232003F085FE002003F082FE3D
:104EB000C42003F091FE622003F07CFE002003F08A
:104EC00079FE052003F076FE002003F073FE8420B7
:104ED00003F070FE002003F06DFEF02003F06AFE88
:104EE000002003F067FE182003F064FE002003F0AA
:104EF00061FEA42003F05EFE002003F05BFE18209C
:104F000003F058FE002003F055FE502003F052FE3F
:104F1000002003F04FFE0C2003F04CFE002003F0B5
:104F200049FE172003F046FE002003F043FE9520C3
:104F300003F040FE002003F03DFEF32003F03AFEB4
:104F4000002003F037FEE62003F034FE002003F0DB
:104F500031FEC52003F040FE322003F02BFE00207E
:104F600003F028FE442003F025FE002003F022FE7B
:104F7000652003F01FFE002003F01CFE762003F0E6
:104F800019FE002003F016FE882003F013FE002017
:104F900003F010FEC62003F01FFE202003F00AFEDF
:104FA000002003F007FE172003F004FE002003F0AA
:104FB00001FE012003F0FEFD002003F0FBFDC720F1
:104FC00003F00AFE002003F0F5FD002003F0F2FDDF
:104FD000002003F0EFFD002003F0ECFDC82003F0FB
:104FE000FBFD002003F0E6FD002003F0E3FD0020C0
:104FF00003F0E0FD002003F0DDFDC92003F0ECFD2F
:10500000002003F0D7FD002003F0D4FD002003F0C2
:10501000D1FD002003F0CEFD002003F0CBFD0020E9
:1050200003F0C8FD002003F0C5FD002003F0C2FD21
:10503000002003F0BFFD002003F0BCFD002003F0C2
:10504000B9FD002003F0B6FD002003F0B3FD002001
:1050500003F0B0FD002003F0ADFD002003F0AAFD39
:10506000E02003F0B9FD162003F0A4FD002003F0BA
:10507000A1FD1C2003F09EFD002003F09BFD2120DC
:1050800003F098FD002003F095FD362003F092FD1B
:10509000002003F08FFD462003F08CFD002003F07C
:1050A00089FD522003F086FD002003F083FD64207B
:1050B00003F080FD002003F07DFD7A2003F07AFDEF
:1050C000002003F077FD8B2003F074FD002003F037
:1050D00071FD992003F06EFD002003F06BFDA82008
:1050E00003F068FD002003F065FDB92003F062FDC8
:1050F000002003F05FFDC42003F05CFD002003F0FE
:1051000059FDCA2003F056FD002003F053FDD220C4
:1051100003F050FD002003F04DFDD92003F04AFDBF
:10512000002003F047FDE02003F044FD002003F0E1
:1051300041FDF32003F03EFD002003F03BFDE120A4
:1051400003F04AFD162003F035FD002003F032FD88
:105150001C2003F02FFD002003F02CFD222003F083
:1051600029FD002003F026FD362003F023FD00205A
:1051700003F020FD452003F01DFD002003F01AFD83
:10518000522003F017FD002003F014FD642003F00B
:1051900011FD002003F00EFD7A2003F00BFD00202E
:1051A00003F008FD8B2003F005FD002003F002FD55
:1051B000992003F0FFFC002003F0FCFCA82003F082
:1051C000F9FC002003F0F6FCB92003F0F3FC00200A
:1051D00003F0F0FCC42003F0EDFC002003F0EAFC37
:1051E000CA2003F0E7FC002003F0E4FCD22003F027
:1051F000E1FC002003F0DEFCD82003F0DBFC002003
:1052000003F0D8FCE02003F0D5FC002003F0D2FC32
:10521000F32003F0CFFC002003F0CCFCE22003F0ED
:10522000DBFC052003F0C6FC002003F0C3FC0B20D0
:1052300003F0C0FC002003F0BDFC1B2003F0BAFC0F
:10524000002003F0B7FC342003F0B4FC002003F08E
:10525000B1FC442003F0AEFC002003F0ABFC4F2077
:1052600003F0A8FC002003F0A5FC612003F0A2FCE1
:10527000002003F09FFC792003F09CFC002003F049
:1052800099FC882003F096FC002003F093FC972003
:1052900003F090FC002003F08DFCA62003F08AFCB4
:1052A000002003F087FCB72003F084FC002003F00B
:1052B00081FCC22003F07EFC002003F07BFCC720B1
:1052C00003F078FC002003F075FCD12003F072FCA1
:1052D000002003F06FFCD62003F06CFC002003F0EC
:1052E00069FCDD2003F066FC002003F063FCF32082
:1052F00003F060FC002003F05DFCE32003F06CFC95
:10530000052003F057FC002003F054FC0A2003F0B2
:1053100051FC002003F04EFC1C2003F04BFC00204D
:1053200003F048FC332003F045FC002003F042FC6E
:10533000442003F03FFC002003F03CFC502003F02D
:1053400039FC002003F036FC622003F033FC00201F
:1053500003F030FC782003F02DFC002003F02AFC41
:10536000882003F027FC002003F024FC972003F0A2
:1053700021FC002003F01EFCA62003F01BFC0020F3
:1053800003F018FCB72003F015FC002003F012FC1A
:10539000C22003F00FFC002003F00CFCC72003F038
:1053A00009FC002003F006FCD12003F003FC0020E0
:1053B00003F000FCD52003F0FDFB002003F0FAFB16
:1053C000DD2003F0F7FB002003F0F4FBF32003F0F3
:1053D000F1FB002003F0EEFBE42003F0FDFB0120D5
:1053E00003F0E8FB002003F0E5FB012003F0E2FB03
:1053F000002003F0DFFB022003F0DCFB002003F0C1
:10540000D9FB2A2003F0D6FB002003F0D3FB3C207D
:1054100003F0D0FB002003F0CDFB4B2003F0CAFBD0
:10542000002003F0C7FB5D2003F0C4FB002003F065
:10543000C1FB742003F0BEFB002003F0BBFB842003
:1054400003F0B8FB002003F0B5FB932003F0B2FBA0
:10545000002003F0AFFBA22003F0ACFB002003F020
:10546000A9FBB32003F0A6FB002003F0A3FBBE20A2
:1054700003F0A0FB002003F09DFBC42003F09AFB87
:10548000002003F097FBCD2003F094FB002003F0F5
:1054900091FBD32003F08EFB002003F08BFBDD207B
:1054A00003F088FB002003F085FBF32003F082FB70
:1054B000002003F07FFBE52003F08EFB002003F0CB
:1054C00079FB002003F076FB002003F073FB002043
:1054D00003F070FB022003F06DFB002003F06AFB79
:1054E000292003F067FB002003F064FB3C2003F05D
:1054F00061FB002003F05EFB4B2003F05BFB002010
:1055000003F058FB5D2003F055FB002003F052FB35
:10551000742003F04FFB002003F04CFB842003F0C9
:1055200049FB002003F046FB932003F043FB0020DF
:1055300003F040FBA22003F03DFB002003F03AFB08
:10554000B32003F037FB002003F034FBBE2003F050
:1055500031FB002003F02EFBC42003F02BFB0020C6
:1055600003F028FBCD2003F025FB002003F022FBF5
:10557000D32003F01FFB002003F01CFBDC2003F012
:1055800019FB002003F016FBF32003F013FB0020AF
:1055900003F010FBE62003F01FFB112003F00AFBD1
:1055A000002003F007FB342003F004FB002003F08D
:1055B00001FB562003F0FEFA002003F0FBFA7620F0
:1055C00003F0F8FA002003F0F5FA772003F0F2FA7E
:1055D000002003F0EFFA662003F0ECFA002003F05D
:1055E000E9FA882003F0E6FA002003F0E3FA9920B4
:1055F00003F0E0FA002003F0DDFABB2003F0DAFA52
:10560000002003F0D7FA992003F0D4FA002003F029
:10561000D1FA662003F0CEFA002003F0CBFA552031
:1056200003F0C8FA002003F0C5FA552003F0C2FACF
:10563000002003F0BFFA452003F0BCFA002003F07D
:10564000B9FA432003F0B6FA002003F0B3FA44207D
:1056500003F0B0FA002003F0ADFAE72003F0BCFA43
:10566000322003F0A7FA002003F0A4FA552003F03B
:10567000A1FA002003F09EFA762003F09BFA0020A6
:1056800003F098FA662003F095FA002003F092FAEE
:10569000672003F08FFA002003F08CFA672003F0F4
:1056A00089FA002003F086FA872003F083FA0020AD
:1056B00003F080FA992003F07DFA002003F07AFAD3
:1056C000BB2003F077FA002003F074FA992003F06E
:1056D00071FA002003F06EFA772003F06BFA0020D5
:1056E00003F068FA442003F065FA002003F062FA40
:1056F000562003F05FFA002003F05CFA232003F049
:1057000059FA002003F056FA332003F053FA002030
:1057100003F050FA452003F04DFA002003F04AFA56
:10572000E82003F059FA002003F044FA002003F0C7
:1057300041FA992003F03EFA002003F03BFA87205B
:1057400003F038FA002003F035FA882003F032FA2B
:10575000002003F02FFA772003F02CFA002003F04A
:1057600029FA662003F026FA002003F023FA8820A5
:1057700003F020FA002003F01DFAAA2003F01AFA21
:10578000002003F017FABB2003F014FA002003F006
:1057900011FA992003F00EFA002003F00BFA6620AC
:1057A00003F008FA002003F005FA552003F002FA8E
:1057B000002003F0FFF9552003F0FCF9002003F06E
:1057C000F9F9442003F0F6F9002003F0F3F944203E
:1057D00003F0F0F9002003F0EDF9552003F0EAF9A9
:1057E000002003F0E7F9E92003F0F6F9AA2003F01E
:1057F000E1F9002003F0DEF9002003F0DBF90020DE
:1058000003F0D8F9002003F0E7F9AA2003F0D2F959
:10581000CF2003F0E1F9002003F0CCF9002003F0E1
:10582000C9F9002003F0C6F9002003F0C3F90020F5
:1058300003F0C0F9002003F0BDF9002003F0BAF92D
:10584000002003F0B7F9002003F0B4F9002003F0C2
:10585000B1F9002003F0AEF9002003F0ABF900200D
:1058600003F0A8F9002003F0A5F9002003F0A2F945
:10587000002003F09FF9002003F09CF9F02003F0D2
:10588000ABF9002003F096F9502003F093F90020C3
:1058900003F090F9002003F08DF9002003F08AF95D
:1058A000F32003F099F9002003F084F9F92003F0C4
:1058B00093F9062003F07EF9102003F07BF92920EC
:1058C00003F078F9002003F075F93A2003F084F929
:1058D000552003F06FF9112003F07EF9642008F0E1
:1058E000CFFC292003F078F9352003F075F900206A
:1058F00003F060F9512003F06FF9FF2003F05AF92B
:10590000532003F069F92C2003F054F9552003F0DB
:1059100063F9822003F04EF92C2003F05DF902F0C8
:1059200066BBFE48808845F2105188427ED15521E1
:105930004FF4704003F06AF9AA214FF2010003F01E
:1059400065F952214FF2020003F060F908214FF28D
:10595000030003F05BF901214FF2040003F056F954
:105960000D214FF4304003F051F90D214BF20100AD
:1059700003F04CF90D214BF2020003F047F93421FA
:105980004FF4364003F042F934214BF2016003F04A
:105990003DF934214BF2026003F038F90D214FF448
:1059A000314003F033F90D214BF2011003F02EF9D1
:1059B0000D214BF2021003F029F934214FF4374046
:1059C00003F024F934214BF2017003F01FF9342164
:1059D0004BF2027003F01AF900214FF4324003F049
:1059E00015F900214BF2012003F010F900214BF2D0
:1059F000022003F00BF924214FF4384003F006F99C
:105A000024214BF6010003F001F924214BF602009A
:105A100003F0FCF801214FF43F4003F0F7F80F21A9
:105A20004FF4334003F0F2F80F2100E0FEE34BF2B5
:105A3000013003F0EBF80F214BF2023003F0E6F8EF
:105A400034214FF4394003F0E1F834214BF60110D2
:105A500003F0DCF834214BF6021003F0D7F80821EC
:105A60004FF4354003F0D2F808214BF2015003F017
:105A7000CDF808214BF2025003F0C8F803214FF48F
:105A8000424003F0C3F824214FF43A4003F0BEF83B
:105A900024214BF6012003F0B9F824214BF6022013
:105AA00003F0B4F800214FF43C4003F0AFF8782144
:105AB0004BF6014003F0AAF800214BF6024003F038
:105AC000A5F800214FF43D4003F0A0F878214BF6F3
:105AD000015003F09BF800214BF6025003F096F8BA
