:020000040800F2
:10000000400F00202D0200083102000833020008D2
:10001000350200083702000839020008000000001D
:100020000000000000000000000000003B0200088B
:100030003D020008000000003F02000841020008E5
:10004000430200084302000843020008295F000839
:10005000430200084302000843020008430200086C
:10006000430200084302000843020008430200085C
:10007000430200084302000843020008430200084C
:10008000430200084302000843020008430200083C
:10009000430200084302000843020008430200082C
:1000A000430200084302000843020008430200081C
:1000B000D9610008430200081162000843020008E9
:1000C00043020008430200084302000843020008FC
:1000D00043020008AD6200083163000843020008D3
:1000E00043020008430200084302000843020008DC
:1000F00043020008430200084302000843020008CC
:1001000043020008430200084302000843020008BB
:1001100043020008430200084302000843020008AB
:10012000430200084302000843020008430200089B
:1001300000F002F800F06BF80AA090E8000C82448E
:100140008344AAF10107DA4501D100F060F8AFF26B
:10015000090EBAE80F0013F0010F18BFFB1A43F0A5
:1001600001031847CC800000EC8000000A444FF0E7
:10017000000C10F8013B13F0070408BF10F8014B06
:100180001D1108BF10F8015B641E05D010F8016B4B
:10019000641E01F8016BF9D113F0080F1EBF10F8AF
:1001A000014BAD1C0C1B09D16D1E58BF01F801CBD2
:1001B000FAD505E014F8016B01F8016B6D1EF9D555
:1001C0009142D6D37047000000230024002500266A
:1001D000103A28BF78C1FBD8520728BF30C148BFAA
:1001E0000B607047642900F09B80752900F09880AF
:1001F000782900F0FC80632900F07682732900F0F2
:100200007B82002070471FB51FBD10B510BD00F0E8
:1002100091FA1146FFF7F7FF06F054FA00F0CAF919
:1002200003B4FFF7F2FF03BC06F0D7F80848004715
:10023000FEE7FEE7FEE7FEE7FEE7FEE7FEE7FEE796
:10024000FEE7FEE703480449044A054B70470000F7
:100250003101000840090020400F0020400B002021
:10026000400B0020704700000FB4044910B503AAEA
:10027000029800F045FA10BC5DF814FB0400002061
:1002800070B5044685690068C10601D5302600E0D6
:100290002026C00707D070BDD4E901213046904721
:1002A000206A401C20626D1EF6D570BD70B50446F4
:1002B00085690078C00707D170BDD4E901212020ED
:1002C0009047206A401C20626D1EF6D570BD70B547
:1002D0000C460546012A05D02878800600D5EA6933
:1002E000002302E0012305E05B1C934202D2E05CA4
:1002F0000028F9D1A869E618C01AA861286A18442C
:1003000028622846FFF7BCFF04E0D5E9012114F874
:10031000010B9047B442F8D32846FFF7C7FF70BDE2
:100320002DE9F0410646002410687529314616A5CE
:1003300010D0AFF30080002802DA404213A507E096
:1003400031688A0701D512A502E0490704D511A535
:10035000012401E0AFF3008000210A2206F1240706
:1003600009E0B0FBF2FCB0FBF2F302FB1C00303002
:1003700078541846491C0028F3D123462A463046B3
:10038000BDE8F04100F035B9000000002D0000008C
:100390002B00000020000000F0B40D460188090584
:1003A00002D5214C7C4402E01F4C7C440E340021D9
:1003B00000F1240608E002F00F071209E75D42EAA7
:1003C00003721B097754491C52EA0307F3D10278E0
:1003D0000023120704D5702D06D009B10223113471
:1003E0002246F0BC00F005B901231034F8E770B5DF
:1003F00004460D4621461068AFF3008002462946A8
:100400002046BDE870400023C6E7D21D22F0070356
:10041000D3E90023C0E70368126843F020030360B8
:100420000823C3610023B7E73A7D00002DE9F05FA0
:10043000894604464FF0000ADFF874B1FB44C0F867
:1004400020A02046E1688847002874D0252806D0DF
:10045000D4E901219047206A401C2062F1E7002680
:100460005F462046E16888472028054607DB312D96
:1004700005D2781910F8200C08B10643F1E7B0074F
:1004800001D526F00406C4F81CA00027C4F818A063
:100490002A2D09D0284605F099FF38B304EB8708C8
:1004A000303DC8F8185019E059F8041B204604EBF9
:1004B00087029161E1688847012F054618D1E069FC
:1004C000002820DA26F020061DE0D8F8180000EBFE
:1004D000800005EB40003038C8F818002046E1687D
:1004E0008847054605F072FF0028EED1012F0AD09B
:1004F0002E2D08D12046E16888477F1C0546022F33
:1005000046F02006C4DBA069002803DA404246F02A
:100510000106A061F00701D026F010066C2D0BD06B
:10052000682D09D04C2D39D06A2D35D0742D35D099
:100530007A2D33D016E038E0E1682F462046884710
:10054000B842054609D16C2F26D04FF48060E1688F
:10055000064320468847054604E06C2F1AD04FF426
:10056000807006430DB3A5F14100192802D820354B
:1005700046F400664A462946204626604E46FFF766
:1005800031FE80B101280BD0F61D26F0070000F1E6
:10059000080956E74020E4E78020D8E70020D6E7A6
:1005A00006F104094DE7284652E7206ABDE8F09FAE
:1005B000CA7C000010B50446AFF300802046BDE8B9
:1005C0001040FFF72DBE30B505460B462A4613F8FE
:1005D000014B12F8010B08B1A042F8D01CB1002861
:1005E00002D06D1CF1E7284630BD70477047704758
:1005F00070472DE9F0470D4699469246044600F1B2
:1006000024080168880604D5E06921F01001216002
:1006100000E00120A84201DD471B00E00027A1699E
:100620007A1902EB0900081AA0612078C00602D4EA
:100630002046FFF725FE002608E0D4E901211AF83C
:1006400006009047206A401C761C20624E45F4DB71
:100650002078C0060AD52046FFF712FE06E0D4E94E
:10066000012130209047206A401C2062381EA7F1EB
:100670000107F4DC07E0D4E9012118F805009047F0
:10068000206A401C2062281EA5F10105F3DC2046EB
:10069000FFF70CFE2078000602D50220BDE8F087A7
:1006A0000120FBE701694A1C02610878704700B528
:1006B0008FB0CDE901310021059105497944CDE99B
:1006C000031011466846FFF7B1FE0FB000BD0000F1
:1006D000E5FFFFFF10B5436913B1AFF3008001E000
:1006E000FFF7F5FD012010BD127800F124010A701A
:1006F00000224A700122EDE711684FF0FF32E9E76E
:10070000074B70B50D467B44FFF7D1FF04462846E2
:1007100000F008F810B14FF0FF3070BD204670BDFA
:100720009F5F0000007B00F080007047004870472A
:10073000E00800207546FFF7F9FFAE460500694660
:10074000534620F00700854618B020B5FFF77AFD24
:10075000BDE820404FF000064FF000074FF00008C2
:100760004FF0000B21F00701AC46ACE8C009ACE843
:10077000C009ACE8C009ACE8C0098D4670472DE956
:10078000F0410746884615460421052000F02DF863
:100790000021012005F004FE80210A2005F0C5FC9F
:1007A000002405E0395D092005F0FAFD601CC4B2A3
:1007B0004445F7DB0321012005F0F2FDFF2400BFD3
:1007C000052005F0D5FB0646601EC4B21CB106F03C
:1007D00004000028F4D0222005F0CAFB2870212054
:1007E00005F0C6FB6870BDE8F08170B505460C46A3
:1007F0000026284605F0BCFB064626EA04012846EA
:1008000005F0CEFD70BD0000014621293ED2DFE893
:1008100001F011131517191B1D1F212325273D3D1D
:100820003D3D292B3D3D3D2D3D3D2F313335373D60
:100830003D393B0017A02BE017A029E01AA027E0C4
:100840001EA025E022A023E029A021E030A01FE087
:1008500036A01DE043A01BE045A019E048A017E02A
:100860004BA000BF53A013E056A011E059A00FE029
:1008700061A00DE064A00BE066A009E069A007E0BC
:100880006DA005E071A003E073A001E075A000BFBA
:1008900000BF70474F4B0000CAFDBEDDB0FCBDD3AA
:1008A000CAD5B4EDCEF30000B4ABB8D0C6F7C9CF0B
:1008B000C3BBD3D0CAD6D6B800000000C2BCC8EBB8
:1008C000D6B8CEC6CDBCCFF1CAA7B0DC00000000C0
:1008D000D6B8CEC6CDBCCFF1CCABB8C9A1A2CCABFB
:1008E000B5ADB6F8C9FAB2BBB3C9CCD8D5F70000DC
:1008F000D6B8CEC6CDBCCFF1CCABCAAAA1A2CCABE8
:10090000BAFDB6F8C9FAB2BBB3C9CCD8D5F7000066
:10091000D6B8CEC6CDBCCFF1CCABC2D2B6F8C9FAF0
:10092000B2BBB3C9CCD8D5F700000000D6B8CEC64C
:10093000CDBCCFF1D5FDB3A3A3ACB5ABCCD8D5F727
:10094000B5E3CCABC9D9A3A8BBF2C3E6BBFDCCAB26
:10095000D0A1A3A9B6F8C9FAB2BBB3C9CCD8D5F710
:1009600000000000D6B8CEC6B2BBC6A5C5E40000E4
:10097000C3BBCBD1CBF7B5BDD6B8CEC60000000007
:10098000CCD8D5F7BACFB2A2CAA7B0DC000000001D
:10099000B7C3CECAD6B8CEC6BFE2CAB1B5D8D6B7ED
:1009A000D0F2BAC5B3ACB3F6D6B8CEC6BFE2B7B6CE
:1009B000CEA70000C9BEB3FDC4A3B0E5CAA7B0DC92
:1009C00000000000C7E5BFD5D6B8CEC6BFE2CAA7B3
:1009D000B0DC0000BBBAB3E5C7F8C4DAC3BBD3D000
:1009E000D3D0D0A7D4ADCABCCDBCB6F8C9FAB2BB7F
:1009F000B3C9CDBCCFF10000B6C1D0B420464C4144
:100A0000534820B3F6B4ED00CEB4B6A8D2E5B4EDA9
:100A1000CEF30000CEDED0A7BCC4B4E6C6F7BAC59C
:100A200000000000BCC4B4E6C6F7C9E8B6A8C4DA42
:100A3000C8DDB4EDCEF30000BCC7CAC2B1BED2B3AC
:100A4000C2EBD6B8B6A8B4EDCEF30000D6B8CEC689
:100A5000BFE2C2FA00000000B5D8D6B7B4EDCEF3BD
:100A600000000000C4A3BFE9B7B5BBD8C8B7C8CF62
:100A7000C2EBD3D0CEF3000001200649086000206D
:100A8000054908700549088005490870054908703E
:100A900070470000A00121425A01002048010020B7
:100AA0004A0100204B01002000B505F083FA05F053
:100AB000B5F804F02DFF04F031FF412004F002FDF1
:100AC00000BD0146CA1701EB92729210A1EB82029F
:100AD00092B9642091FBF0F200FB121050B94FF470
:100AE000C87091FBF0F200FB121008B901207047AA
:100AF0000020FCE70120FAE70020F8E7014649065C
:100B0000084A926942F00102064B9A61064A52680D
:100B100022F0E062044B5A601A4652680A435A6057
:100B20007047000000100240000001407CB50546FF
:100B3000EF208DF8000001208DF801001A480068B0
:100B4000000E8DF8020018480068000C8DF80300B4
:100B500015480088000A8DF80400134800788DF8C5
:100B6000050007208DF8060000208DF807000F49CA
:100B7000088012E0012005F051FD0C48008800F4C7
:100B8000004050B100200949088069460848FFF735
:100B90001AFD04460CB120467CBD681E80B2051EBD
:100BA000E8D100BFF8E700000C0000200A00002098
:100BB0004602002010B51E48806940F004001C4920
:100BC00088610846806940F0100088610120FFF7C5
:100BD00095FF1848006820F00F0016490860084685
:100BE000006840F008000860081D006820F07040B0
:100BF000091D08600846006840F0004008600D4884
:100C00000C30006840F400400A490C3108600A4882
:100C1000006820F47000084908600846006840F445
:100C2000000008600846C06840F02000C86010BDA1
:100C300000100240000801400010014070B5044659
:100C400000261D480588408845431B48808846F695
:100C50000401884216D118488079012812D1002059
:100C6000154988712A2048812B2088810021084657
:100C700004F0CEF90120104988712B2048812A20E8
:100C8000888103E00021084604F0C2F904F0C2FBA9
:100C900000260DE04FF4807008490861400048616B
:100CA0000748046080204861086180000861761C64
:100CB000AE42EFD370BD00003802002000100140AA
:100CC0000C0C014010B50446002C66D16C498871AB
:100CD000F02008804FF4A07048800846808849F2D0
:100CE000413188420BD06648808846F6040188422C
:100CF00005D06348808845F2103188421AD12C20F3
:100D00005F4908812A2048812B20888108468088F5
:100D100046F60401884205D05948808845F21031D2
:100D2000884206D14FF4A070554908804FF4F07006
:100D30004880A1E05248808845F21051884210D185
:100D40004FF430504E4908814FF4285048814FF4F9
:100D50002C5088814FF4F07008804FF44870488020
:100D60008AE04748808841F6631188420DD12C20E3
:100D7000434908812B2048812A2088814FF4F07054
:100D800008804FF44870488076E022203C49088172
:100D900020204881212088816EE001203849887117
:100DA0004FF4A0700880F02048800846808849F2FF
:100DB0004131884205D03248808845F2103188425E
:100DC00007D12C202E4908812A2048812B20888198
:100DD0003FE02B48808846F60401884207D12C204A
:100DE000274908812B2048812A20888131E0244826
:100DF000808845F21051884210D14FF4305020497C
:100E000008814FF4285048814FF42C5088814FF4CA
:100E1000487008804FF4F07048801AE018488088C5
:100E200041F6631188420DD12C20154908812A20F2
:100E300048812B2088814FF4487008804FF4F0706F
:100E4000488006E022200E49088121204881202088
:100E500088810B48808846F60401884205D00848FE
:100E6000808845F21031884206D14FF4F070044971
:100E700008804FF4A0704880002003F09DFE10BD54
:100E80003802002010B5FE48806940F00800FC4997
:100E900088610846806940F01000886108468069D2
:100EA00040F0010088610120FFF728FEF548406806
:100EB0006FF30B00F34948600846406840F2333155
:100EC0000843F04948600846006820F07F40086009
:100ED0000846006840F04C5008600846C06840F47E
:100EE000F860C8604FF03330E7490860091F0860B8
:100EF0004FF6FF70E44908310860322005F08EFBA0
:100F00000121002004F08EFA322005F087FB00203A
:100F100003F0E0FDDD49888008468088FF280ADB71
:100F2000084680884FF6FF71884204D0D7488088F1
:100F3000B0F5134F7ED1D32004F05AFA03F092FD9E
:100F400003F090FD03F08EFDD0498880084680882C
:100F50004FF6FF7101EA0020CC49888003F082FD42
:100F6000CA4989880843C94988800846808849F267
:100F7000413188425ED0BF2004F03AFA03F072FD9E
:100F800003F070FD03F06EFD03F06CFDBF49888037
:100F9000084680884FF6FF7101EA0020BB4988802F
:100FA00003F060FDB94989880843B849888008463C
:100FB000808846F60401884274D0D42004F018FAE0
:100FC00003F050FD03F04EFD03F04CFDAF49888067
:100FD000084680884FF6FF7101EA0020AB498880FF
:100FE00003F040FDA94989880843A849888008463C
:100FF000808845F21031884254D04FF45A4004F0B2
:10100000F7F903F02FFD4FF45B4004F0F1F903F022
:1010100029FD9E498880084680884FF6FF7101EAC5
:1010200000209A4988804FF45C4004F0E1F903F015
:1010300019FD00E036E09549898808439349888086
:1010400008468088B0F5004F02D145F210508880E4
:101050008E48808845F21051884223D0A12004F0A8
:10106000C7F903F0FFFC8949888003F0FBFC87493E
:101070008880084680884FF6FF7101EA0020834986
:10108000888003F0EFFC8149898808437F49888084
:101090000846808845F26171884203D141F66310A9
:1010A0007A4988807948818879A0FFF7DDF8774808
:1010B000808849F2413188427ED1CF2004F098F9EE
:1010C000002004F083F9C12004F080F9302004F0FE
:1010D0007DF9ED2004F08CF9642004F077F9032009
:1010E00004F074F9122004F071F9812004F06EF913
:1010F000E82004F07DF9852004F068F9102004F060
:1011000065F97A2004F062F9CB2004F071F93920F6
:1011100004F05CF92C2004F059F9002004F056F991
:10112000342004F053F9022004F050F9F72004F0C1
:101130005FF9202004F04AF9EA2004F059F9002070
:1011400004F044F9002004F041F9C02004F050F903
:101150001B2004F03BF9C12004F04AF9012004F0FF
:1011600035F9C52004F044F9302004F02FF930207F
:1011700004F02CF9C72004F03BF9B72004F026F95D
:10118000362004F035F9482004F020F93A2004F024
:101190002FF9552004F01AF9B12004F029F90020A4
:1011A00004F014F91A2004F011F9B62004F020F923
:1011B0000A2004F00BF900E0A9E0A22004F006F9EF
:1011C000F22004F015F9002004F000F9262004F0C4
:1011D0000FF9012004F0FAF8E02004F009F90F20DB
:1011E00004F0F4F82A2004F0F1F8282004F0EEF8D6
:1011F000082004F0EBF80E2004F0E8F8082004F0D2
:10120000E5F8542004F0E2F8A92004F0DFF84320C8
:1012100004F0DCF80A2004F0D9F80F2004F0D6F826
:10122000002004F0D3F8002004F0D0F8002004F0EF
:10123000CDF8002004F0CAF8E12004F0D9F800202D
:1012400004F0C4F8152004F0C1F8172004F0BEF82B
:10125000072004F0BBF8112004F0B8F8062004F0D1
:10126000B5F82B2004F0B2F8562004F0AFF83C207B
:1012700004F0ACF8052004F0A9F8102010E00000FC
:101280000010024000100140040C01403802002010
:10129000204C43442049443A25780D0A00000000C0
:1012A00004F094F80F2004F091F83F2004F08EF839
:1012B0003F2004F08BF80F2004F088F82B2004F076
:1012C00097F8002004F082F8002004F07FF8012055
:1012D00004F07CF83F2004F079F82A2004F088F824
:1012E000002004F073F8002004F070F8002004F0EF
:1012F0006DF8EF2004F06AF8112004F079F87820F6
:1013000005F08CF9292004F073F803F09ABBFE482D
:10131000808846F6040188427ED1112004F068F8E6
:10132000142005F07BF9D02004F062F8072004F0C7
:101330004DF8422004F04AF81D2004F047F8D1206F
:1013400004F056F8002004F041F81A2004F03EF8AA
:10135000092004F03BF8D22004F04AF8012004F000
:1013600035F8222004F032F8C02004F041F81020B3
:1013700004F02CF83B2004F029F8002004F026F8B3
:10138000022004F023F8112004F020F8C52004F016
:101390002FF8032004F01AF8C82004F029F80020E0
:1013A00004F014F8252004F011F8212004F00EF8C0
:1013B000052004F00BF8002004F008F80A2004F0DF
:1013C00005F8652004F002F8252003F0FFFF7720E0
:1013D00003F0FCFF502003F0F9FF0F2003F0F6FFAD
:1013E000002003F0F3FFF82004F002F8012003F0DE
:1013F000EDFFFE2003F0FCFF002003F0E7FF0220DA
:1014000003F0E4FF202003F0F3FF362003F0F0FFA9
:10141000082003F0DBFF00E02AE03A2003F0E8FFB9
:10142000552003F0D3FF2B2003F0E2FF002003F050
:10143000CDFF002003F0CAFF012003F0C7FF3F20CB
:1014400003F0C4FF2A2003F0D3FF002003F0BEFF07
:10145000002003F0BBFF012003F0B8FFDF2003F002
:10146000B5FF782005F0DAF8292003F0C1FF4CE73A
:10147000A548808845F21031884240F07C87ED20F5
:1014800003F0B6FF012003F0A1FFFE2003F09EFF52
:10149000EE2003F0ADFFDE2003F098FF212003F0E3
:1014A00095FFF12003F0A4FF012003F08FFFDF2060
:1014B00003F09EFF102003F089FFC42003F098FF83
:1014C0008F2003F083FFC62003F092FF002003F07B
:1014D0007DFFE22003F07AFFE22003F077FFE220B5
:1014E00003F074FFBF2003F083FFAA2003F06EFF18
:1014F000B02003F07DFF0D2003F068FF002003F013
:1015000065FF0D2003F062FF002003F05FFF112054
:1015100003F05CFF002003F059FF192003F056FF91
:10152000002003F053FF212003F050FF002003F0C0
:101530004DFF2D2003F04AFF002003F047FF3D2020
:1015400003F044FF002003F041FF5D2003F03EFF65
:10155000002003F03BFF5D2003F038FF002003F084
:1015600035FFB12003F044FF802003F02FFF00205F
:1015700003F02CFF8B2003F029FF002003F026FF4F
:10158000962003F023FF002003F020FFB22003F099
:101590002FFF002003F01AFF002003F017FF0220A6
:1015A00003F014FF002003F011FF032003F00EFFEF
:1015B000002003F00BFFB32003F01AFF002003F01C
:1015C00005FF002003F002FF002003F0FFFE0020D3
:1015D00003F0FCFE002003F0F9FE002003F0F6FE0D
:1015E000002003F0F3FE002003F0F0FE002003F0E3
:1015F000EDFE002003F0EAFE002003F0E7FE0020ED
:1016000003F0E4FE002003F0E1FE002003F0DEFE24
:10161000002003F0DBFE002003F0D8FE002003F0E2
:10162000D5FE002003F0D2FE002003F0CFFE002004
:1016300003F0CCFE002003F0C9FE002003F0C6FE3C
:10164000002003F0C3FE002003F0C0FEB42003F02E
:10165000CFFE8B2003F0BAFE002003F0B7FE9620E9
:1016600003F0B4FE002003F0B1FEA12003F0AEFEB3
:10167000002003F0ABFEB52003F0BAFE022003F019
:10168000A5FE002003F0A2FE032003F09FFE002031
:1016900003F09CFE042003F099FE002003F096FE68
:1016A000B62003F0A5FE002003F090FE002003F01A
:1016B0008DFEB72003F09CFE002003F087FE002083
:1016C00003F084FE3F2003F081FE002003F07EFE45
:1016D0005E2003F07BFE002003F078FE642003F020
:1016E00075FE002003F072FE8C2003F06FFE0020D8
:1016F00003F06CFEAC2003F069FE002003F066FEF0
:10170000DC2003F063FE01E038020020002003F03B
:101710005DFE702003F05AFE002003F057FE90207B
:1017200003F054FE002003F051FEEB2003F04EFEC8
:10173000002003F04BFEDC2003F048FE002003F005
:1017400045FEB82003F054FE002003F03FFE0020C9
:1017500003F03CFE002003F039FE002003F036FECB
:10176000002003F033FE002003F030FE002003F0E1
:101770002DFE002003F02AFEBA2003F039FE2420BB
:1017800003F024FE002003F021FE002003F01EFEE3
:10179000002003F01BFEC12003F02AFE202003F0EE
:1017A00015FE002003F012FE542003F00FFE00206F
:1017B00003F00CFEFF2003F009FE002003F006FEFC
:1017C000C22003F015FE0A2003F000FE002003F003
:1017D000FDFD042003F0FAFD002003F0F7FDC32017
:1017E00003F006FE3C2003F0F1FD002003F0EEFDC7
:1017F0003A2003F0EBFD002003F0E8FD392003F070
:10180000E5FD002003F0E2FD372003F0DFFD0020BE
:1018100003F0DCFD3C2003F0D9FD002003F0D6FDF1
:10182000362003F0D3FD002003F0D0FD322003F07A
:10183000CDFD002003F0CAFD2F2003F0C7FD0020DE
:1018400003F0C4FD2C2003F0C1FD002003F0BEFD19
:10185000292003F0BBFD002003F0B8FD262003F093
:10186000B5FD002003F0B2FD242003F0AFFD002001
:1018700003F0ACFD242003F0A9FD002003F0A6FD39
:10188000232003F0A3FD002003F0A0FD3C2003F083
:101890009DFD002003F09AFD362003F097FD002007
:1018A00003F094FD322003F091FD002003F08EFD43
:1018B0002F2003F08BFD002003F088FD2C2003F087
:1018C00085FD002003F082FD292003F07FFD00202C
:1018D00003F07CFD262003F079FD002003F076FD67
:1018E000242003F073FD002003F070FD242003F09A
:1018F0006DFD002003F06AFD232003F067FD00204A
:1019000003F064FDC42003F073FD622003F05EFD6C
:10191000002003F05BFD052003F058FD002003F0DC
:1019200055FD842003F052FD002003F04FFDF02010
:1019300003F04CFD002003F049FD182003F046FDA4
:10194000002003F043FDA42003F040FD002003F03D
:101950003DFD182003F03AFD002003F037FD502034
:1019600003F034FD002003F031FD0C2003F02EFDC8
:10197000002003F02BFD172003F028FD002003F0CA
:1019800025FD952003F022FD002003F01FFDF3202C
:1019900003F01CFD002003F019FDE62003F016FD06
:1019A000002003F013FDC52003F022FD322003F0D8
:1019B0000DFD002003F00AFD442003F007FD002088
:1019C00003F004FD652003F001FD002003F0FEFCA0
:1019D000762003F0FBFC002003F0F8FC882003F0E5
:1019E000F5FC002003F0F2FCC62003F001FD2020EE
:1019F00003F0ECFC002003F0E9FC172003F0E6FC08
:101A0000002003F0E3FC012003F0E0FC002003F0E1
:101A1000DDFCC72003F0ECFC002003F0D7FC002025
:101A200003F0D4FC002003F0D1FC002003F0CEFC36
:101A3000C82003F0DDFC002003F0C8FC002003F008
:101A4000C5FC002003F0C2FC002003F0BFFCC9204D
:101A500003F0CEFC002003F0B9FC002003F0B6FC3C
:101A6000002003F0B3FC002003F0B0FC002003F0E2
:101A7000ADFC002003F0AAFC002003F0A7FC00202E
:101A800003F0A4FC002003F0A1FC002003F09EFC66
:101A9000002003F09BFC002003F098FC002003F0E2
:101AA00095FC002003F092FC002003F08FFC002046
:101AB00003F08CFCE02003F09BFC162003F086FC76
:101AC000002003F083FC1C2003F080FC002003F0C6
:101AD0007DFC212003F07AFC002003F077FC362007
:101AE00003F074FC002003F071FC462003F06EFC50
:101AF000002003F06BFC522003F068FC002003F090
:101B000065FC642003F062FC002003F05FFC7A2097
:101B100003F05CFC002003F059FC8B2003F056FC22
:101B2000002003F053FC992003F050FC002003F048
:101B30004DFCA82003F04AFC002003F047FCB9202C
:101B400003F044FC002003F041FCC42003F03EFC01
:101B5000002003F03BFCCA2003F038FC002003F017
:101B600035FCD22003F032FC002003F02FFCD920FA
:101B700003F02CFC002003F029FCE02003F026FCFD
:101B8000002003F023FCF32003F020FC002003F0EE
:101B90001DFCE12003F02CFC162003F017FC0020B4
:101BA00003F014FC1C2003F011FC002003F00EFCD9
:101BB000222003F00BFC002003F008FC362003F089
:101BC00005FC002003F002FC452003F0FFFB002091
:101BD00003F0FCFB522003F0F9FB002003F0F6FBBE
:101BE000642003F0F3FB002003F0F0FB7A2003F005
:101BF000EDFB002003F0EAFB8B2003F0E7FB002065
:101C000003F0E4FB992003F0E1FB002003F0DEFB8E
:101C1000A82003F0DBFB002003F0D8FBB92003F081
:101C2000D5FB002003F0D2FBC42003F0CFFB002043
:101C300003F0CCFBCA2003F0C9FB002003F0C6FB75
:101C4000D22003F0C3FB002003F0C0FBD82003F038
:101C5000BDFB002003F0BAFBE02003F0B7FB00203F
:101C600003F0B4FBF32003F0B1FB002003F0AEFB64
:101C7000E22003F0BDFB052003F0A8FB002003F0E9
:101C8000A5FB0B2003F0A2FB002003F09FFB1B2011
:101C900003F09CFB002003F099FB342003F096FB3B
:101CA000002003F093FB442003F090FB002003F09E
:101CB0008DFB4F2003F08AFB002003F087FB61209F
:101CC00003F084FB002003F081FB792003F07EFB0E
:101CD000002003F07BFB882003F078FB002003F05A
:101CE00075FB972003F072FB002003F06FFBA6202A
:101CF00003F06CFB002003F069FBB72003F066FBE8
:101D0000002003F063FBC22003F060FB002003F01F
:101D10005DFBC72003F05AFB002003F057FBD120E6
:101D200003F054FB002003F051FBD62003F04EFBE0
:101D3000002003F04BFBDD2003F048FB002003F004
:101D400045FBF32003F042FB002003F03FFBE320C0
:101D500003F04EFB052003F039FB002003F036FBB7
:101D60000A2003F033FB002003F030FB1C2003F0BB
:101D70002DFB002003F02AFB332003F027FB00207B
:101D800003F024FB442003F021FB002003F01EFBA2
:101D9000502003F01BFB002003F018FB622003F02F
:101DA00015FB002003F012FB782003F00FFB00204E
:101DB00003F00CFB882003F009FB002003F006FB76
:101DC000972003F003FB002003F000FBA62003F0A4
:101DD000FDFA002003F0FAFAB72003F0F7FA00202A
:101DE00003F0F4FAC22003F0F1FA002003F0EEFA57
:101DF000C72003F0EBFA002003F0E8FAD12003F04B
:101E0000E5FA002003F0E2FAD52003F0DFFA002023
:101E100003F0DCFADD2003F0D9FA002003F0D6FA53
:101E2000F32003F0D3FA002003F0D0FAE42003F00B
:101E3000DFFA012003F0CAFA002003F0C7FA0120FC
:101E400003F0C4FA002003F0C1FA022003F0BEFA46
:101E5000002003F0BBFA2A2003F0B8FA002003F0B8
:101E6000B5FA3C2003F0B2FA002003F0AFFA4B20A1
:101E700003F0ACFA002003F0A9FA5D2003F0A6FA03
:101E8000002003F0A3FA742003F0A0FA002003F06E
:101E90009DFA842003F09AFA002003F097FA932029
:101EA00003F094FA002003F091FAA22003F08EFAD6
:101EB000002003F08BFAB32003F088FA002003F02F
:101EC00085FABE2003F082FA002003F07FFAC420D6
:101ED00003F07CFA002003F079FACD2003F076FAC3
:101EE000002003F073FAD32003F070FA002003F00F
:101EF0006DFADD2003F06AFA002003F067FAF320A0
:101F000003F064FA002003F061FAE52003F070FAB0
:101F1000002003F05BFA002003F058FA002003F0E1
:101F200055FA002003F052FA022003F04FFA002085
:101F300003F04CFA292003F049FA002003F046FA96
:101F40003C2003F043FA002003F040FA4B2003F05A
:101F50003DFA002003F03AFA5D2003F037FA002042
:101F600003F034FA742003F031FA002003F02EFA63
:101F7000842003F02BFA002003F028FA932003F0CA
:101F800025FA002003F022FAA22003F01FFA002015
:101F900003F01CFAB32003F019FA002003F016FA3C
:101FA000BE2003F013FA002003F010FAC42003F05F
:101FB0000DFA002003F00AFACD2003F007FA002002
:101FC00003F004FAD32003F001FA002003F0FEF935
:101FD000DC2003F0FBF9002003F0F8F9F32003F014
:101FE000F5F9002003F0F2F9E62003F001FA1120E0
:101FF00003F0ECF9002003F0E9F9342003F0E6F9EE
:10200000002003F0E3F9562003F0E0F9002003F08C
:10201000DDF9762003F0DAF9002003F0D7F9772014
:1020200003F0D4F9002003F0D1F9662003F0CEF9D3
:10203000002003F0CBF9882003F0C8F9002003F05A
:10204000C5F9992003F0C2F9002003F0BFF9BB20C5
:1020500003F0BCF9002003F0B9F9992003F0B6F9B8
:10206000002003F0B3F9662003F0B0F9002003F07C
:10207000ADF9552003F0AAF9002003F0A7F9552087
:1020800003F0A4F9002003F0A1F9452003F09EF924
:10209000002003F09BF9432003F098F9002003F09F
:1020A00095F9442003F092F9002003F08FF9E7201E
:1020B00003F09EF9322003F089F9002003F086F93D
:1020C000552003F083F9002003F080F9762003F017
:1020D0007DF9002003F07AF9662003F077F90020FB
:1020E00003F074F9672003F071F9002003F06EF932
:1020F000672003F06BF9002003F068F9872003F0F4
:1021000065F9002003F062F9992003F05FF90020DF
:1021100003F05CF9BB2003F059F9002003F056F9F5
:10212000992003F053F9002003F050F9772003F0D1
:102130004DF9002003F04AF9442003F047F900204C
:1021400003F044F9562003F041F9002003F03EF972
:10215000232003F03BF9002003F038F9332003F08B
:1021600035F9002003F032F9452003F02FF9002063
:1021700003F02CF9E82003F03BF9002003F026F9E6
:10218000002003F023F9992003F020F9002003F048
:102190001DF9872003F01AF9002003F017F98820B1
:1021A00003F014F9002003F011F9772003F00EF981
:1021B000002003F00BF9662003F008F9002003F07B
:1021C00005F9882003F002F9002003F0FFF8AA20A7
:1021D00003F0FCF8002003F0F9F8BB2003F0F6F858
:1021E000002003F0F3F8992003F0F0F8002003F04A
:1021F000EDF8662003F0EAF8002003F0E7F8552038
:1022000003F0E4F8002003F0E1F8552003F0DEF8D5
:10221000002003F0DBF8442003F0D8F8002003F09E
:10222000D5F8442003F0D2F8002003F0CFF8552071
:1022300003F0CCF8002003F0C9F8E92003F0D8F847
:10224000AA2003F0C3F8002003F0C0F8002003F038
:10225000BDF8002003F0BAF8002003F0C9F8AA2066
:1022600003F0B4F8CF2003F0C3F8002003F0AEF879
:10227000002003F0ABF8002003F0A8F8002003F0E2
:10228000A5F8002003F0A2F8002003F09FF800203A
:1022900003F09CF8002003F099F8002003F096F872
:1022A000002003F093F8002003F090F8002003F0E2
:1022B0008DF8002003F08AF8002003F087F8002052
:1022C00003F084F8002003F081F8002003F07EF88A
:1022D000F02003F08DF8002003F078F8502003F090
:1022E00075F8002003F072F8002003F06FF800206A
:1022F00003F06CF8F32003F07BF8002003F066F89D
:10230000F92003F075F8062003F060F8102003F0C0
:102310005DF8292003F05AF8002003F057F83A201E
:1023200003F066F8552003F051F8112003F060F82F
:10233000642004F073F9292003F05AF8352003F0E3
:1023400057F8002003F042F8512003F051F8FF2025
:1023500003F03CF8532003F04BF82C2003F036F840
:10236000552003F045F8822003F030F82C2003F0CC
:102370003FF802F066BBFE48808845F21051884263
:102380007ED155214FF4704003F04CF8AA214FF252
:10239000010003F047F852214FF2020003F042F827
:1023A00008214FF2030003F03DF801214FF2040031
:1023B00003F038F80D214FF4304003F033F80D21CD
:1023C0004BF2010003F02EF80D214BF2020003F056
:1023D00029F834214FF4364003F024F834214BF22D
:1023E000016003F01FF834214BF2026003F01AF889
:1023F0000D214FF4314003F015F80D214BF201107F
:1024000003F010F80D214BF2021003F00BF8342109
:102410004FF4374003F006F834214BF2017003F01B
:1024200001F834214BF2027002F0FCFF00214FF45E
:10243000324002F0F7FF00214BF2012002F0F2FFE0
:1024400000214BF2022002F0EDFF24214FF438402E
:1024500002F0E8FF24214BF6010002F0E3FF242103
:102460004BF6020002F0DEFF01214FF43F4002F084
:10247000D9FF0F214FF4334002F0D4FF0F2100E0C9
:10248000FEE34BF2013002F0CDFF0F214BF20230A0
:1024900002F0C8FF34214FF4394002F0C3FF342169
:1024A0004BF6011002F0BEFF34214BF6021002F091
:1024B000B9FF08214FF4354002F0B4FF08214BF278
:1024C000015002F0AFFF08214BF2025002F0AAFFC8
:1024D00003214FF4424002F0A5FF24214FF43A407B
:1024E00002F0A0FF24214BF6012002F09BFF2421E3
:1024F0004BF6022002F096FF00214FF43C4002F020
:1025000091FF78214BF6014002F08CFF00214BF641
:10251000024002F087FF00214FF43D4002F082FFAD
:1025200078214BF6015002F07DFF00214BF602505E
:1025300002F078FF00214FF43E4002F073FF642167
:102540004BF6016002F06EFF00214FF4514002F0A3
:1025500069FF33214DF2011002F064FF00214DF2BA
:10256000021002F05FFF34214DF2031002F05AFF17
:1025700000214DF2041002F055FF3A214DF20510F2
:1025800002F050FF00214DF2061002F04BFF4A21ED
:102590004DF2071002F046FF00214DF2081002F044
:1025A00041FF5C214DF2091002F03CFF00214DF289
:1025B0000A1002F037FF81214DF20B1002F032FFBA
:1025C00000214DF20C1002F02DFFA6214DF20D104E
:1025D00002F028FF00214DF20E1002F023FFE5214A
:1025E0004DF20F1002F01EFF01214DF2101002F00B
:1025F00019FF13214DF2111002F014FF01214DF2C9
:10260000121002F00FFF54214DF2131002F00AFFD6
:1026100001214DF2141002F005FF82214DF2151038
:1026200002F000FF01214DF2161002F0FBFECA215C
:102630004DF2171002F0F6FE02214DF2181002F0D2
:10264000F1FE00214DF2191002F0ECFE02214DF2D4
:102650001A1002F0E7FE01214DF21B1002F0E2FE1B
:1026600002214DF21C1002F0DDFE34214DF21D104E
:1026700002F0D8FE02214DF21E1002F0D3FE6721B7
:102680004DF21F1002F0CEFE02214DF2201002F09A
:10269000C9FE84214DF2211002F0C4FE02214DF248
:1026A000221002F0BFFEA4214DF2231002F0BAFE68
:1026B00002214DF2241002F0B5FEB7214DF2251093
:1026C00002F0B0FE02214DF2261002F0ABFECF2147
:1026D0004DF2271002F0A6FE02214DF2281002F062
:1026E000A1FEDE214DF2291002F09CFE02214DF2E6
:1026F0002A1002F097FEF2214DF22B1002F092FE0A
:1027000002214DF22C1002F08DFEFE214DF22D1013
:1027100002F088FE03214DF22E1002F083FE1021FC
:102720004DF22F1002F07EFE03214DF2301002F028
:1027300079FE33214DF2311002F074FE03214DF287
:10274000321002F06FFE6D214DF2331002F06AFE7E
:1027500000214FF4524002F065FE33214DF201207A
:1027600002F060FE00214DF2022002F05BFE01E06B
:102770003802002034214DF2032002F053FE0021E4
:102780004DF2042002F04EFE3A214DF2052002F0F7
:1027900049FE00214DF2062002F044FE4A214DF28E
:1027A000072002F03FFE00214DF2082002F03AFE21
:1027B0005C214DF2092002F035FE00214DF20A2085
:1027C00002F030FE81214DF20B2002F02BFE0021A1
:1027D0004DF20C2002F026FEA6214DF20D2002F053
:1027E00021FE00214DF20E2002F01CFEE5214DF2EB
:1027F0000F2002F017FE01214DF2102002F012FE10
:1028000013214DF2112002F00DFE01214DF2122094
:1028100002F008FE54214DF2132002F003FE0121C4
:102820004DF2142002F0FEFD82214DF2152002F03F
:10283000F9FD01214DF2162002F0F4FDCA214DF2FE
:10284000172002F0EFFD02214DF2182002F0EAFD00
:1028500000214DF2192002F0E5FD02214DF21A206F
:1028600002F0E0FD01214DF21B2002F0DBFD022110
:102870004DF21C2002F0D6FD34214DF21D2002F055
:10288000D1FD02214DF21E2002F0CCFD67214DF258
:102890001F2002F0C7FD02214DF2202002F0C2FDF0
:1028A00084214DF2212002F0BDFD02214DF22220B3
:1028B00002F0B8FDA4214DF2232002F0B3FD022165
:1028C0004DF2242002F0AEFDB7214DF2252002F09A
:1028D000A9FD02214DF2262002F0A4FDCF214DF2E8
:1028E000272002F09FFD02214DF2282002F09AFDE0
:1028F000DE214DF2292002F095FD02214DF22A2021
:1029000002F090FDF2214DF22B2002F08BFD02210E
:102910004DF22C2002F086FDFE214DF22D2002F01A
:1029200081FD03214DF22E2002F07CFD10214DF29D
:102930002F2002F077FD03214DF2302002F072FDCE
:1029400033214DF2312002F06DFD03214DF2322092
:1029500002F068FD6D214DF2332002F063FD00218D
:102960004FF4534002F05EFD33214DF2013002F08E
:1029700059FD00214DF2023002F054FD34214DF298
:10298000033002F04FFD00214DF2043002F04AFD09
:102990003A214DF2053002F045FD00214DF206309E
:1029A00002F040FD4A214DF2073002F03BFD0021CC
:1029B0004DF2083002F036FD5C214DF2093002F094
:1029C00031FD00214DF20A3002F02CFD81214DF243
:1029D0000B3002F027FD00214DF20C3002F022FDF9
:1029E000A6214DF20D3002F01DFD00214DF20E30FA
:1029F00002F018FDE5214DF20F3002F013FD012128
:102A00004DF2103002F00EFD13214DF2113002F0A4
:102A100009FD01214DF2123002F004FD54214DF266
:102A2000133002F0FFFC01214DF2143002F0FAFCE9
:102A300082214DF2153002F0F5FC01214DF21630E5
:102A400002F0F0FCCA214DF2173002F0EBFC02213B
:102A50004DF2183002F0E6FC00214DF2193002F080
:102A6000E1FC02214DF21A3002F0DCFC01214DF2B2
:102A70001B3002F0D7FC02214DF21C3002F0D2FCD8
:102A800034214DF21D3002F0CDFC02214DF21E30FA
:102A900002F0C8FC67214DF21F3002F0C3FC022196
:102AA0004DF2203002F0BEFC84214DF2213002F0C4
:102AB000B9FC02214DF2223002F0B4FCA4214DF207
:102AC000233002F0AFFC02214DF2243002F0AAFCC8
:102AD000B7214DF2253002F0A5FC02214DF226303F
:102AE00002F0A0FCCF214DF2273002F09BFC022126
:102AF0004DF2283002F096FCDE214DF2293002F032
:102B000091FC02214DF22A3002F08CFCF2214DF2B0
:102B10002B3002F087FC02214DF22C3002F082FCB7
:102B2000FE214DF22D3002F07DFC03214DF22E30BE
:102B300002F078FC10214DF22F3002F073FC0321DB
:102B40004DF2303002F06EFC33214DF2313002F0A4
:102B500069FC03214DF2323002F064FC6D214DF22C
:102B6000333002F05FFC00214FF4544002F05AFC75
:102B700033214DF2014002F055FC00214DF202409C
:102B800002F050FC34214DF2034002F04BFC0021D6
:102B90004DF2044002F046FC3A214DF2054002F0AD
:102BA00041FC00214DF2064002F03CFC4A214DF26E
:102BB000074002F037FC00214DF2084002F032FCE1
:102BC0005C214DF2094002F02DFC00214DF20A403B
:102BD00002F028FC81214DF20B4002F023FC002181
:102BE0004DF20C4002F01EFCA6214DF20D4002F009
:102BF00019FC00214DF20E4002F014FCE5214DF2CB
:102C00000F4002F00FFC01214DF2104002F00AFCCF
:102C100013214DF2114002F005FC01214DF212404A
:102C200002F000FC54214DF2134002F0FBFB0121A5
:102C30004DF2144002F0F6FB82214DF2154002F0F5
:102C4000F1FB01214DF2164002F0ECFBCA214DF2DE
:102C5000174002F0E7FB02214DF2184002F0E2FBC0
:102C600000214DF2194002F0DDFB02214DF21A4025
:102C700002F0D8FB01214DF21B4002F0D3FB00E033
:102C800004E302214DF21C4002F0CCFB34214DF252
:102C90001D4002F0C7FB02214DF21E4002F0C2FBB4
:102CA00067214DF21F4002F0BDFB02214DF2204092
:102CB00002F0B8FB84214DF2214002F0B3FB022167
:102CC0004DF2224002F0AEFBA4214DF2234002F06F
:102CD000A9FB02214DF2244002F0A4FBB7214DF2E2
:102CE000254002F09FFB02214DF2264002F09AFBA4
:102CF000CF214DF2274002F095FB02214DF22840F2
:102D000002F090FBDE214DF2294002F08BFB022104
:102D10004DF22A4002F086FBF2214DF22B4002F0E8
:102D200081FB02214DF22C4002F07CFBFE214DF292
:102D30002D4002F077FB03214DF22E4002F072FB92
:102D400010214DF22F4002F06DFB03214DF2304077
:102D500002F068FB33214DF2314002F063FB0321A6
:102D60004DF2324002F05EFB6D214DF2334002F035
:102D700059FB00214FF4554002F054FB33214DF232
:102D8000015002F04FFB00214DF2025002F04AFBCD
:102D900034214DF2035002F045FB00214DF2045066
:102DA00002F040FB3A214DF2055002F03BFB0021BE
:102DB0004DF2065002F036FB4A214DF2075002F068
:102DC00031FB00214DF2085002F02CFB5C214DF24A
:102DD000095002F027FB00214DF20A5002F022FBBD
:102DE00081214DF20B5002F01DFB00214DF20C50E1
:102DF00002F018FBA6214DF20D5002F013FB00214A
:102E00004DF20E5002F00EFBE5214DF20F5002F094
:102E100009FB01214DF2105002F004FB13214DF289
:102E2000115002F0FFFA01214DF2125002F0FAFAAD
:102E300054214DF2135002F0F5FA01214DF21450D5
:102E400002F0F0FA82214DF2155002F0EBFA012166
:102E50004DF2165002F0E6FACA214DF2175002F078
:102E6000E1FA02214DF2185002F0DCFA00214DF295
:102E7000195002F0D7FA02214DF21A5002F0D2FA9C
:102E800001214DF21B5002F0CDFA02214DF21C50EF
:102E900002F0C8FA34214DF21D5002F0C3FA0221AB
:102EA0004DF21E5002F0BEFA67214DF21F5002F0A3
:102EB000B9FA02214DF2205002F0B4FA84214DF209
:102EC000215002F0AFFA02214DF2225002F0AAFA8C
:102ED000A4214DF2235002F0A5FA02214DF2245014
:102EE00002F0A0FAB7214DF2255002F09BFA022120
:102EF0004DF2265002F096FACF214DF2275002F003
:102F000091FA02214DF2285002F08CFADE214DF2A6
:102F1000295002F087FA02214DF22A5002F082FA7B
:102F2000F2214DF22B5002F07DFA02214DF22C508D
:102F300002F078FAFE214DF22D5002F073FA0321CF
:102F40004DF22E5002F06EFA10214DF22F5002F089
:102F500069FA03214DF2305002F064FA33214DF248
:102F6000315002F05FFA03214DF2325002F05AFA6A
:102F70006D214DF2335002F055FA00214FF45640C6
:102F800002F050FA33214DF2016002F04BFA0021B9
:102F90004DF2026002F046FA34214DF2036002F075
:102FA00041FA00214DF2046002F03CFA3A214DF260
:102FB000056002F037FA00214DF2066002F032FAA5
:102FC0004A214DF2076002F02DFA00214DF208600F
:102FD00002F028FA5C214DF2096002F023FA002188
:102FE0004DF20A6002F01EFA81214DF20B6002F0F0
:102FF00019FA00214DF20C6002F014FAA6214DF2EC
:103000000D6002F00FFA00214DF20E6002F00AFA94
:10301000E5214DF20F6002F005FA01214DF210603A
:1030200002F000FA13214DF2116002F0FBF90121C8
:103030004DF2126002F0F6F954214DF2136002F0E5
:10304000F1F901214DF2146002F0ECF982214DF208
:10305000156002F0E7F901214DF2166002F0E2F985
:10306000CA214DF2176002F0DDF902214DF218601D
:1030700002F0D8F900214DF2196002F0D3F90221D3
:103080004DF21A6002F0CEF901214DF21B6002F000
:10309000C9F902214DF21C6002F0C4F934214DF24D
:1030A0001D6002F0BFF902214DF21E6002F0BAF974
:1030B00067214DF21F6002F0B5F902214DF2206048
:1030C00002F0B0F984214DF2216002F0ABF9022147
:1030D0004DF2226002F0A6F9A4214DF2236002F025
:1030E000A1F902214DF2246002F09CF9B7214DF2C2
:1030F000256002F097F902214DF2266002F092F964
:10310000CF214DF2276002F08DF902214DF22860A7
:1031100002F088F9DE214DF2296002F083F90221E4
:103120004DF22A6002F07EF9F2214DF22B6002F09E
:1031300079F902214DF22C6002F074F9FE214DF272
:103140002D6002F06FF903214DF22E6002F06AF952
:1031500010214DF22F6002F065F903214DF230602D
:1031600002F060F933214DF2316002F05BF9032186
:103170004DF2326002F056F96D214DF2336002F0EB
:1031800051F955214FF4704002F04CF9AA214FF249
:10319000010002F047F952214FF2020002F042F919
:1031A00008214FF2030002F03DF900214FF2040024
:1031B00002F038F9CC214FF4314002F033F900210C
:1031C0004BF2011002F02EF905214FF4364002F0C7
:1031D00029F970214FF4374002F024F970214BF2A5
:1031E000017002F01FF901214FF4384002F01AF982
:1031F00003214BF6010002F015F903214BF6020002
:1032000002F010F903214BF6030002F00BF9022142
:103210004FF43C4002F006F900214BF6014002F069
:1032200001F900214BF6024002F0FCF8D0214FF4E6
:10323000494002F0F7F802214CF6011002F0F2F8D2
:1032400050214CF6021002F0EDF850214CF603101C
:1032500002F0E8F850214CF6041002F0E3F80021E7
:103260004FF4545002F0DEF855214FF4685002F04C
:10327000D9F84FF4885002F0BBF8782003F0F6F943
:103280004FF4245002F0B4F801F0DBBBFE48808814
:1032900049F2253188427DD147F6F001E52002F060
:1032A000C1F84FF48071012002F0BCF84FF4E061E6
:1032B000022002F0B7F841F23001032002F0B2F828
:1032C0000021042002F0AEF840F20221082002F0B2
:1032D000A9F80021092002F0A5F800210A2002F037
:1032E000A1F800210C2002F09DF800210D2002F031
:1032F00099F800210F2002F095F80021102002F02B
:1033000091F80721112002F08DF80021122002F01F
:1033100089F80021132002F085F80021072002F02F
:1033200081F841F29061102002F07CF840F22721F0
:10333000112002F077F89D21122002F073F84FF46B
:10334000C851132002F06EF82521292002F06AF8F6
:103350000D212B2002F066F80721302002F062F8E0
:1033600040F20331312002F05DF80321322002F0F7
:1033700059F840F20621352002F054F80821362091
:1033800002F050F840F20641372002F04BF84FF4BB
:10339000417100E058E0382002F044F8072139205C
:1033A00002F040F840F202613C2002F03BF80821B4
:1033B0003D2002F037F80021502002F033F8EF21D1
:1033C000512002F02FF80021522002F02BF840F299
:1033D0003F11532002F026F84FF42741602002F0FD
:1033E00021F80121612002F01DF800216A2002F07D
:1033F00019F80021802002F015F80021812002F048
:1034000011F80021822002F00DF80021832002F043
:1034100009F80021842002F005F80021852002F03F
:1034200001F81021902001F0FDFF4FF4C0619220BF
:1034300001F0F8FF40F23311072001F0F3FF2221E1
:10344000002001F0EFFF1FE78F48808849F2283104
:1034500088427DD141F28F01EC2001F0E3FF41F27F
:103460003421EF2001F0DEFF4FF48071012001F0E4
:10347000D9FF4FF4E061022001F0D4FF41F23001A6
:10348000032001F0CFFF0021042001F0CBFF40F228
:103490000221082001F0C6FF0021092001F0C2FF2F
:1034A00000210A2001F0BEFF01210C2001F0BAFF2B
:1034B00000210D2001F0B6FF00210F2001F0B2FF26
:1034C0000021102001F0AEFF0721112001F0AAFF1A
:1034D0000021122001F0A6FF0021132001F0A2FF1D
:1034E0000121072001F09EFF322003F097F841F2FE
:1034F0009041102001F096FF40F22721112001F0A9
:1035000091FF322003F08AF88A21122001F08AFF0D
:10351000322003F083F84FF4D051132001F082FFE2
:103520000621292001F07EFF0D212B2001F07AFFDA
:10353000322003F073F80021202001F073FF0021F6
:10354000212001F06FFF322003F068F8002100E035
:1035500075E0302001F066FF40F20461312001F097
:1035600061FF40F20531322001F05CFF002135207F
:1035700001F058FF40F60941362001F053FF4FF4A7
:103580000171372001F04EFF40F20131382001F087
:1035900049FF40F20771392001F044FF00213C202F
:1035A00001F040FF40F60A213D2001F03BFF3220B0
:1035B00003F034F80021502001F034FFEF215120B6
:1035C00001F030FF0021522001F02CFF40F23F11AA
:1035D000532001F027FF4FF42741602001F022FF24
:1035E0000121612001F01EFF00216A2001F01AFF75
:1035F0000021802001F016FF0021812001F012FF40
:103600000021822001F00EFF0021832001F00AFF3B
:103610000021842001F006FF0021852001F002FF37
:103620001021902001F0FEFE4FF4C061922001F0C5
:10363000F9FE40F23311072001F0F4FE24E61248AF
:10364000808849F2203188427ED10021084601F06D
:10365000E9FE4FF48071012001F0E4FE4FF4E061D7
:10366000022001F0DFFE41F23001032001F0DAFE1A
:103670000021042001F0D6FE40F20221082001F0D2
:10368000D1FE0021092001E03802002001F0CAFE2D
:1036900000210A2001F0C6FE01210C2001F0C2FE2B
:1036A00000210D2001F0BEFE00210F2001F0BAFE26
:1036B000322002F0B3FF40F20111072001F0B2FE08
:1036C000322002F0ABFF4FF48651102001F0AAFE29
:1036D0000721112001F0A6FE4FF48871122001F09D
:1036E000A1FE4FF43061132001F09CFE002129203F
:1036F00001F098FE44F210012B2001F093FE00210E
:10370000502001F08FFEEF21512001F08BFE0021AF
:10371000522001F087FE40F23F11532001F082FE5B
:103720004FF41C51602001F07DFE0121612001F069
:1037300079FE00216A2001F075FE0021802001F051
:1037400071FE0021812000E030E001F06BFE0021DD
:10375000822001F067FE0021832001F063FE00213A
:10376000842001F05FFE0021852001F05BFE102126
:10377000902001F057FE0021922001F053FE01211C
:10378000932001F04FFE4FF48871952001F04AFE1E
:103790000021972001F046FE0021982001F042FE12
:1037A00040F27311072001F03DFE6DE5FE48808870
:1037B00049F2313188427DD141F21401E72001F014
:1037C00031FE4FF48071012001F02CFE4FF40071A6
:1037D000022001F027FE41F23801032001F022FE11
:1037E00040F20221082001F01DFE0021092001F015
:1037F00019FE00210A2001F015FE00210C2001F025
:1038000011FE00210D2001F00DFE00210F2001F01E
:1038100009FE0021102001F005FE0721112001F012
:1038200001FE0021122001F0FDFD0021132001F016
:10383000F9FDC82002F0F2FE41F29061102001F083
:10384000F1FD40F22721112001F0ECFD322002F0C1
:10385000E5FE0C21122001F0E5FD322002F0DEFE33
:103860004FF40061132001F0DDFD1121292001F04A
:10387000D9FD0B212B2001F0D5FD322002F0CEFE28
:103880000021202001F0CEFD40F23F11212001F067
:10389000C9FD0021302001F0C5FD4FF483713120B6
:1038A00001F0C0FD0021322001F0BCFD4FF4017198
:1038B000352000E064E001F0B5FD41F20A613620F8
:1038C00001F0B0FD40F20771372001F0ABFD4FF47D
:1038D0008371382001F0A6FD40F20771392001F014
:1038E000A1FD40F202413C2001F09CFD40F60F4159
:1038F0003D2001F097FD0021502001F093FDEF21C4
:10390000512001F08FFD0021522001F08BFD40F28B
:103910003F11532001F086FD4FF41C51602001F04F
:1039200081FD0121612001F07DFD00216A2001F06F
:1039300079FD0021802001F075FD0021812001F03A
:1039400071FD0021822001F06DFD0021832001F036
:1039500069FD0021842001F065FD0021852001F032
:1039600061FD1021902001F05DFD4FF4C0619220B7
:1039700001F058FD40F23311072001F053FD83E4BC
:103980008948808845F2084188427DD14FF4807192
:10399000012001F047FD4FF4E061022001F042FDFB
:1039A00041F23001032001F03DFD0021042001F02F
:1039B00039FD40F20721082001F034FD00210920E3
:1039C00001F030FD00210A2001F02CFD00210C2027
:1039D00001F028FD00210D2001F024FD00210F2021
:1039E00001F020FD142002F019FE41F2B061102018
:1039F00001F018FD0121112001F014FD0121172013
:103A000001F010FD4FF49C71122001F00BFD4FF4FA
:103A10000061132001F006FD0921292001F002FDBB
:103A200009212A2001F0FEFC0021A42001F0FAFC6B
:103A30000021502001F0F6FCEF21512001F0F2FCB2
:103A40000021522001F0EEFC40F23F11532001F022
:103A5000E9FC4FF41C51602001F0E4FC01216120DD
:103A600001F0E0FC00216A2001F0DCFC0021802054
:103A700001F0D8FC0021812001F0D4FC002182203B
:103A800001F0D0FC002100E024E0832001F0CAFC1A
:103A90000021842001F0C6FC0021852001F0C2FC39
:103AA0001321902001F0BEFC0021922001F0BAFC0D
:103AB0000321932001F0B6FC4FF48871952001F0AA
:103AC000B1FC40F27311072001F0ACFC322002F08F
:103AD000A5FDB8E43448808841F2055188427DD183
:103AE0000021072001F09EFC322002F097FD4FF4E8
:103AF0008E71122001F096FC0121A42001F092FCAD
:103B00000F21082001F08EFC08210A2001F08AFC18
:103B100008210D2001F086FC40F20771302001F0F1
:103B200081FC0721312001F07DFC40F2036132204D
:103B300001F078FC4FF4E061332001F073FC40F2B7
:103B40000221342001F06EFC0221352001F06AFCD4
:103B500041F60F71362001F065FC40F20771372005
:103B600001F060FC0021382001F05CFC00213920CC
:103B700001F058FC40F207713A2001F053FC00219B
:103B80003B2001F04FFC07213C2001F04BFC0021C1
:103B90003D2001F047FC322002F040FD01210720CA
:103BA00001F040FC012101E038020020172001F063
:103BB00039FC322002F032FD4FF4BD51102001F0EB
:103BC00031FC40F21721112001F02CFC4FF48F71D1
:103BD000122001F027FC4FF4706100E098E0132000
:103BE00001F020FC00212A2001F01CFC0A212920E0
:103BF00001F018FC4FF49F71122001F013FC00211A
:103C0000502001F00FFCEF21512001F00BFC0021AE
:103C1000522001F007FC40F23F11532001F002FC5A
:103C20004FF41C51602001F0FDFB0121612001F0E7
:103C3000F9FB00216A2001F0F5FB0021802001F052
:103C4000F1FB0021812001F0EDFB0021822001F039
:103C5000E9FB0021832001F0E5FB0021842001F035
:103C6000E1FB0021852001F0DDFB1321902001F014
:103C7000D9FB4FF44071922001F0D4FB0521932031
:103C800001F0D0FB0021952001F0CCFB0021972012
:103C900001F0C8FB0021982001F0C4FB4FF48071B3
:103CA000012001F0BFFB4FF4E061022001F0BAFBFC
:103CB00041F23801032001F0B5FB0021042001F09E
:103CC000B1FB00210C2001F0ADFB00210F2001F021
:103CD000A9FB0021202001F0A5FB0021212001F0FB
:103CE000A1FB2121072001F09DFB142002F096FC8E
:103CF0006121072001F096FB142002F08FFC40F2B6
:103D00007311072001F08EFB142002F087FC95E46C
:103D1000FE4880884BF2055188427CD1002108463C
:103D200001F080FB0021084601F07CFB00210846E1
:103D300001F078FB0021084601F074FB0121A4206A
:103D400001F070FB142002F069FC4FF41C5160205C
:103D500001F068FB40F20221082001F063FB4FF400
:103D60000571302001F05EFB43F21571312001F046
:103D700059FB40F20461322001F054FB40F6166119
:103D8000332001F04FFB42F21121342001F04AFBB5
:103D90004FF4A851352001F045FB48F20751362079
:103DA00001F040FB41F20741372001F03BFB41F2BB
:103DB0000341382001F036FB2021392001F032FB8D
:103DC0001A21902001F02EFB0021102001F02AFB87
:103DD0000721112001F026FB0021122001F022FB17
:103DE0000021132001F01EFB142002F017FC4FF4F9
:103DF000E661102001F016FB40F23711112001F0AE
:103E000011FB142002F00AFC4FF4DC71122001F0C7
:103E100009FB142000E085E002F000FC4FF4706123
:103E2000132001F0FFFA80212A2001F0FBFA48213B
:103E3000292001F0F7FA142002F0F0FB4FF4807112
:103E4000012001F0EFFA4FF4E061022001F0EAFAFC
:103E500041F23801032001F0E5FA40F20221082086
:103E600001F0E0FA00210A2001F0DCFA00210C2028
:103E700001F0D8FA00210D2001F0D4FA30210E20F3
:103E800001F0D0FA0021502001F0CCFAEF215120AE
:103E900001F0C8FA0021522001F0C4FA40F23F11AB
:103EA000532001F0BFFA4FF41C51602001F0BAFA20
:103EB0000121612001F0B6FA00216A2001F0B2FA76
:103EC0001121902001F0AEFA4FF4C061922001F070
:103ED000A9FA40F20241932001F0A4FA02219420B1
:103EE00001F0A0FA142002F099FB0121072001F053
:103EF00099FA142002F092FB6121072001F092FA56
:103F000040F27311072001F08DFA0021202001F00A
:103F100089FA0021212001F085FA2221002001F0F8
:103F200081FA42E4794880884CF2055188427CD17C
:103F30000021084601F076FA0021084601F072FAE5
:103F4000142002F06BFB0021084601F06BFA0021FF
:103F5000084601F067FA0021084601F063FA0021E3
:103F6000084601F05FFA0121A42001F05BFA142059
:103F700002F054FB4FF41C51602001F053FA40F65C
:103F80000601082001F04EFA40F20371302001F0E2
:103F900049FA0121312001F045FA0421322001F0D3
:103FA00041FA4FF48171332001F03CFA4FF4407133
:103FB000342001F037FA40F20311352001F032FAD3
:103FC0001F21362001F02EFA40F20371372001F054
:103FD00029FA0121382001F025FA0421392001F0C5
:103FE00021FA1521902001F01DFA4FF48261102072
:103FF00001F018FA40F24721112001F013FA4FF4B2
:10400000DE71122001F00EFA4FF46061132001F00E
:1040100009FA782002F002FB4FF48071012001F0D0
:1040200001FA4FF40071022000E052E001F0FAF9C9
:1040300041F23001032001F0F5F908210A2001F0D6
:10404000F1F900210C2001F0EDF920210E2001F002
:10405000E9F900210F2001F0E5F90021202001F00D
:10406000E1F90021212001F0DDF93D212A2001F0B4
:10407000D9F9142002F0D2FA2D21292001F0D2F929
:104080000021502001F0CEF94DF2EF01512001F056
:10409000C9F90021522001F0C5F940F23F11532027
:1040A00001F0C0F90021612001F0BCF900216A2073
:1040B00001F0B8F94FF44071922001F0B3F90521F5
:1040C000932001F0AFF94FF48071072001F0AAF9B5
:1040D00055E40E48808848F6891188427ED1012136
:1040E000002001F09FF94AF6A401032001F09AF99B
:1040F00000210C2001F096F940F60C010D2001F092
:1041000091F94FF42C510E2002E0000038020020FB
:1041100001F088F9B0211E2001F084F942F63F3108
:10412000012001F07FF94FF4C061022001F07AF91B
:104130000021102001F076F946F27801112001F0FB
:1041400071F90021052001F06DF90021062001F030
:1041500069F94EF61C71162001F064F9032117204D
:1041600001F060F940F23321072001F05BF90021F2
:104170000B2001F057F900210F2001F053F9002125
:10418000412001F04FF90021422001F04BF90021BC
:10419000482001F047F940F23F11492001F042F96F
:1041A00000214A2001F03EF900214B2001F03AF9AC
:1041B0004FF46F41442001F035F90021452001F012
:1041C00031F940F23F11462001F02CF940F207711D
:1041D000302001F027F94FF4017100E040E0312078
:1041E00001F020F94FF40171322001F01BF940F287
:1041F0000251332001F016F940F20751342001F04A
:1042000011F94FF40171352001F00CF94FF40171EF
:10421000362001F007F940F20251372001F002F98F
:1042200040F202313A2001F0FDF840F202313B2029
:1042300001F0F8F80021232001F0F4F800212420F7
:1042400001F0F0F84FF40041252001F0EBF80021D7
:104250004F2001F0E7F800214E2001F0E3F8F0E3F1
:10426000FE48808844F2315188427DD101210020EE
:1042700001F0D8F80A2002F0D1F941F228611020AB
:1042800001F0D0F80E21122001F0CCF840F63921CF
:10429000132001F0C7F80A2002F0C0F940211120D4
:1042A00001F0C0F85021152001F0BCF80A2002F0FE
:1042B000B5F91E21122001F0B5F80A2002F0AEF97E
:1042C0004FF4B151102001F0ADF842F6392113201E
:1042D00001F0A8F80A2002F0A1F94FF48071012042
:1042E00001F0A0F84FF44071022001F09BF841F278
:1042F0003801032001F096F840F20221082001F075
:1043000091F808210A2001F08DF80021302001F0F9
:1043100089F840F20241312001F084F84FF48371B2
:10432000322001F07FF840F20351332001F07AF897
:104330004FF48271342001F075F840F201313520DC
:1043400001F070F840F20771362001F06BF840F28E
:104350000531372001F066F84FF40271382001F082
:1043600061F840F60B7100E03CE0392001F05AF8AA
:104370000221412001F056F84FF41C51602001F059
:1043800051F80121612001F04DF84FF404719020A3
:1043900001F048F84FF48571922001F043F80421B0
:1043A000932001F03FF84FF48071A02001F03AF81B
:1043B0000121072001F036F82121072001F032F811
:1043C0002321072001F02EF83321072001F02AF8DD
:1043D00040F23311072001F025F80021A02001F060
:1043E00021F82EE39D48808844F2355188427CD1E3
:1043F0003021152001F016F810219A2001F012F852
:104400002021112001F00EF843F22841102001F084
:1044100009F80221122001F005F841F238011320B9
:1044200001F000F8282002F0F9F81221084600F007
:10443000F9FF282002F0F2F843F22041102000F0AA
:10444000F1FF43F23801132000F0ECFF462002F0A8
:10445000E5F80021302000F0E5FF40F20241312074
:1044600000F0E0FF40F20731322000F0DBFF4FF4B4
:104470004171332000F0D6FF0421342000F0D2FF38
:1044800040F20141352000F0CDFF40F207713620A7
:1044900000F0C8FF40F20531372000F0C3FF4FF4B1
:1044A000C261382000F0BEFF4FF4C261392000F035
:1044B000B9FF4FF48071012000F0B4FF4FF4407158
:1044C000022000F0AFFF41F23001032000F0AAFF0C
:1044D00040F60801082000F0A5FF08210A2000F09E
:1044E000A1FF4FF41C51602000E033E000F09AFF80
:1044F0000121612000F096FF4FF49F71902000F0A1
:1045000091FF4FF48071922000F08CFF4FF4807186
:10451000932000F087FF4FF44051A02000F082FF6D
:104520001021A32000F07EFF0121072000F07AFF78
:104530002121072000F076FF2321072000F072FFE1
:104540003321072000F06EFF40F23311072000F006
:1045500069FF76E24148808841F663118842F8D1CC
:10456000E22000F045FF4FF480703D4908614000B3
:1045700048611D203B490860802039494861086135
:104580008000086140100861400048610220354900
:10459000086080203249486108618000086140104D
:1045A00008614000486104202E49086080202C49A1
:1045B0004861086180000861642002F057F8E0203B
:1045C00000F016FF4FF480702549086140004861F3
:1045D0000120244908608020214948610861800049
:1045E00008610A2002F01AF8E02000F001FF4FF401
:1045F00080701B4908614000486103201949086028
:104600008020174948610861800008610C2002F091
:1046100005F8012000F0ECFE0A2001F0FFFFE62083
:1046200000F0E6FE4FF480700D49086140004861DB
:104630002F200C49086080200949486108618000EA
:1046400008614010086140004861FF20054908608A
:104650008020034948610861800005E0380200209D
:10466000001001400C0C014008614010086140003E
:104670004861FF20F84908608020F84948610861D6
:1046800080000861B02000F0B3FE4FF48070F34961
:104690000861400048612020EF4908608020EF4910
:1046A000486108618000086140100861400048616D
:1046B0000020E94908608020E849486108618000DD
:1046C000086140100861400048610320E249086029
:1046D0008020E2494861086180000861401008615B
:1046E0004000486140F21F30DB4908608020DB4910
:1046F000486108618000086140100861400048611D
:104700000120D54908608020D449486108618000B3
:104710000861401008614000486140F2DF10CE4956
:1047200008608020CD494861086180000861401020
:104730000861400048610020C74908608020C749DF
:104740004861086180000861B42000F051FE4FF418
:104750008070C2490861400048610420BE49086079
:104760008020BE49486108618000086140100861EE
:104770004000486140F21F40B74908608020B749B7
:10478000486108618000086140100861400048618C
:104790000020B14908608020B0494861086180006C
:1047A000086140100861400048612E20AA49086055
:1047B0008020AA49486108618000086140100861B2
:1047C000400048610020A44908608020A349486156
:1047D00008618000086140100861400048610020C5
:1047E0009D49086080209D494861086180000861FA
:1047F000401008614000486100209749086080200F
:1048000096494861086180000861401008614000D5
:104810004861002090490860802090494861086103
:1048200080000861B62000F0E3FD4FF480708B49F2
:10483000086140004861022087490860802087495C
:1048400048610861800008614010086140004861CB
:104850004FF40370804908608020804948610861F6
:1048600080000861401008614000486100207A49DA
:104870000860802079494861086180000861401023
:10488000086140004861172073490860802073491F
:10489000486108618000086140100861400048617B
:1048A00015206D49086080206C49486108618000CE
:1048B00008614010086140004861002066490860B6
:1048C00080206649486108618000086140100861E5
:1048D0004000486100206049086080205F494861CD
:1048E000086180000861F02000F082FD4FF48070C4
:1048F0005A490861400048610320574908608020F8
:1049000056494861086180000861292000F070FD67
:10491000D02000F06DFD4FF48070504908614000D8
:10492000486100204C49086080204C49486108617A
:1049300080000861BE2000F05BFD4FF480704749A5
:1049400008614000486105204349086080204349D0
:1049500048610861800008614010086140004861BA
:10496000FE203D49086080203C4948610861800084
:104970000861401008614000486101203649086024
:104980008020364948610861800008614010086154
:104990004000486100203049086080202F4948616C
:1049A00008618000086140100861400048610020F3
:1049B0002949086080202949486108618000086110
:1049C00040100861400048610020234908608020B1
:1049D00022494861086180000861B82000F008FDA4
:1049E0004FF480701D4908614000486103201A4956
:1049F0000860802019494861086180000861401002
:104A00000861400048610120134908608020134973
:104A10004861086180000861BA2000F0E9FC4FF4A9
:104A200080700E4908614000486101200A49086011
:104A300080200A494861086180000861642000F014
:104A400051F80020FCF73EF90120054908604FF6B7
:104A5000FF70FCF7F3F810BD0C0C01400010014092
:104A6000A801224210B54FF0883017490860091D8F
:104A70000860002014490C3108608815134908614A
:104A800040004861402048611148808848F68911FB
:104A9000884202D1022001F0E9FD0B48083000688D
:104AA00084B2402009490861C00008614FF03330EA
:104AB00005490860091D08604FF6FF7002490C3176
:104AC0000860204610BD0000000C014000100140AD
:104AD0003802002010B50446204600F089FCFFF79C
:104AE000C1FF10BD2DE9F0410446BE2000F080FC5E
:104AF0004FF480702D4908614000486105202C4921
:104B000008608020294948610861800008614010E0
:104B1000086140004861204602F023FF05464FF03F
:104B20006632244B02F030FF074602F0EDFE2049CA
:104B3000086080201D4948610861800008614010BC
:104B40000861400048610120194908608020174928
:104B500048610861800008614010086140004861B8
:104B6000FF201349086080201049486108618000D7
:104B70000861401008614000486100200C4908604D
:104B800080200A494861086180000861401008617E
:104B900040004861002006490860802003494861C0
:104BA000086180000861BDE8F0810000001001404C
:104BB0000C0C014066660440F0B505460024002751
:104BC000FC48807901280BD1FA48808846F6040118
:104BD000884205D0F748808841F66311884208D1A1
:104BE000F4488079F0B9F348808841F6631188422F
:104BF00018D1082D15D2DFE805F00406080A0C0EBE
:104C0000101206250DE007250BE0042509E0052517
:104C100007E0012505E0002503E0032501E002256A
:104C200000BF00BFE348808849F24131884217D075
:104C3000E048808846F60401884211D0DD4880882B
:104C400045F2103188420BD0DA48808845F2105185
:104C5000884205D0D748808841F6631188427DD1CB
:104C6000082D1CD2DFE805F00406090C0F121518F8
:104C700000BF14E044F0800411E044F040040EE072
:104C800044F0C0040BE044F0200408E044F0600469
:104C900005E044F0A00402E044F0E00400BF00BFDF
:104CA000C448808845F21051884202D14FF45857C9
:104CB00000E03627BF48808845F2103188420DD089
:104CC000BC48808845F21051884207D0B948808896
:104CD00041F66311884201D044F00804B548808849
:104CE00046F60401884201D144F0020421463846C8
:104CF00000F098FBAF48808841F6631188421DD0D0
:104D000004F0200068B1AB480088AA49498888426D
:104D100014DAA84806884088A649088008464680D4
:104D20000CE0A4480088A3494988884206DDA148D0
:104D3000068840889F490880084646809D488088AC
:104D400045F2105188427DD19A49488900F050FBC4
:104D50004FF4807098490861400000E030E14861FC
:104D600000209649086080209349486108618000CE
:104D7000086190494989491C88B200F039FB4FF419
:104D800080708D4908614000486100208B490860AF
:104D90008020894948610861800008618549498906
:104DA000891C88B200F024FB4FF4807082490861AE
:104DB000400048617F480088401E00127F4908601B
:104DC00080207D49486108618000086179494989EE
:104DD000C91C88B200F00CFB4FF480707649086162
:104DE0004000486173480078401EC0B273490860B3
:104DF0008020714948610861800008616D49888997
:104E000000F0F6FA4FF480706B4908614000486189
:104E100000206A4908608020674948610861800075
:104E2000086164498989491C88B200F0E1FA4FF4AD
:104E30008070614908614000486100205F49086056
:104E4000802000E035E05C4948610861800008612D
:104E500058498989891C88B200F0CAFA4FF48070D9
:104E6000554908614000486152484088401E001280
:104E700052490860802050494861086180000861FB
:104E80004C498989C91C88B200F0B2FA4FF480708D
:104E9000494908614000486146488078401EC0B2D8
:104EA00046490860802044494861086180000861E3
:104EB000ADE04049488900F09BFA4FF480703E49CC
:104EC00008614000486100203C49086080203A4960
:104ED0004861086180000861401008614000486135
:104EE000002036490860802033494861086180000D
:104EF000086140100861400048612E480088401E4B
:104F000000122E49086080202B494861086180000A
:104F10000861401008614000486126480078401E42
:104F2000C0B226490860802023494861086180009A
:104F300008612049888900F05BFA4FF480701E49AF
:104F400008614000486100201C49086080201A491F
:104F500048610861800008614010086140004861B4
:104F600000201649086080201349486108618000CC
:104F7000086140100861400048610E484088401EAA
:104F800000120E49086080200B49486108618000CA
:104F90000861401008614000486106488078401E62
:104FA000C0B206490860802003494861086180005A
:104FB00008612CE038020020001001400C0C014078
:104FC000082D1CD2DFE805F004070A0D0F12151892
:104FD00044F0300413E044F0100410E044F02004E6
:104FE0000DE000BF0BE044F0380408E044F0280472
:104FF00005E044F0180402E044F0080400BF00BFDC
:10500000032744F480542146384600F00BFAF0BDE3
:1050100030B504460D46EA48808849F2413188425D
:1050200005D0E748808845F21031884240D1E449F4
:10503000488900F0DDF94FF48070E24908614000D2
:1050400048612012E04908608020DE49486108611B
:10505000800008614010086140004861E0B2DA4910
:1050600008608020D7494861086180000861D44900
:10507000888900F0BDF94FF48070D2490861400082
:1050800048612812D04908608020CE4948610861F3
:10509000800008614010086140004861E8B2CA49D8
:1050A00008608020C749486108618000086186E186
:1050B000C348808846F60401884249D1C0488079B7
:1050C000012804D1BE480088401E001B84B2BC49A0
:1050D000488900F08DF94FF48070BA4908614000AA
:1050E00048612012B84908608020B64948610861CB
:1050F000800008614010086140004861E0B2B24998
:1051000008608020AF494861086180000861AC49AF
:10511000888900F06DF94FF48070AA490861400059
:1051200048612812A84908608020A64948610861A2
:10513000800008614010086140004861E8B2A2495F
:10514000086080209F49486108618000086136E15D
:105150009B48808841F6631188427DD198488079C8
:1051600000283FD196480088401E001B84B2944915
:10517000488900F03DF94FF4807092490861400081
:10518000486100209049086080208E49486108618C
:1051900080000861401008614000486100208A4991
:1051A00008608020874948610861800008614010DC
:1051B00008614000486120128349086080208149CD
:1051C0004861086180000861401008614000486142
:1051D000E0B27D49086080207A494861086180001A
:1051E000086141E07649488900F002F94FF4807087
:1051F00074490861400048612012734908608020AA
:1052000070494861086180000861401008614000F1
:105210004861E0B26C49086080206A4948610861D1
:1052200080000861401008614000486164480088BF
:10523000401E00126449086080206249486108618C
:105240008000086140100861400048615C480078B7
:10525000401EC0B25C4900E047E008608020594928
:1052600048610861800008615549888900F0C0F8EC
:105270004FF4807053490861400048612812524938
:10528000086080204F494861086180000861401033
:10529000086140004861E8B24B49086080204949F4
:1052A0004861086180000861401008614000486161
:1052B00043484088401E001243490860802041490D
:1052C0004861086180000861401008614000486141
:1052D0003B488078401EC0B23B4908608020394975
:1052E000486108618000086169E03548808845F2BE
:1052F0001051884250D13249488900F079F84FF472
:105300008070304908614000486120122E490860D1
:1053100080202C494861086180000861284949893A
:10532000491C88B200F064F84FF480702549086188
:1053300040004861E0B2244908608020214948616A
:105340000861800008611E49888900F051F84FF417
:1053500080701C4908614000486128121A490860A1
:1053600080201849486108618000086114498989D2
:10537000491C88B200F03CF84FF480701149086174
:1053800040004861E8B21049086080200D4948613A
:1053900008618000086112E009488079012804D181
:1053A00007480088401E001B84B2054948892146F1
:1053B00000F038F802498889294600F033F830BDFA
:1053C00038020020001001400C0C01404FF48071A5
:1053D000054A116149005161044908608021516109
:1053E0001161890011617047001001400C0C0140EF
:1053F0004FF48071054A51614900516104490860C8
:1054000080215161116189001161704700100140D4
:105410000C0C014000B502490889FFF7E9FF00BD07
:105420003802002010B504460B462046FFF7E0FF87
:105430004FF48070054908614000486104480360EA
:105440008020486108618000086110BD00100140A3
:105450000C0C01401848806940F00400164988612E
:105460000846806940F0200088611448006820F0F8
:105470000F00124908600846006840F00300086009
:105480000E480830006840F480700C49083108600C
:105490000B48006820F470600949086008460068FD
:1054A00040F44070086006480C30006840F004008A
:1054B00003490C31086070470010024004080140A5
:1054C0000014014010B50446412C26D1082108469D
:1054D000FBF78BF93D21112000F062FF8621172098
:1054E00000F05EFF7F21262000F05AFF1E212D20B4
:1054F00000F056FF00212C2000F052FF8D212A20C1
:1055000000F04EFF3E212B2000F04AFF4FF47A704E
:1055100001F0A2F800F002FA01E0012010BD002025
:10552000FCE7000000B5002015490861C8601420A0
:10553000486100208861C8610846006840F00100A9
:105540000860084640680F4908400D494860084611
:1055500000680D4908400A4908600846006820F4C0
:10556000802008600846406820F4FE004860002063
:10557000886000214FF0006000F066F800BD000078
:10558000001002400000FFF8FFFFF6FE00BF0549D3
:10559000098801F040010029F9D00249091D08805D
:1055A00070470000004400402DE9F041074688465E
:1055B00014461D46284600F033F8C5F1040007FAEA
:1055C00000F60F20284100EA0800064306F00F0607
:1055D000E21704EBD2625211920002F1E022D2F8FB
:1055E00000212146E31704EBD3635B11A4EB431CBA
:1055F000012303FA0CF31A432046E31704EBD363A9
:105600005B119B0003F1E023C3F800210348005D18
:1056100040EA061001490855BDE8F08100E400E0C9
:105620000146072323EA01021202054B18684FF6D0
:10563000FF031840034B18431043014B1860704799
:105640000CED00E00000FA05024A0A400243024B5A
:105650001A60704780FFFF1F08ED00E02DE9F04160
:10566000054600F04AFD00F01FFD012000F03FFD5F
:10567000032000F04AFD0F2000F051FD13273846AB
:1056800000F02CFD4FF47A70FBF750FA0446BCB1E1
:10569000667AE07BA17B00EB01202880607CA8700B
:1056A000A07C0006E17C00EB0140217D00EB0120A5
:1056B000617D08446860E07D2872607E687200E069
:1056C000FF26A6B929880FA0FAF7CEFDA97813A066
:1056D000FAF7CAFD15A06968FAF7C6FD687A4FF4B3
:1056E000165200FB02F114A0FAF7BEFD07E03046A7
:1056F000FBF78AF88046414612A0FAF7B5FD30461E
:10570000BDE8F0810D0AC4A3BFE9D7EEB4F3D6B863
:10571000CEC6C8DDC1BF3D25640000000D0AB6D469
:10572000B1C8B5C8BCB63D25640000000D0AB5D8A7
:10573000D6B73D25780000000D0AB2A8CCD8C2CA61
:105740003D2564000D0A2573000000002DE9F0419D
:10575000044600F0D2FC00F0A7FC012000F0C7FCDA
:10576000072000F0D2FC152000F0D9FC200EFFF736
:105770000DFFC4F30740FFF709FFC4F30720FFF74D
:1057800005FFE0B2FFF702FF1D2000EB1460C4F339
:1057900007410844C4F307210844E1B247183846DA
:1057A00000F09CFC0E4804604FF4FA60FBF7BEF971
:1057B00006460EB1757A00E0FF25094804601DB960
:1057C00008A0FAF751FD07E02846FBF71DF88046D0
:1057D000414609A0FAF748FD2846BDE8F0810000DF
:1057E0000C0000200D0AC9E8D6C3B5D8D6B7B3C996
:1057F000B9A6A3A1000000000D0A25730000000057
:105800002DE9F041064600F078FC00F04DFC012047
:1058100000F06DFC032000F078FC1D2000F07FFC00
:105820002127384600F05AFC4FF4FA60FBF77EF966
:10583000044634B1657AE07AA17A00EB0120308029
:1058400000E0FF253DB9E07AA27A00EB022107A033
:10585000FAF70AFD07E02846FAF7D6FF80464146E8
:1058600007A0FAF701FD2846BDE8F0810D0AD3D064
:10587000D0A7D6B8CEC6B8F6CAFD3D256400000054
:105880000D0A2573000000002DE9F04706460D467D
:1058900000F033FC00F008FC012000F028FC05209B
:1058A00000F033FC0E2000F03AFC3046FFF76EFEAD
:1058B0002846FFF76BFE701900F11408404600F00F
:1058C0000DFC4FF4FA60FBF731F907460FB17C7A13
:1058D00000E0FF241CB907A0FAF7C6FC07E0204649
:1058E000FAF792FF8146494607A0FAF7BDFC204629
:1058F000BDE8F0870D0AC9E8D6C3B2CECAFDB3C968
:10590000B9A6A3A1000000000D0A25730000000045
:1059100000B503211420FAF768FF00BD10B514206C
:1059200000F026FB044604F0030018B903211420FC
:1059300000F0FBFB10BDF0B587B00546002708213D
:105940000846FAF752FF00210D2000F029FD8021C2
:105950000E20FAF74AFF93208DF8040020208DF8DE
:10596000050006A801AB022201A900900C2000F05E
:1059700045F8064686B9002407E001A8005D2855D1
:1059800001A8005D4740601CC4B2042CF5DB01A8EF
:10599000005DB84200D0022680210E2000F0C5FB39
:1059A000304607B0F0BD2DE9F04187B004460D4602
:1059B00016461F468DF804408DF805503068CDF826
:1059C0000600B088ADF80A003868039006A801AB5D
:1059D0000C2201A900900E2000F010F88046B8F1CA
:1059E000000F05D1082000F0C3FA00F0080008B944
:1059F0004FF00208404607B0BDE8F0812DE9FE4FA8
:105A00000646884691469A46DDF830B0022002905C
:105A10000020019000900C2E06D00E2E09D11220ED
:105A200001901020009005E0772001903020009038
:105A300000E000BF00BF019840F08001022000F0AC
:105A4000AFFC80210420FAF7D0FE0021012000F0F5
:105A5000A7FC80210A2000F068FB002506E018F86A
:105A60000510092000F09CFC681C85B24D45F6DB52
:105A70003146012000F094FC0C2E03D180210D2032
:105A800000F053FB4FF4167500BF042000F070FACD
:105A90000446681E85B235B104F0010018B90098BB
:105AA00020400028F1D080210D20FAF79EFE002D25
:105AB00038D0062000F05CFA00F01B0078BB002014
:105AC00002900198204000F0010008B101200290EE
:105AD0000C2E27D10A2000F04BFA04460C2000F0CF
